:100000000C94D00A0C94F80A0C94F80A0C94F80A90
:100010000C94F80A0C94F80A0C94F80A0C94F80A58
:100020000C94F80A0C94F80A0C945C0F0C94CE0F04
:100030000C94F80A0C94F80A0C94F80A0C94F80A38
:100040000C94F80A0C94F80A0C94F80A0C94F80A28
:100050000C94F80A0C94F80A0C94F80A0C94EC1519
:100060000C94F80A0C94F80A0C94F80A0C94F80A08
:100070000C94F80A0C94F80A0C94F80A0C94F80AF8
:100080000C94F80A0C94F80A0C94F80A0C94F80AE8
:100090000C94F80A0C94F80A0C94F80A0C94F80AD8
:1000A0000C94F80A0C94F80A0C94F80A53746973C7
:1000B00074696E6B00456769736F72740054686F82
:1000C0006767790054686172676F78005468757269
:1000D0006479737300457472696E004E616C746864
:1000E000697300457368004C6F0054686F746872E0
:1000F00069630044616C74656B6869004F74657373
:10010000004F676765004D61736C6F00446F736BE0
:100110006F7300536869736B00546F726B004173A7
:100120006861727500526570657374726900426F20
:10013000736875004E6972687479004B6F726874E9
:100140006900546861636865726B0056616573731A
:100150000053686F736A005275646567726F680058
:100160004C6F7274676F6E6B004E65746972726566
:10017000004E757268746963756E004972746869BF
:100180000044756C7275727468004F646875005530
:1001900072746869004564726573004A686F78001C
:1001A000497600F0F89C8E8783878E9CF8F00000DB
:1001B000FEFF0303030303070EFCF80000FEFF032A
:1001C00003030303070EFCF80000FFFF000000001C
:1001D000000000FFFF0000FEFF8383838383C7EEE0
:1001E0007C380000F8FC0E07030303070EFCF80040
:1001F000003F7FE0C08080C0E07F3FFFFF01010142
:1002000001010101FFFF0000FFFF0C0C0C0C1C3E64
:1002100077E3C100007FFFC0C0C0C0C0E0703F1FD7
:1002200000001F3F70E0C0C0C0E0703F1F00007FB3
:10023000FFC1C1C1C1C1E3773E1C00001F3F70E098
:10024000C0C0C0E0703F1F000000000001FFFF01C0
:10025000000000D5F08D14A1C881CFD9F1AF2000E6
:1002600000000000000CC878303020206040404082
:10027000404040404020E0F0F8F808040000000052
:10028000000000000000000000000000000000006E
:10029000000000000000000000000000000000005E
:1002A000000000000000E0E0E0E0C000000000000E
:1002B000000000000000000000000000000000003E
:1002C000000000000000000000000000000000002E
:1002D000000000000000000000000000000000001E
:1002E0000000000000FFE700000000000000000028
:1002F000000000000000FFFFFFFF00000000000002
:1003000000E0E0F0F01818183CFCF8F0E000000005
:1003100000001038FCF8F0E000000000F8F8FCF8ED
:100320003000000000000018080703000000001063
:1003300038FCF8F8F01818387C3830000000E0E09D
:10034000E0F0181878FCF8F0C08000000000000011
:10035000000000000000000000000000000000009D
:1003600000000000006063878E0E1C1C3C3C3C3C7F
:100370003C3C3C181818FFFFFFFFC0400000000085
:10038000007FFFFFFFC0800000FFFFFF7F00000035
:1003900000000000FFFFFFFF80000080FFFFFFFF65
:1003A000808000000000000000000000000000004D
:1003B00080FFFFFFFF800000000000000000FFFF43
:1003C000FFFF8C8602030101000000000000000016
:1003D000000000000000000000000000000000001D
:1003E00000000000000000010101010302020202FE
:1003F00002020202020301010100000000000000ED
:1004000000000101030303010101000000000000DE
:1004100000000000010103030303010101010303C4
:1004200001000000000000000000000000000000CB
:1004300001010303010000000000000000000001B2
:1004400003030300000000000000000000000000A3
:10045000000000000000000000000000000000009C
:10046000000000000000000000000000000000008C
:10047000000000000000000000000000000000007C
:10048000000000000000000080808080808080806C
:1004900080808000000000000000000000000000DC
:1004A000000000000000000000000000000000004C
:1004B000000000000000000000000000008080003C
:1004C000008080000000000000000000000000002C
:1004D000000000000000000000000000000000001C
:1004E000000000000000000000000000000000000C
:1004F00000000000000000000000000000000000FC
:100500000008180C0703FFFFFF8180404060606017
:10051000606167FFFFBC00000000000000008080F9
:10052000800000808080800000000000000000004B
:100530000080808080000000000000000001FFFFBC
:10054000FFFF0300808080800000000000000000AA
:10055000000000008080808000000000000000009B
:10056000000000000000000000000000000000008B
:10057000000000000000000000000000000000007B
:10058000000000000000FFFFFFE38180800000000A
:100590000000000003FFFFFE00000000020307FF51
:1005A000FFFF030103070703000000FCFCFEFE033E
:1005B00001010307FFFFFEFC000000000000FFFF39
:1005C000FFFFC26373FFFFCF06000000000000FCC6
:1005D000FCFEFF8343673F3F1F0C08000000000044
:1005E000000000000000000000000000000000000B
:1005F00000000000000000000000000000000000FB
:1006000000020C0C10303F3F3F60604140404040D2
:10061000202030181E0F0703000000000000387F64
:100620007F3F1800000000000000000F0F3F3F7CDC
:10063000783030301F0F0F0F0000000000183F7F90
:100640007F3F1800000F1F3F7E3810000000000F92
:100650001F3F7F3810000000000000000000000075
:1006600020676F6C6400596F75204C6F73742000A5
:1006700020676F6C6400596F7520576F6E200050B3
:1006800072657373204120746F20436F74696E75B7
:100690006500526F6C6C20416761696E00596F751F
:1006A0002057696E00596F75204C6F737400526F3C
:1006B0006C6C20323D2000526F6C6C20313D20006C
:1006C0004368616E636520526F6C6C0050524553F5
:1006D00053204120544F20434F4E54494E5545001E
:1006E0004E69636B004F7574004368616E6365000B
:1006F0004D61696E20526F6C6C00552F44204D6126
:10070000726F7474653D00206F6620004C2F52207C
:100710004265743D00596F75206C6F6F73652000E2
:10072000596F752057696E20002077696E730050ED
:1007300072657373204120746F20476F00206F66CD
:1007400020004C2F52204265743D00204F6464739A
:1007500020313A00A0019B0195018F018A0181019E
:100760007B01710169016001570151014B01420197
:100770003B0134012E0125011E01190113010C0159
:1007800006010101FC00F300EA00E700E300DB00E2
:10079000D500CC00C400BD00B500AC00544849539E
:1007A000205245534F52542057415320494D414701
:1007B000494E45440A425920412042454E2C205280
:1007C00059414E2C20414E445245570A414E442037
:1007D00044414E2C20412044554E47454F4E532016
:1007E000414E440A445241474F4E532041445645DE
:1007F0004E545552494E470A47524F55502057487C
:10080000494C4520415454454D5054494E4720547D
:100810004F0A534156452054484520574F524C44A7
:100820002046524F4D205448450A575241544820C3
:100830004F4620544845204749414E54532E004DC1
:100840004F4E535445524F504F4C495320574153EC
:100850000A464F554E44454420425920475245418F
:10086000542C0A42554742454152205741524C4F61
:1008700052440A474F524548554E4745522C204650
:100880005249454E44204F460A544845204457415A
:10089000525645532C20414E4E4948494C41544FE5
:1008A000520A4F46205448452048494C4C2047495D
:1008B000414E54532C204849530A53574153484200
:1008C00055434B4C494E472042524F544845520ADB
:1008D00047524547454B2C204E4156494741544FBE
:1008E00052204F46205448450A534B4945532C202B
:1008F000414E4420544845495220424F4F4E0A43EE
:100900004F4D50414E494F4E20534C4F4F50205465
:10091000484520424F4E450A48415256455354459A
:10092000522C204F4620544845204C495A415244AD
:100930000A464F4C4B2C20504152414D4F554E547E
:10094000204F46205448450A424F4E4520434152CD
:10095000564552532E004D4F4E535445524F504F13
:100960004C49532049532041200A464142554C4F9F
:1009700055532044455354494E4154494F4E204607
:100980004F520A414C4C2057484F20484156452071
:10099000524943484553204F520A5749534820541F
:1009A0004F204245434F4D4520524943482E204356
:1009B0004F4D450A464F5220412053544147452050
:1009C00053484F572C20504C415920494E0A544807
:1009D0004520434153494E4F2C20564953495420FA
:1009E0005448450A4D41524B4554532E20434F4ED7
:1009F0005645494E454E544C590A4C4F4341544577
:100A00004420494E204E4F52544845524E0A4641CA
:100A10004552554E2C204A55535420412053484F9F
:100A2000525420424F41540A524944452046524FA5
:100A30004D204D4952414241522E002020437265C3
:100A4000646974730020204F746865722047616D7B
:100A5000650020204E696C626F6773205265766571
:100A60006E67650020204C697A6172642052616370
:100A7000696E67004845592C20474F424C494E2C1F
:100A800020594F5520574F524B2041540A54484546
:100A900020434153494E4F204E4F572E0A4D414B54
:100AA000452054484520424F535320484150505907
:100AB0000A4259204D414B494E47204D4F4E455912
:100AC0002C204F5220454C53452100205072657315
:100AD00073204120746F20436F6E74696E756500DA
:100AE00000E0E0C04060E0C0C04040C0C080000006
:100AF000000000808080C0800000000000800000B6
:100B000000808000000000000000000000000000E5
:100B100000000007FCFE03000000000000000000D1
:100B200000000000000000000000000000000000C5
:100B30000000000000000000000080000000000035
:100B4000000000008080800000000007FEFE000022
:100B50000000C6CFC60000008080C020606020007A
:100B6000003F3F3F000020FF7F000000FFFF8000AC
:100B70000000FFFF800003FFFF00000001FFFF03F4
:100B80000103FFFFFC00000038FCFE82C7C7E680BF
:100B900000000101FFFF03020000F0F80C3EFCE042
:100BA00000001CFEF80C0E1E0C0000F8FC06061FD0
:100BB000FEF800000001FFFE020307FFFE00000038
:100BC000FCFEFF010103FFFF00000000FFFF00002B
:100BD0000000FFFF400000000327766222231F0E63
:100BE0000000000000000000000000000001000004
:100BF000000000030703020101000000000F0F06C0
:100C000000000F3F1F000000103879F060203F1FE8
:100C100000000060FFFF40000000FFFF86030100AE
:100C2000000080FFFF8000000000007FFFE0C04068
:100C30003F1F00000038FFFF3830100F0700000092
:100C400003070F0E0402030100000001030100006E
:100C50000000000100000000000000000000000093
:100C60000000000000000000000000000000000084
:100C70000000000000000000000000000000000074
:100C80000000000000000000000000000000000064
:100C90000000000001010000000003070100000047
:100CA0000000010703000000000000000101000037
:100CB0000000000000201F1F1000000000000000C6
:100CC0000000000000000000000000000000000024
:100CD0000000000000000000000000000000000014
:100CE0000000000000000000000000000000000004
:100CF00000000000000000000000000000000000F4
:100D00000000000000008080C0C0C00000C0C040E3
:100D100040C0C08000000000808040C0C040000093
:100D20000000CCDE84000000C0C08080C0C0C08055
:100D300000000000808040C0C08000000000000073
:100D400000000000000000000000000000000000A3
:100D50000000000000000000000000000000000093
:100D60000000000000000000000000000000000083
:100D70000000000000000000000000000000000073
:100D800000000000003F7F7F20201000003C7E63B9
:100D900040607F7F0000000027676444663E1C00BF
:100DA00000007F7F20000000207F7F0000207F7FE9
:100DB0000000001F7F7060403F3F1F0000000000E8
:100DC0000000000000000000000000000000000023
:100DD0000000000000000000000000000000000013
:100DE0000000000000000000000000000000000003
:100DF00000000000000000000000000000000000F3
:100E000000000000000000000000000000000000E2
:100E100000000000000000000000000000000000D2
:100E200000000000000000000000000000000000C2
:100E300000000000000000000000000000000000B2
:100E400000000000000000000000000000000000A2
:100E50000000000000000000000000000000000092
:100E60000000000000000000000000000000000082
:100E70000000000000000000000000000000000072
:100E80000000000000000000000000000000000062
:100E90000000000000000000000000000000000052
:100EA0000000000000000000000000000000000042
:100EB0000000000000000000000000000000000032
:100EC0000000000000000000000000000000000022
:100ED0000000000000000000000000000000000012
:100EE0000C10F80C04040484840404040CF81F306F
:100EF0002020202121202020301FF80C04646404CD
:100F0000046464040CF81F302026262020262620A6
:100F1000301FF80C04646404040404040CF81F304B
:100F20002020202020262620301FF80C0464648412
:100F3000846464040CF81F302026262121262620F4
:100F4000301FF80C04646484840404040CF81F301B
:100F50002020202121262620301FF80C04B4B404C0
:100F600004B4B4040CF81F30202D2D20202D2D208A
:100F7000301F080B000202020100090400000102F8
:100F800002000005240010010524010101042402CF
:100F9000060524060001070581031000400904012D
:100FA00000020A0000000705020240000007058356
:100FB000024000000403090412010002EF02014094
:100FC0004123368000010102030141726475696E9C
:100FD0006F204C4C430041726475626F790000B021
:100FE0000000A170E150964F26900F1D070C00964F
:100FF00069004AE44A0048444000806810000F99A4
:10100000FB8F9DBDBBFB77D4D4DF1F1A1AFE7F5D1B
:101010005DFF805A0000A0A4AA0010BA3400FF5956
:1010200053F3FF9B9B9EFFB9B996FF9595D19FF413
:10103000940FFC295F91FF1838F8FF9294FFFF95F9
:10104000D5F7BFB5DDD7F18F81F1F788C8F779C63D
:10105000467909FD9B090196F800828182805071D2
:1010600062007756560076763700A2B77301077292
:1010700006007827500073347400775176007F554E
:10108000F70047711000324772007364730015A2B5
:10109000750061679400009F6060F4F2F6F2000052
:1010A0000000003E5B4F5B3E3E6B4F6B3E1C3E7C48
:1010B0003E1C183C7E3C181C577D571C1C5E7F5EF6
:1010C0001C00183C1800FFE7C3E7FF0018241800B5
:1010D000FFE7DBE7FF30483A060E2629792926404C
:1010E0007F050507407F05253F5A3CE73C5A7F3E78
:1010F0001C1C08081C1C3E7F14227F22145F5F000A
:101100005F5F06097F017F006689956A60606060A5
:101110006094A2FFA29408047E040810207E201090
:1011200008082A1C08081C2A08081E101010100C99
:101130001E0C1E0C30383E3830060E3E0E060000E7
:1011400000000000005F00000007000700147F148B
:101150007F14242A7F2A12231308646236495620FA
:10116000500008070300001C2241000041221C001F
:101170002A1C7F1C2A08083E0808008070300008DE
:1011800008080808000060600020100804023E51B2
:1011900049453E00427F4000724949494621414944
:1011A0004D331814127F1027454545393C4A4949AB
:1011B0003141211109073649494936464949291E15
:1011C0000000140000004034000000081422411404
:1011D00014141414004122140802015909063E4156
:1011E0005D594E7C1211127C7F494949363E41417E
:1011F00041227F4141413E7F494949417F090909D7
:10120000013E414151737F0808087F00417F410042
:101210002040413F017F081422417F404040407FF1
:10122000021C027F7F0408107F3E4141413E7F093E
:101230000909063E4151215E7F091929462649497F
:10124000493203017F01033F4040403F1F204020BF
:101250001F3F4038403F63140814630304780403BD
:101260006159494D43007F4141410204081020006B
:101270004141417F040201020440404040400003DC
:1012800007080020545478407F28444438384444A8
:101290004428384444287F385454541800087E09A0
:1012A0000218A4A49C787F0804047800447D4000C0
:1012B0002040403D007F1028440000417F40007CDA
:1012C000047804787C080404783844444438FC18D2
:1012D00024241818242418FC7C08040408485454B6
:1012E000542404043F44243C4040207C1C204020E3
:1012F0001C3C4030403C44281028444C9090907C4A
:101300004464544C4400083641000000770000005B
:101310004136080002010204023C2623263C1EA19D
:10132000A161123A4040207A3854545559215555FC
:1013300079412154547841215554784020545579AD
:10134000400C1E527212395555555939545454593E
:1013500039555454580000457C410002457D4200F7
:1013600001457C40F0292429F0F0282528F07C5400
:101370005545002054547C547C0A097F4932494920
:1013800049323248484832324A4848303A4141218D
:101390007A3A42402078009DA0A07D3944444439E7
:1013A0003D4040403D3C24FF2424487E4943662B79
:1013B0002FFC2F2BFF0929F620C0887E090320541B
:1013C0005479410000447D413048484A3238404019
:1013D000227A007A0A0A727D0D19317D2629292F79
:1013E00028262929292630484D4020380808080891
:1013F00008080808382F10C8ACBA2F102834FA0093
:10140000007B000008142A142222142A14089500D4
:10141000220095AA005500AAAA55AA55AA000000C4
:10142000FF00101010FF00141414FF001010FF0034
:10143000FF1010F010F0141414FC001414F700FF47
:101440000000FF00FF1414F404FC141417101F1004
:10145000101F101F1414141F00101010F0000000B3
:10146000001F101010101F10101010F010000000BE
:10147000FF101010101010101010FF10000000FFCF
:10148000140000FF00FF00001F10170000FC04F410
:1014900014141710171414F404F40000FF00F714C8
:1014A000141414141414F700F7141414171410104F
:1014B0001F101F141414F4141010F010F000001F6B
:1014C000101F0000001F14000000FC140000F010AA
:1014D000F01010FF10FF141414FF141010101F0050
:1014E000000000F010FFFFFFFFFFF0F0F0F0F0FF52
:1014F000FFFF0000000000FFFF0F0F0F0F0F384429
:101500004438447C2A2A3E147E02020606027E02E9
:101510007E0263554941633844443C04407E201EAA
:101520002006027E020299A5E7A5991C2A492A1CD9
:101530004C7201724C304A4D4D303048784830BCC6
:10154000625A463D3E494949007E0101017E2A2AF0
:101550002A2A2A44445F444440514A444040444A71
:1015600051400000FF0103E080FF000008086B6BA2
:10157000083612362436060F090F06000018180028
:1015800000001010003040FF0101001F01011E008B
:10159000191D1712003C3C3C3C00000000006F1F6E
:1015A00011241FBECFEFDAE0DEBFCDBF11E0A0E017
:1015B000B1E0E6E0F3E402C005900D92A835B10772
:1015C000D9F726E0A8E5B1E001C01D92A431B20729
:1015D000E1F71AE0C0EDDAE004C02197FE010E94B5
:1015E0007B21CF3CD107C9F70E9457160C9481216B
:1015F0000C9400008F929F92AF92BF920F931F9313
:10160000CF93DF93CDB7DEB7A1970FB6F894DEBFC7
:101610000FBECDBF19A2423008F44AE08E010F5D23
:101620001F4F842E912CA12CB12CA50194010E9456
:101630002221E62FB901CA0101501109EA3014F440
:10164000E05D01C0E95CD801EC93232B242B252B12
:1016500061F7B8018DE895E00E944613A1960FB698
:10166000F894DEBF0FBECDBFDF91CF911F910F91D8
:10167000BF90AF909F908F900895682F8DE895E070
:101680000C94AE13E8E7F1E0A0E0B8E000800EBCF7
:101690008111012C1197A0FDFDCF0192B9F70DB476
:1016A000089580E0E8E7F1E081118FEF0024819355
:1016B0008193819381930394D1F7089520919705A5
:1016C000282329F490919605982381E009F480E07D
:1016D0000895CF93DF93CDE8D5E089858A870E946E
:1016E0008E138987DF91CF9108952F923F924F9269
:1016F0005F926F927F928F929F92AF92BF92CF92A2
:10170000DF92EF92FF920F931F93CF93DF93CDB7AA
:10171000DEB72A970FB6F894DEBF0FBECDBF5A01D1
:10172000822E912C9401280F391F37FDBAC08038C2
:1017300091050CF0B6C09B01200F311D37FDB1C0E3
:10174000603471050CF0ADC0AB0177FF04C04427D5
:101750005527461B570B477055279B0177FF02C043
:10176000295F3F4FE3E035952795EA95E1F777FF4D
:1017700008C02150310968E070E0FB01E41BF50B63
:10178000AF01202E269426942694312C077019F050
:10179000FFEF2F1A3F0A220E331E39017694762C62
:1017A000662477946794680E791EE12CF12C00E092
:1017B00010E0B30160587F4F7A87698768E070E076
:1017C000FB01E41BF50BFA83E9832216330609F4C7
:1017D00068C02830310509F464C02F3FFFEF3F0790
:1017E0000CF454C0E985FA85E00FF11FBF01685879
:1017F0007E4F7C836B83D801A60DB71DA858BE4FC2
:101800006C0160E070E0681579050CF03FC0E0E81D
:10181000CE16D10409F43AC0D7FC2CC02F3FFFEFFD
:101820003F0709F43AC0FB01EE0DFF1DEA0DFB1D59
:10183000E491042E01C0EE0F0A94EAF7FC91EF2B1D
:10184000EC9341155105B1F02730310599F0FB01BA
:10185000EE0DFF1DEA0DFB1DE4914E2E512C09806B
:1018600002C0559447940A94E2F7EB81FC815080C2
:10187000452840826F5F7F4FEB81FC813196FC836E
:10188000EB83FFEFCF1ADF0A1196BDCF2F5F3F4FDB
:1018900000581F4FE80CF91C98CF41155105B9F6B7
:1018A000E9CF2A960FB6F894DEBF0FBECDBFDF9109
:1018B000CF911F910F91FF90EF90DF90CF90BF904D
:1018C000AF909F908F907F906F905F904F903F90E0
:1018D0002F900895CF93DF93682F70E080E090E021
:1018E0004AE00E94FA0AEC018DE895E00E945B1341
:1018F0008C0F9D1FDF91CF910895CF92DF92EF92D1
:10190000FF92CF93DF936C01990FEE08FF08F7FE6B
:1019100017C08DE20E943D0BEC0166277727CB01B3
:101920006C197D098E099F094AE00E94FA0A8C0F02
:101930009D1FDF91CF91FF90EF90DF90CF900895A2
:101940004AE0C701B601DF91CF91FF90EF90DF90A1
:10195000CF900C94FA0A6F927F929F92AF92BF92AF
:10196000CF92DF92EF92FF920F931F93CF93DF936B
:1019700000D0CDB7DEB7142FE0EEFEE0E490E1EE4C
:10198000FEE0E4916E2C712C4423E1F021E030E084
:101990005E2F577011F420E030E04E2F46954695AB
:1019A0004695240F311D269D6001279DD00C369D44
:1019B000D00C11241C9DA0011D9D500D11244E51D1
:1019C000514F02C042EE5EE08301080F191F10164E
:1019D00011060CF09DC0803891050CF099C09B0158
:1019E0002E0F311D121613060CF092C060347105D3
:1019F0000CF08EC04115510509F48AC0262F2770BE
:101A0000F22E9B0177FF02C0295F3F4FF3E035952F
:101A10002795FA95E1F7F22F77FF04C0FF2011F028
:101A2000FFEFF20F97FF05C022273327281B390B42
:101A300002C020E030E00038110524F000E8081B67
:101A4000902E01C09E2C921A6F2F0F2E000C770B38
:101A5000FF3F1CF4D62ED09401C0D12CCC24C394CB
:101A60001E2F177009F4C12CE695E695E695EC0D4E
:101A70006E0F711D6930710514F0E8E0EF1B1D2D2C
:101A80001F0FB901ED9C600D711D1124460F571FEA
:101A900061E070E00F2C02C0660F771F0A94E2F736
:101AA00000E81003800D911D1124820F931F8858A8
:101AB0009E4FBE2EBF0EB11659F19C01FA01EE2EBB
:101AC000E41AE914F8F4E490E69E6001E79ED00C75
:101AD0001124DA82C98217FD04C0D901EC90CE2806
:101AE000CC92FF2059F017304CF46901B0E8CB0ECE
:101AF000D11CD601AC90EA80EA28EC9231962F5F97
:101B00003F4FDDCF1F5F460D571D80589F4FD3CFEE
:101B10000F900F90DF91CF911F910F91FF90EF9059
:101B2000DF90CF90BF90AF909F907F906F9008957F
:101B3000E1E0F0E00E949915319728F068517C4F60
:101B40008F4F9F4FF9CFAB01FC010E94991564178D
:101B500075078E079F07C8F308952091770121111B
:101B600003C08FEF9FEF08955FB7F89422E02093B2
:101B7000E9002091F20030E01216130614F421E07F
:101B800030E0422FFC0184E6415038F028988093E1
:101B900076019091F1009193F7CF2115310521F055
:101BA0008091F200882319F05FBFC90108958BE688
:101BB0008093E800F9CF2FB7F89483E08093E90091
:101BC0009091E800892F807295FF04C09091F200F7
:101BD00080E4891B2FBF08958091A80581110DC055
:101BE00082E08093A40584E08093A5051092A70568
:101BF0001092A60581E08093A80584EA95E00895F7
:101C0000CF93DF931F92CDB7DEB76983DC01ED91EF
:101C1000FC910280F381E02D41E050E0BE016F5F56
:101C20007F4F09950F90DF91CF91089583E08093C6
:101C3000E9008091F200882319F08AE38093E8009C
:101C40000895FC018485958597FD0BC09FB7F89496
:101C500082E08093E9008091F2009FBF90E00196BE
:101C600008959FB7F89482E08093E9008091F20094
:101C70009FBF90E008958F929F92AF92BF92CF92B4
:101C8000DF92EF92FF920F931F93CF93DF936C013C
:101C90007B018A0180911501882309F458C0809145
:101CA0007701882309F453C08091060680FF05C0A0
:101CB0008091E00082608093E000E801B12C8AEF1F
:101CC000A82E93E0892E2AE3922E209711F4BB20B0
:101CD000B9F10E94DB0D811106C0AA94AA20B9F1C6
:101CE0000E94980DF2CF282F30E0C217D3070CF4D2
:101CF0008C2F9FB7F8948092E9002091E80025FF8F
:101D00001DC0282F30E0C21BD30BF701815020F0FB
:101D100041914093F100FACFE20EF31EBB2019F07F
:101D20009092E8000AC08091E80085FD07C090927B
:101D3000E800BB24B394209709F0B12C9FBFC5CF16
:101D40005D9884E6809307061016110644F081E042
:101D500090E0F6019383828380E090E001C0C801A7
:101D6000DF91CF911F910F91FF90EF90DF90CF9077
:101D7000BF90AF909F908F9008950E94DB0D90E0F0
:101D800008950F931F93CF93DF931F92CDB7DEB7C4
:101D90008C01FC018485958597FF0EC0CE010196CC
:101DA0000E94AD0D019719F4898190E002C08FEF78
:101DB0009FEFF80195878487F801848595850F90BA
:101DC000DF91CF911F910F910895CF93DF931F92D1
:101DD000CDB7DEB7FC018485958597FD05C02FEF53
:101DE0003FEF358724870BC0CE0101960E94AD0DD1
:101DF000019719F4898190E002C08FEF9FEF0F9057
:101E0000DF91CF910895DF92EF92FF920F931F938E
:101E1000CF93DF93D82E8A017B01E40EF51EEB01F0
:101E2000CE15DF0571F0D7FE03C0FE01849101C01D
:101E300088810E94B11521968111F2CF8FEF9FEF1B
:101E400001C0C801DF91CF911F910F91FF90EF90DA
:101E5000DF9008950F931F93CF93DF931F92CDB719
:101E6000DEB782E0898342E450E062E77FE080E809
:101E70000E94030F0E94EC0DDC0112960D911C9143
:101E800013970115110589F0D801ED91FC9102809D
:101E9000F381E02DBE016F5F7F4FC801099597FD6B
:101EA00004C0F80100851185ECCF89810F90DF9186
:101EB000CF911F910F9108951F920F920FB60F921D
:101EC00011248F939F938091E1009091E100937F83
:101ED0009093E10083FF0FC01092E90091E090938E
:101EE000EB001092EC0092E39093ED0010927701DA
:101EF00098E09093F00082FF20C093E09093E90077
:101F00009091F200992319F09AE39093E800909150
:101F10000706992339F09091070691509093070690
:101F2000992389F190917601992339F09091760166
:101F3000915090937601992341F184FF10C08091D4
:101F4000E2008E7E81608093E2008091E1008F7ECE
:101F50008093E100809106068E7E806111C080FF33
:101F600016C08091E2008E7E80618093E2008091B5
:101F7000E1008E7E8093E100809106068E7E816076
:101F80008093060604C05D9ACDCF289AD6CF9F9144
:101F90008F910F900FBE0F901F9018951F920F9268
:101FA0000FB60F921124CF92DF92EF92FF920F9310
:101FB0001F932F933F934F935F936F937F938F93D1
:101FC0009F93AF93BF93EF93FF93CF93DF93CDB7DF
:101FD000DEB76C97DEBFCDBF1092E9008091E800BC
:101FE00083FFBCC168E0CE0145960E94DF1582EFF9
:101FF0008093E8008D8987FF05C09091E80090FFED
:10200000FCCF03C09EEF9093E800982F907609F0E4
:10201000C6C09E894F89588D2F89F88C91110CC0AC
:10202000803829F4809105068093F10002C0109257
:10203000F1001092F1008FC1913051F481118BC1E8
:102040004130510509F087C1809105068D7F0BC095
:10205000933061F481117FC14130510509F07BC19A
:102060008091050682608093050675C1953049F41C
:102070008091E80080FFFCCF822F80688093E3008E
:102080006AC1963009F05EC00B8D1C8D22E0109263
:10209000E9001092030610920206F21232C010926A
:1020A0000106109200060E942A0F99E0BE016F5FA0
:1020B0007F4FDB01E92F1D92EA95E9F79983FA82B8
:1020C00091E09E8390EA98879AEF99872091020683
:1020D00030910306275F3F4F3C832B838D83109203
:1020E000E900109203061092020610930106009375
:1020F000000649E050E080E00E94030F0E942A0F92
:102100002AC110930106009300060E94EC0DDC0129
:1021100012960D911C9113970115110509F4BEC07B
:10212000D801ED91FC910480F581E02DBE016B5E3C
:102130007F4FC8010995009709F0ABC0F8010085F1
:102140001185EACF973009F402C1983021F481E07B
:102150008093F10000C1993009F0FDC0837009F04F
:10216000F6C0EDE4F1E081E031E096E32081211159
:1021700009C08EE78093EA001092EA008F8980936D
:102180007701E9C08093E9003093EB00219120931F
:10219000EC009093ED008F5F873041F7EACF8B8D95
:1021A0009C8D1092E9001092030610920206909303
:1021B000010680930006898D81114FC08E899D890B
:1021C000913A49F4813209F0C2C047E050E06EE034
:1021D00071E080E0B6C0913209F0B9C0833269F491
:1021E0008F89988DA0E0B0E080930A0190930B0155
:1021F000A0930C01B0930D01AEC0803269F48091C0
:10220000E80082FFFCCF67E08EE091E00E94DF15DE
:102210008BEF8093E80006C0823209F09CC08F8962
:102220008093150180910E0190910F01A0911001F2
:10223000B0911101803B9440A105B10509F084C023
:102240008091150180FD80C088E78093040680910D
:1022500064008F7D809364007EC00E94EC0DDC01E1
:1022600012960D911C9113970115110509F46FC079
:10227000D801ED91FC910190F081E02DBE016B5EE3
:102280007F4FC8010995811166C0F801008511854D
:10229000EBCF181619060CF45EC059C0F1E0FF161A
:1022A00009F446C0F3E0FF1252C08F89882309F475
:1022B00042C0823029F440E867E086ED9FE006C026
:1022C000813051F440E86BE08AEC9FE00E94C21F2D
:1022D000882309F43CC03FC08330C9F50E94EC0D4F
:1022E000DC011296ED90FC9013978E010F5F1F4F4B
:1022F0006801E114F10479F0D701ED91FC910680B9
:10230000F781E02DB801C7010995080F111DF701EC
:10231000E084F184EECFD8011C92F60101900020F8
:10232000E9F73197BF016C197D0940E0C601CECFB6
:1023300068EB7FE002C064EB7FE0FB01449150E07A
:1023400080E80E94030F07C01092040604C081E2D7
:102350008093EB0003C08EEF8093E8006C960FB67D
:10236000F894DEBF0FBECDBFDF91CF91FF91EF910B
:10237000BF91AF919F918F917F916F915F914F919D
:102380003F912F911F910F91FF90EF90DF90CF9091
:102390000F900FBE0F901F901895CF92DF92EF9283
:1023A000FF920F931F93CF93DF936C017A018B0100
:1023B000C0E0D0E0CE15DF0581F0D8016D918D0130
:1023C000D601ED91FC910190F081E02DC6010995B7
:1023D000892B11F02196EECF7E01C701DF91CF91BD
:1023E0001F910F91FF90EF90DF90CF900895089587
:1023F0004F925F926F927F928F929F92AF92BF9215
:10240000CF92DF92EF92FF920F931F93CF93DF93C0
:102410006C013B01102F38E0832E912C7A01FF24B0
:10242000270193E0559447949A95E1F7CA01877084
:102430009927892B41F5D6011796CD91DC911897F4
:10244000C3019927BE010E9453214C9EF0014D9E6D
:10245000F00D5C9EF00D11249927D60115964D9133
:102460005C9116978E0F9F1FFA01E80FF91F11114B
:1024700006C0C22FC09520812C23208327C0C08195
:10248000C22BC08323C0C22FD0E04770A42EB12C32
:10249000720183E0EE0CFF1C8A95E1F79E0101C0FA
:1024A000220F4A95EAF7012FA701B301C6010E9446
:1024B000F811C4018A199B0902C0D595C7958A9560
:1024C000E2F72C2FA701485F5F4FA8CFDF91CF9194
:1024D0001F910F91FF90EF90DF90CF90BF90AF9042
:1024E0009F908F907F906F905F904F9008955F9234
:1024F0006F927F928F929F92AF92BF92CF92DF9214
:10250000EF92FF920F931F93CF93DF93EC016A300A
:1025100061F48D859E859C878B872C898F85988912
:10252000820F911D988B8F8777C0CB84DC846930B4
:1025300031F489E0C80ED11CDC86CB866DC09DEFDE
:10254000C9169FEFD90654F48B8990E004962B8529
:102550003C85820F931F9C878B875EC08F819885F7
:10256000C816D9068CF7EF84F8888DEFE8168FEF40
:10257000F80654F389859A85E816F9062CF7603237
:1025800008F46FE780EE860F9FE9960F9A3118F4F2
:102590009FEFE91AF90A8C3011F08B3119F49FEF93
:1025A000E91AF90A869594E0899F500111243601B1
:1025B00084E0680E711C4601162F1170F401EC19AD
:1025C000FD09EA0DFB1DE252F04F8491111103C089
:1025D0008F70582E04C0582E52948FE058228C8150
:1025E000882361F001E089899A89892B09F000E04C
:1025F0002FE0A701B401CE010E94F8110989252D11
:10260000A701B401CE010E94F8119FEF891A990A1F
:102610006814790499F698CF81E090E0DF91CF912A
:102620001F910F91FF90EF90DF90CF90BF90AF90F0
:102630009F908F907F906F905F900895089580E0B5
:1026400090E00895EF92FF920F931F93CF93DF9343
:102650008C017B01C0E0D0E0F701EC0FFD1F64911D
:10266000662361F0D801ED91FC910190F081E02D9D
:10267000C8010995892B11F02196EECFCE01DF918B
:10268000CF911F910F91FF90EF9008956115710503
:1026900079F0FB0101900020E9F73197AF01461B6B
:1026A000570BDC01ED91FC910280F381E02D099440
:1026B00080E090E0089565E571E00C9446130F9377
:1026C0001F93CF93DF93EC010E9422138C01CE0164
:1026D0000E945B13800F911FDF91CF911F910F918B
:1026E00008952D9A0895BC0180E090E0AB01FC01B3
:1026F0000E94991541505109E109F10928F06851EA
:102700007C4F8F4F9F4FF6CFAB01FC010E94991574
:10271000641775078E079F07C8F308958FB18095DA
:10272000807F669B88601C9B846008950C94DA20EF
:1027300090E1282F81E061FD84E060FD880F62FD5B
:102740008295687F969FD0011124A20FA858BE4F92
:102750009C91982B40FF98279C9308952F923F922D
:102760004F925F926F927F928F929F92AF92BF92A1
:10277000CF92DF92EF92FF920F931F93CF93DF934D
:10278000CDB7DEB727970FB6F894DEBF0FBECDBF2B
:102790009F838E836A30A1F4DC0155962C91559766
:1027A00051968D919C915297B8E02B9F800D911D71
:1027B0001124EE81FF81928B818B108A1786B5C020
:1027C0006D3009F4B2C0AE81BF811F960D911C918E
:1027D000509700381105BCF0EE81FF812589422F0A
:1027E00050E087859089F6E02F9F800D911D112480
:1027F000AE81BF8150969C938E931F9756962C91D5
:1028000021117DC092C0EE81FF8181889288F0E421
:102810008F1691040CF7AE81BF8155963C90C8018C
:10282000B5E03B9E800D911D112418161906A4F6E3
:10283000432C512CC401E8E03E9E800D911D1124D3
:10284000181619064CF6AE81BF815496BC91BC8314
:10285000EE81FF81F389FD8325E0629FB0011124A1
:10286000CB0182569F4E3C011982F3012490F981DD
:10287000F53009F4212C540128E02B8320FE03C0FD
:102880003D813A8302C08C818A839A81911104C070
:10289000AC81BD81AB17F9F078018E2D801B8315BB
:1028A000D0F465018C2D8A19831588F4E0E8EE16C2
:1028B000F10448F4F0E4CF16D10428F44A81B601BB
:1028C000C7010E9498132FEFC21AD20AEBCF3FEF35
:1028D000E31AF30AE2CF26948B8181508B83A40CF8
:1028E000B51C8111CBCF99819F5F9983040D151D74
:1028F000D30111963D01963009F0B7CF6DCF6AEF45
:1029000064039001659F300D112420583F4F281714
:1029100039075CF4AE81BF81ED91FC911197019074
:10292000F081E02D6AE0CD01099581E090E02796E5
:102930000FB6F894DEBF0FBECDBFDF91CF911F91D0
:102940000F91FF90EF90DF90CF90BF90AF909F904E
:102950008F907F906F905F904F903F902F90089551
:1029600080E00C94420B809100018530E9F4809165
:102970005801843009F4A4C0863069F480910101C3
:1029800090910201880F991F880F991F65E070E0F0
:102990000E945321B4C0873009F4A2C0883071F37B
:1029A000893009F0A9C06CC0863051F5809158017A
:1029B000843059F4209101013091020145E0429F99
:1029C000C001439F900D112491C0853099F48091EE
:1029D00001019091020125E0289FB001299F700D0F
:1029E000112477FF02C06D5F7F4F759567957595D0
:1029F000679585C08730F1F2883009F055C040C036
:102A0000873091F580915801843039F4609101014B
:102A100070910201660F771F72C0853081F480913A
:102A2000010190910201BC01660F771F680F791FA9
:102A300077FF02C06F5F7F4F7595679560C08630E6
:102A400059F4209101013091020146E0429FC001FA
:102A5000439F900D11249ACF883099F38930F9F271
:102A60008A3009F04BC0D2CF883021F580915801CF
:102A7000843009F49FCF853009F4A9CF863029F43A
:102A800060910101709102013AC0873069F4209190
:102A900001013091020145E0429FC001439F900D2A
:102AA000112466E070E074CF893009F490CF8A3049
:102AB00029F580CF893011F580915801843049F48F
:102AC0008091010190910201880F991F880F991F31
:102AD0000DC08530A9F2863009F450CF873049F413
:102AE0008091010190910201880F991F63E070E0CD
:102AF0004FCF883009F442CF8A3011F30895CB01CB
:102B000008952091050130910601A901481B590B38
:102B1000CA01181619062CF45093060140930501BA
:102B20000895109206011092050189E080935901E1
:102B30000895A0E1B6E02FB7F8947D918D919C9116
:102B400066B52FBFA89B05C06F3F18F47F5F8F4FFE
:102B50009F4F22E0660F771F881F991F2A95D1F794
:102B6000089540910206509103062091000630918D
:102B7000010642175307B4F49091E8009570E1F311
:102B80009091E80092FD19C08093F10080910206B7
:102B90009091030601968F739927892B19F48EEF74
:102BA0008093E8008091020690910306019690932D
:102BB00003068093020681E0089580E00895615045
:102BC00030F02091F100FC0120830196F8CF289885
:102BD00084E68093760108950F930FB70F931F92A9
:102BE00011248F939F93EF93FF93E8E0F6E0809199
:102BF0000F0691E08D5F8D3710F08D579395809380
:102C00000F068081890F80839181911D91830281BC
:102C1000011D02838381811D838309270F7009278A
:102C2000029500930E063BD0811100930C068C3A5E
:102C300011F08C35A1F400910D06901B963088F0B0
:102C400085538093000880930108289828D0F1F7D5
:102C500088E198E08093600090936000FFCF9093AC
:102C60000D0680910406815020F08093040687E7CA
:102C700041F3E0E1F6E080819181019680839183C8
:102C800082819381811D911D82839383FF91EF91B6
:102C90009F918F911F900F910FBF0F9118958FB13A
:102CA0008095807F669B88601C9B846008957894E3
:102CB00084B5826084BD816084BD85B5826085BD38
:102CC000816085BD81E080936E00E1E8F0E01082D4
:102CD00082E0808381608083E0E8808181608083FE
:102CE000E1E980818260808381608083E0E9808186
:102CF00081608083E1EC8081846080838260808356
:102D000081608083E3EC808181608083E0EC80815E
:102D100082608083E2EC808181608083EAE7808149
:102D20008460808382608083816080838068808308
:102D30001092770110920506109206068091D70036
:102D400081608093D70080EA8093D80089B5806144
:102D500089BD89B5826089BD09B400FEFDCF0E949E
:102D6000980D8091D8008F7C80618093D8008091ED
:102D7000E000807F8093E0008091E1008E7E809370
:102D8000E1008DE08093E200559A209A81EC8093D7
:102D90007C0085B1806F85B984B1877E84B984B1A8
:102DA000876E84B95E9A5F988AB1806D8AB9769A87
:102DB0006E9881B3806F81BB899880B38D7080BB22
:102DC00080E58CBD81E08DBD85E090E00E947313AD
:102DD0005F9A85E090E00E9473135E985C98E3E54B
:102DE000F2E080E692E024912EBD00000DB407FED3
:102DF000FDCF31968E179F07B1F75C9A81E88093DB
:102E000064008091650081608093650081E995E0B0
:102E10000E94B0140E948E1387FF1FC05C9885EA41
:102E20008EBD00000DB407FEFDCF5C9A2E982F9842
:102E30002D9881E083BF889513BEFCCF2D980E940A
:102E40008E138478843871F00E948E1384718431DB
:102E500031F188EC90E00E9473130E948E1382FD82
:102E6000EDCF3AC00E94711388EC90E00E9473137A
:102E70002F9882E090E00E94DA208F3F29F06FEFD8
:102E800082E090E00E94E22084EF91E00E947313C0
:102E90002F9A0E948E1384788438D9F3D5CF0E945C
:102EA000711388EC90E00E9473132E9882E090E0FA
:102EB0000E94DA20882329F060E082E090E00E94FE
:102EC000E22084EF91E00E9473132E9A0E948E13E9
:102ED00084718431D9F3BDCF0E94711382E090E0F8
:102EE0000E949613882319F03E9A3F9A02C03E989A
:102EF0003F9881E090E00E949613182F147081FF94
:102F00003AC011112E98C0EFDFEF0E948E1386FF9A
:102F100005C02E9A2F9A0E9471132DC0112329F0FB
:102F2000C430D10511F42E9A2F9881E00E94420BF3
:102F300000E128E543EA51E0BE0184E190E00E940F
:102F4000750B81E995E00E94B0148FE090E00E943B
:102F500073132196C931D105C1F6112311F02F9AAF
:102F60002D9880E991E00E9473130E9471138DE8FF
:102F700095E00E94F71F82E390E00E9473130E9485
:102F80008E138111F8CF81E28093980580916400BF
:102F90008E7F8093640080917A00806480937A00B1
:102FA00080917A0086FDFCCFC0917800D0917900A5
:102FB0000E9499158E0120E030E09801112700272A
:102FC000600F711F821F931F209164002160209366
:102FD0006400611571058105910511F00E94D120F1
:102FE00037E0832E912CA12CB12C0E94510B109212
:102FF0009F0510929E0510929D0510929C058FB71B
:10300000F894409108065091090660910A06709163
:103010000B068FBF80919905242F281B822F90913A
:103020009A05992329F020939B0510929A0545C78C
:1030300090919805291748F48F5F891708F03DC7CC
:1030400081E083BF889513BE38C781E080939A05DD
:1030500040939905809194059091950501969093E0
:1030600095058093940580915901811132C00FE23A
:1030700020E840EE5AE060E070E080E090E00E94DE
:10308000750B10929D0510929C0582E390E0909341
:103090009F0580939E056BEC7AE08DE895E00E9499
:1030A0005F1381E995E00E94B0140E94690B88E0EB
:1030B0000E945E0B8823C9F381E0809359010E942E
:1030C000510B10929F0510929E0510929D05109233
:1030D0009C0580915901813009F09DC010928605B0
:1030E0001092850510928405109283051092880530
:1030F0001092870564E77AE088E795E00E94221342
:1031000010929D0510929C05CEE1D0E0D0939F05D2
:10311000C0939E0564E67AE08DE895E00E945F1317
:1031200062E57AE08DE895E00E945F1365E47AE05D
:103130008DE895E00E945F136BE37AE08DE895E0FF
:103140000E945F1380917501811109C010929D0545
:1031500010929C05D0939F05C0939E051EC08130A0
:1031600039F410929D0510929C0586E290E011C002
:10317000823039F410929D0510929C058EE290E009
:1031800008C0833051F410929D0510929C0586E38F
:1031900090E090939F0580939E0563E571E08DE834
:1031A00095E00E94461381E995E00E94B0140E94C8
:1031B000690B80E10E945E0B882329F080917501E4
:1031C0008F5F8093750180E80E945E0B882329F051
:1031D00080917501815080937501809175018430D3
:1031E00010F01092750188E00E945E0B882399F020
:1031F00080917501811102C082E00BC0813011F411
:1032000084E007C0823011F488E003C0833019F4F1
:103210008AE080935901809159018A3009F03FC0BA
:1032200010928605109285051092840510928305F0
:10323000109288051092870580917401811106C053
:1032400066E579E088E795E00E9422138091740199
:10325000813031F46FE378E088E795E00E94221333
:1032600080917401823031F46CE977E088E795E071
:103270000E94221381E995E00E94B0140E94690B1C
:1032800088E00E945E0B882351F0809174018F5F6B
:1032900080937401833018F081E08093590180910C
:1032A0005901823009F042C180910901882309F453
:1032B00055C0A7E6B1E0CCE6D1E0E0E7F1E098EC5C
:1032C0008CE3919319928D9341E0E437F407C9F7A9
:1032D0000CE611E0C0E7D1E00E94832024E230E058
:1032E00040E050E00E94F02069930E9483202BE090
:1032F00030E040E050E00E94F020DC01CB0102967B
:10330000A11DB11DF80181938F01F1E0C437DF07E2
:1033100019F730917001209171013217C9F2909123
:1033200072013917A9F280917301381789F22917B0
:1033300079F2281769F2981759F2109266011092E3
:10334000650110926B0185E090E0909308018093F5
:1033500007011092090181E0809304010E94510B42
:1033600010929F0510929E0510929D0510929C054B
:10337000C0E7D1E00CE611E094E7E92E91E0F92EE8
:103380002CE3C22ED12C80E20E943D0BE991F0E0AB
:10339000EE0FFF1FEC5AF84F659174918DE895E0A0
:1033A0000E942213D0929D05C0929C056BE477E0A9
:1033B0008DE895E00E942213F80181918F010E940F
:1033C0006A0CEC16FD06F9F68DE895E00E945B1399
:1033D0008DE895E00E945B1362E477E08DE895E06C
:1033E0000E94221380910701909108010E947D0C98
:1033F0006DE377E08DE895E00E942213809105014E
:10340000909106010E947D0C80916B01811109C091
:1034100010929D0510929C0510929F0510929E059A
:103420001EC0813039F410929D0510929C0588E0F1
:1034300090E011C0823039F410929D0510929C05E5
:1034400080E190E008C0833051F410929D05109205
:103450009C0588E190E090939F0580939E058EE304
:103460000E943D0B81E995E00E94B0140E94690B17
:1034700084E00E945E0B882329F081E0809359014B
:103480008093090188E00E945E0B882319F083E095
:103490008093590180E80E945E0B882329F0809177
:1034A0006B01815080936B0180E10E945E0B882349
:1034B00029F080916B018F5F80936B0180E20E9405
:1034C0005E0B882349F080910701909108010597D0
:1034D000909308018093070180E40E945E0B88238B
:1034E00049F0809107019091080105969093080199
:1034F00080930701809107019091080120910501B7
:1035000030910601281739072CF4309308012093D5
:10351000070106C097FF04C010920801109207012E
:1035200080916B01843010F010926B0180915901F1
:10353000833009F07BC1E0917001F0E0EE0FFF1FD6
:10354000EC5AF84F659174918DE895E00E945F13F5
:10355000E0917101F0E0EE0FFF1FEC5AF84F65911A
:1035600074918DE895E00E945F13E0917201F0E0A4
:10357000EE0FFF1FEC5AF84F659174918DE895E0BE
:103580000E945F13E0917301F0E0EE0FFF1FEC5A11
:10359000F84F659174918DE895E00E945F130E9449
:1035A000690B84E00E945E0B882329F081E0809300
:1035B00009018093590180916501811110C0109219
:1035C0009D0510929C058EE290E090939F0580935C
:1035D0009E056FE277E08DE895E00E945F13809191
:1035E0006501811105C088E00E945E0B81116DC4E8
:1035F00080916501882309F415C1809166018111CC
:1036000018C007E611E0C0E0D0E0F80181918F0119
:1036100090E090939D0580939C05D0939F05C09367
:103620009E058EE70E943D0B2896C032D10569F7B2
:1036300052C0883108F055C07CE6E72E71E0F72EC5
:10364000C7E6D1E000E010E0EDE0CE2ED12C0E94E4
:103650008320F70121917F012601421A5108052C90
:10366000000C660877082CE030E040E050E00E9453
:10367000F020DC01CB010196A11DB11D841595053B
:10368000A605B70594F40E94832023E030E040E0D3
:1036900050E00E94F020DC01CB010296A11DB11D7B
:1036A0002881622F680F688303C088818F5F8883B9
:1036B000899190E090939D0580939C0510939F05C0
:1036C00000939E058EE70E943D0B085F1F4F00325E
:1036D000110509F0BCCF809166018F5F8093660170
:1036E000A1C057E6E52E51E0F52E00E010E06EE2B5
:1036F000C62ED12CF70181917F0190E090939D051A
:1037000080939C0510939F0500939E058EE70E9471
:103710003D0BE7E6F1E080E0712C90E021919217FB
:1037200010F4782E922F8F5F8430C1F710929D0590
:1037300010929C05D0929F05C0929E05C72DD0E0A7
:10374000FE01E059FE4FE081F0E0EE0FFF1FEC5A62
:10375000F84F659174918DE895E00E94221369E21B
:1037600077E08DE895E00E945F1380916B018711EF
:1037700042C060E277E08DE895E00E942213C459D0
:10378000DE4F888190E00196209107013091080179
:10379000AC01429FC001439F900D529F900D112498
:1037A0000E947D0C8DE895E00E945B1380910401DE
:1037B0008823C1F0888190E00196409107015091E3
:1037C0000801849F9001859F300D949F300D112436
:1037D0008091050190910601280F391F3093060151
:1037E0002093050110920401085F1F4F003211055C
:1037F00009F080CF17C065E177E08DE895E00E9481
:10380000221380910701909108010E947D0C809104
:103810000401882339F380910701909108010E94E7
:103820008115E0CF81E995E00E94B01480915901A3
:10383000843009F0A0C080910301882359F085E00D
:10384000809300011092030182E090E090930201C6
:10385000809301016CE077E08DE895E00E942213EF
:1038600080910101909102010E947D0C67E077E058
:103870008DE895E00E942213809105019091060148
:103880000E947D0C8DE895E00E945B136AEF76E064
:103890008DE895E00E942213809100010E946A0C3D
:1038A00081E995E00E94B0140E94690B84E00E94B7
:1038B0005E0B882329F081E08093590180930301F6
:1038C00088E00E945E0B882329F01092640185E055
:1038D0008093590180E80E945E0B882329F0809133
:1038E00000018F5F8093000180E10E945E0B8823BE
:1038F00029F08091000181508093000180E20E94B4
:103900005E0B882349F0809101019091020102979A
:10391000909302018093010180E40E945E0B882352
:1039200049F0809101019091020102969093020169
:103930008093010180910101909102012091050184
:1039400030910601281739072CF430930201209397
:10395000010106C097FF04C01092020110920101FC
:10396000809100018A3010F085E003C0853018F4A2
:1039700089E08093000180915901853009F08BC165
:10398000809164018111ABC00E948320A501940144
:103990000E94F020609363010E948320A50194019E
:1039A0000E94F0206093620180916301680F609330
:1039B000580191E09093640184E080935D018091CF
:1039C0000001853029F4653049F590935D0126C0EA
:1039D000863041F4663011F06C3079F581E08093E7
:1039E0005D012BC0873051F4673011F06B30F1F47A
:1039F00091E090935D01873069F418C0883029F414
:103A0000962F9B7F9830C9F4F3CF893019F4693031
:103A100029F4EECF883089F08930C9F48EEF860F13
:103A2000823090F485E080935D0111C08EEF860FA7
:103A30008230C0F36C3059F4F5CF8EEF860F8230B0
:103A400088F36B3021F4EECF6B50623058F30E9454
:103A5000832028E430E040E050E00E94F0206093B2
:103A600061010E94832026E130E040E050E00E94A6
:103A7000F020DC01CB010296A11DB11D80936001F5
:103A80008091610190E040966C01092E000CEE08D7
:103A9000FF088636910594F40E94832006E610E024
:103AA00020E030E0A90198012C193D094E095F0979
:103AB0000E94F020C60ED71EE81EF91EC0925F01BC
:103AC0000E94832026E130E040E050E00E94F02098
:103AD000DC01CB010296A11DB11D80935E01109106
:103AE000620100916301E8E7F1E091E8915021F073
:103AF000808181608193FACFE8E7F3E091E891500B
:103B000021F0808180688193FACFC0E0D0E041E06D
:103B1000BE0180E090E00E9498132196C832D10542
:103B2000B1F7C0E0D0E041E0BE018FE790E00E9435
:103B300098132196C832D105B1F741E0400F60914A
:103B4000600170E08091610190E00E94AB0C41E067
:103B5000410F60915E0170E080915F0190E00E94F2
:103B6000AB0C60EF76E08DE895E00E945F138DE886
:103B700095E00E945B138DE895E00E945B138DE851
:103B800095E00E945B138DE895E00E945B138091A5
:103B90005D01853031F469EE76E08DE895E00E94B4
:103BA0005F1380915D01843031F465EE76E08DE83D
:103BB00095E00E945F1380915D01813031F460EEE9
:103BC00076E08DE895E00E945F138DE895E00E9415
:103BD0005B13109286051092850510928405109251
:103BE00083058AE390E090938805809387056CECC9
:103BF00076E088E795E00E945F1381E995E00E94F6
:103C0000B0140E94690B84E00E945E0B882329F0A7
:103C100081E0809359018093030188E00E945E0B4C
:103C20008823C9F180915D01853051F410926401BF
:103C300086E0809359018091580180935C012BC0EC
:103C40008130B1F487E080935901209101013091D6
:103C500002018091050190910601820F931F9093BC
:103C600006018093050130935B0120935A0113C034
:103C7000843089F487E080935901C0910101D0918B
:103C80000201CE010E948115D195C195D109D09331
:103C90005B01C0935A0180915901863009F0B2C08E
:103CA00080916401811126C00E948320A5019401A6
:103CB0000E94F020609363010E948320A50194017B
:103CC0000E94F0206093620180916301680F60930D
:103CD000580181E08093640180910001681303C062
:103CE00083E080935D0180915C01681303C082E0F2
:103CF00080935D0160EC76E08DE895E00E945F13B3
:103D00008DE895E00E945B1367EB76E08DE895E027
:103D10000E942213809163010E946A0C6EEA76E091
:103D20008DE895E00E942213809162010E946A0C46
:103D30008DE895E00E945B138DE895E00E945B138F
:103D400080915D01833019F465EA76E009C0823024
:103D500019F46DE976E004C0853031F462E976E06B
:103D60008DE895E00E945F138DE895E00E945B135B
:103D70006FE776E08DE895E00E945F1381E995E0BA
:103D80000E94B0140E94690B88E00E945E0B882399
:103D9000C9F180915D01853031F41092640186E0B3
:103DA000809359012FC08230B1F487E0809359018C
:103DB0000E94B3142091050130910601820F931FD8
:103DC00090930601809305010E94B31490935B01C8
:103DD00080935A0117C08330A9F487E0809359017A
:103DE000C0910101D0910201CE01880F991F0E945C
:103DF0008115D195C195D109CC0FDD1FD0935B0101
:103E0000C0935A0180915901873009F044C08091D4
:103E10005A0190915B011816190694F466E776E052
:103E20008DE895E00E94221380915A0190915B01E8
:103E30000E947D0C60E776E08DE895E00E945F13BC
:103E400080915A0190915B0197FF15C066E676E07C
:103E50008DE895E00E94221380915A0190915B01B8
:103E60009195819591090E947D0C60E676E08DE840
:103E700095E00E945F1381E995E00E94B0140E94D2
:103E8000690B84E00E945E0B811123C088E00E94D0
:103E90005E0B81111EC080915901893071F400E4DC
:103EA00020E840E652E060E070E080E090E00E94B0
:103EB000750B81E995E00E94B01480E090E0892BB9
:103EC00009F493C80E94000090C881E080936501C6
:103ED0008FCB81E08093590180930301DCCFE0EB2D
:103EE000F5E01382128288EE93E0A0E0B0E08483D4
:103EF0009583A683B7838EE191E0918380838FEFD2
:103F00009FEF95878487EDE8F5E013821282118692
:103F1000128680E183871086178215868CE391E0F4
:103F2000918380838AE491E095838483108A178645
:103F3000128A118A81E0838B148A858B168AE8E7BE
:103F4000F5E01382128220E331E03183208328E7F9
:103F500031E03683258320E830E03087278320E472
:103F600030E03287218795E0948B838B1686158607
:103F7000108A17861486138681E090E0928B818BDD
:103F800014820895DF92EF92FF920F931F93CF93C5
:103F9000DF93D82EF92EE42E062F10E0C8010196EB
:103FA000880F0E94B11583E00E94B115CD2DDF2D41
:103FB0000C0F1D1FC017D10789F0E7FE03C0FE01DB
:103FC000849101C088810E94B115F82E80E00E9482
:103FD000B1158F2121968111EDCF01C081E0DF91D4
:103FE000CF911F910F91FF90EF90DF9008950F9365
:103FF0001F93CF93DF93EC0181E090E00E94961332
:1040000080FF2EC08AE090E00E9496139FEF980FE9
:104010009E3F30F522E330E0388B2F8728E330E0F5
:104020003A8B298B0BE010E0E881F9810190F08157
:10403000E02D682FCE010995C8010E9496130F5FED
:104040001F4F0131110581F7CE0104960E94B01473
:1040500088EE93E0DF91CF911F910F910C94731331
:10406000DF91CF911F910F91089504970C94F71F42
:104070008F929F92AF92BF92CF92DF92EF92FF9278
:10408000CF93DF93EC01688179818A819B816115EF
:1040900071058105910521F464E279ED8BE597E0E6
:1040A0002DE133EF41E050E00E94F02049015A0138
:1040B0009B01AC01A7EAB1E40E940F216B017C01D6
:1040C000ACEEB4EFA50194010E941D21DC01CB01EF
:1040D0008C0D9D1DAE1DBF1DB7FF03C00197A1092B
:1040E000B04888839983AA83BB83BC01CD019F77A5
:1040F000DF91CF91FF90EF90DF90CF90BF90AF9086
:104100009F908F9008958F929F92AF92BF92CF927F
:10411000DF92EF92FF9260911601709117018091EA
:10412000180190911901611571058105910521F41E
:1041300064E279ED8BE597E02DE133EF41E050E06B
:104140000E94F02049015A019B01AC01A7EAB1E4A9
:104150000E940F216B017C01ACEEB4EFA50194012C
:104160000E941D21DC01CB018C0D9D1DAE1DBF1DCC
:10417000B7FF03C00197A109B0488093160190933F
:104180001701A0931801B0931901BC01CD019F77CD
:10419000FF90EF90DF90CF90BF90AF909F908F9067
:1041A00008956093160170931701809318019093FE
:1041B00019010895F999FECF92BD81BDF89A99270A
:1041C00080B50895262FF999FECF1FBA92BD81BD03
:1041D00020BD0FB6F894FA9AF99A0FBE0196089589
:1041E000052E97FB1EF400940E94072157FD07D06F
:1041F0000E94222107FC03D04EF40C940721509515
:104200004095309521953F4F4F4F5F4F08959095C2
:104210008095709561957F4F8F4F9F4F08950E94B5
:104220004421A59F900DB49F900DA49F800D911DDA
:1042300011240895B7FF0C940F210E940F21821BB7
:10424000930B0895A1E21A2EAA1BBB1BFD010DC002
:10425000AA1FBB1FEE1FFF1FA217B307E407F50736
:1042600020F0A21BB30BE40BF50B661F771F881F12
:10427000991F1A9469F760957095809590959B01A8
:10428000AC01BD01CF010895A29FB001B39FC00151
:10429000A39F700D811D1124911DB29F700D811D72
:1042A0001124911D089597FB072E16F4009407D052
:1042B00077FD09D00E94672107FC05D03EF4909558
:1042C00081959F4F0895709561957F4F0895AA1B22
:1042D000BB1B51E107C0AA1FBB1FA617B70710F0F1
:1042E000A61BB70B881F991F5A95A9F78095909523
:1042F000BC01CD010895EE0FFF1F0590F491E02D54
:064300000994F894FFCFC0
:1043060005020001016400050001FFFFFFFF00E157
:104316000000000000000100000000000000000E88
:104326003B0EBD0E160E210EE50EC10E000000005E
:104336007712CD111F131E1300000000AE13CD110E
:104346001F131E13F71FFCFF0000352000C18081DC
:084356000000003E000D0A000A
:00000001FF
