:100000000C948D0A0C94B50A0C94B50A0C94B50A9C
:100010000C94B50A0C94B50A0C94B50A0C94B50A64
:100020000C94B50A0C94B50A0C94B0120C942213DB
:100030000C94B50A0C94B50A0C94B50A0C94B50A44
:100040000C94B50A0C94B50A0C94B50A0C94B50A34
:100050000C94B50A0C94B50A0C94B50A0C942115AD
:100060000C94B50A0C94B50A0C94B50A0C94B50A14
:100070000C94B50A0C94B50A0C94B50A0C94B50A04
:100080000C94B50A0C94B50A0C94B50A0C94B50AF4
:100090000C94B50A0C94B50A0C94B50A0C94B50AE4
:1000A0000C94B50A0C94B50A0C94B50A5374697390
:1000B00074696E6B00456769736F72740054686F82
:1000C0006767790054686172676F78005468757269
:1000D0006479737300457472696E004E616C746864
:1000E000697300457368004C6F0054686F746872E0
:1000F00069630044616C74656B6869004F74657373
:10010000004F676765004D61736C6F00446F736BE0
:100110006F7300536869736B00546F726B004173A7
:100120006861727500526570657374726900426F20
:10013000736875004E6972687479004B6F726874E9
:100140006900546861636865726B0056616573731A
:100150000053686F736A005275646567726F680058
:100160004C6F7274676F6E6B004E65746972726566
:10017000004E757268746963756E004972746869BF
:100180000044756C7275727468004F646875005530
:1001900072746869004564726573004A686F78001C
:1001A000497600F0F89C8E8783878E9CF8F00000DB
:1001B000FEFF0303030303070EFCF80000FEFF032A
:1001C00003030303070EFCF80000FFFF000000001C
:1001D000000000FFFF0000FEFF8383838383C7EEE0
:1001E0007C380000F8FC0E07030303070EFCF80040
:1001F000003F7FE0C08080C0E07F3FFFFF01010142
:1002000001010101FFFF0000FFFF0C0C0C0C1C3E64
:1002100077E3C100007FFFC0C0C0C0C0E0703F1FD7
:1002200000001F3F70E0C0C0C0E0703F1F00007FB3
:10023000FFC1C1C1C1C1E3773E1C00001F3F70E098
:10024000C0C0C0E0703F1F000000000001FFFF01C0
:10025000000000D5F08D14A1C881CFD9F1AF2000E6
:1002600000000000000CC878303020206040404082
:10027000404040404020E0F0F8F808040000000052
:10028000000000000000000000000000000000006E
:10029000000000000000000000000000000000005E
:1002A000000000000000E0E0E0E0C000000000000E
:1002B000000000000000000000000000000000003E
:1002C000000000000000000000000000000000002E
:1002D000000000000000000000000000000000001E
:1002E0000000000000FFE700000000000000000028
:1002F000000000000000FFFFFFFF00000000000002
:1003000000E0E0F0F01818183CFCF8F0E000000005
:1003100000001038FCF8F0E000000000F8F8FCF8ED
:100320003000000000000018080703000000001063
:1003300038FCF8F8F01818387C3830000000E0E09D
:10034000E0F0181878FCF8F0C08000000000000011
:10035000000000000000000000000000000000009D
:1003600000000000006063878E0E1C1C3C3C3C3C7F
:100370003C3C3C181818FFFFFFFFC0400000000085
:10038000007FFFFFFFC0800000FFFFFF7F00000035
:1003900000000000FFFFFFFF80000080FFFFFFFF65
:1003A000808000000000000000000000000000004D
:1003B00080FFFFFFFF800000000000000000FFFF43
:1003C000FFFF8C8602030101000000000000000016
:1003D000000000000000000000000000000000001D
:1003E00000000000000000010101010302020202FE
:1003F00002020202020301010100000000000000ED
:1004000000000101030303010101000000000000DE
:1004100000000000010103030303010101010303C4
:1004200001000000000000000000000000000000CB
:1004300001010303010000000000000000000001B2
:1004400003030300000000000000000000000000A3
:10045000000000000000000000000000000000009C
:10046000000000000000000000000000000000008C
:10047000000000000000000000000000000000007C
:10048000000000000000000080808080808080806C
:1004900080808000000000000000000000000000DC
:1004A000000000000000000000000000000000004C
:1004B000000000000000000000000000008080003C
:1004C000008080000000000000000000000000002C
:1004D000000000000000000000000000000000001C
:1004E000000000000000000000000000000000000C
:1004F00000000000000000000000000000000000FC
:100500000008180C0703FFFFFF8180404060606017
:10051000606167FFFFBC00000000000000008080F9
:10052000800000808080800000000000000000004B
:100530000080808080000000000000000001FFFFBC
:10054000FFFF0300808080800000000000000000AA
:10055000000000008080808000000000000000009B
:10056000000000000000000000000000000000008B
:10057000000000000000000000000000000000007B
:10058000000000000000FFFFFFE38180800000000A
:100590000000000003FFFFFE00000000020307FF51
:1005A000FFFF030103070703000000FCFCFEFE033E
:1005B00001010307FFFFFEFC000000000000FFFF39
:1005C000FFFFC26373FFFFCF06000000000000FCC6
:1005D000FCFEFF8343673F3F1F0C08000000000044
:1005E000000000000000000000000000000000000B
:1005F00000000000000000000000000000000000FB
:1006000000020C0C10303F3F3F60604140404040D2
:10061000202030181E0F0703000000000000387F64
:100620007F3F1800000000000000000F0F3F3F7CDC
:10063000783030301F0F0F0F0000000000183F7F90
:100640007F3F1800000F1F3F7E3810000000000F92
:100650001F3F7F3810000000000000000000000075
:1006600020676F6C6400596F75204C6F73742000A5
:1006700020676F6C6400596F7520576F6E200050B3
:1006800072657373204120746F20436F74696E75B7
:100690006500526F6C6C20416761696E00596F751F
:1006A0002057696E00596F75204C6F737400526F3C
:1006B0006C6C20323D2000526F6C6C20313D20006C
:1006C0004368616E636520526F6C6C005072657395
:1006D00073204120746F20436F74696E7565004EFE
:1006E00069636B004F7574004368616E6365005207
:1006F0006F6C6C3D004D61696E20526F6C6C0055E3
:100700002F44204A65737465722773204D616365B9
:100710003D00206F6620004C2F52204265743D0042
:10072000596F75206C6F6F73652000596F75205776
:10073000696E20002077696E7300507265737320B4
:100740004120746F20476F00206F6620004C2F52AD
:10075000204265743D00204F64647320313A00A04C
:10076000019B0195018F018A0181017B0171016962
:10077000016001570151014B0142013B0134012E3F
:100780000125011E01190113010C0106010101FCE3
:1007900000F300EA00E700E300DB00D500CC00C472
:1007A00000BD00B500AC0054484953205245534F9A
:1007B00052542057415320494D4147494E45440A20
:1007C000425920412042454E2C205259414E2C2066
:1007D000414E445245570A414E442044414E2C203C
:1007E000412044554E47454F4E5320414E440A4404
:1007F0005241474F4E5320414456454E545552495D
:100800004E470A47524F5550205748494C452041C2
:100810005454454D5054494E4720544F0A53415665
:10082000452054484520574F524C442046524F4D86
:10083000205448450A5752415448204F46205448B6
:1008400045204749414E54532E004D4F4E53544579
:10085000524F504F4C4953205741530A464F554E23
:100860004445442042592047524541542C0A4255A0
:100870004742454152205741524C4F52440A474F3C
:10088000524548554E4745522C20465249454E4404
:10089000204F460A54484520445741525645532C50
:1008A00020414E4E4948494C41544F520A4F462030
:1008B0005448452048494C4C204749414E54532CFC
:1008C000204849530A53574153484255434B4C49DA
:1008D0004E472042524F544845520A4752454745D9
:1008E0004B2C204E4156494741544F52204F4620F1
:1008F0005448450A534B4945532C20414E442054FB
:100900004845495220424F4F4E0A434F4D50414EA9
:10091000494F4E20534C4F4F502054484520424F92
:100920004E450A4841525645535445522C204F4695
:1009300020544845204C495A4152440A464F4C4B9A
:100940002C20504152414D4F554E54204F4620547B
:1009500048450A424F4E4520434152564552532E78
:10096000004D4F4E535445524F504F4C4953204920
:10097000532041200A464142554C4F55532044458F
:100980005354494E4154494F4E20464F520A414C10
:100990004C2057484F20484156452052494348452E
:1009A00053204F520A5749534820544F2042454341
:1009B0004F4D4520524943482E20434F4D450A464E
:1009C0004F5220412053544147452053484F572C04
:1009D00020504C415920494E0A5448452043415328
:1009E000494E4F2C205649534954205448450A4DEE
:1009F00041524B4554532E20434F4E5645494E4588
:100A00004E544C590A4C4F434154454420494E20C2
:100A10004E4F52544845524E0A46414552554E2C6F
:100A2000204A55535420412053484F525420424F9E
:100A300041540A524944452046524F4D204D495297
:100A4000414241522E002020437265646974730054
:100A500020204F746865722047616D650020204E2C
:100A6000696C626F677320526576656E67650020FA
:100A7000204C697A61726420526163696E67004834
:100A800045592C20474F424C494E2C20594F552058
:100A9000574F524B2041540A544845204341534933
:100AA0004E4F204E4F572E0A4D414B45205448453E
:100AB00020424F53532048415050590A4259204D2B
:100AC000414B494E47204D4F4E45592C204F522007
:100AD000454C5345210020507265737320412074AA
:100AE0006F20436F6E74696E75650000E0E0C04072
:100AF00060E0C0C04040C0C08000000000008080B6
:100B000080C08000000000008000000080800000A5
:100B1000000000000000000000000000000007FCD2
:100B2000FE030000000000000000000000000000C4
:100B300000000000000000000000000000000000B5
:100B400000000000008000000000000000000080A5
:100B500080800000000007FEFE00000000C6CFC637
:100B60000000008080C02060602000003F3F3F0008
:100B70000020FF7F000000FFFF80000000FFFF80DB
:100B80000003FFFF00000001FFFF030103FFFFFC64
:100B900000000038FCFE82C7C7E68000000101FFAC
:100BA000FF03020000F0F80C3EFCE000001CFEF821
:100BB0000C0E1E0C0000F8FC06061FFEF8000000DC
:100BC00001FFFE020307FFFE000000FCFEFF010123
:100BD00003FFFF00000000FFFF00000000FFFF40D8
:100BE0000000000327766222231F0E000000000091
:100BF00000000000000000000100000000000307EA
:100C000003020101000000000F0F0600000F3F1F4C
:100C1000000000103879F060203F1F00000060FFE6
:100C2000FF40000000FFFF86030100000080FFFF7F
:100C30008000000000007FFFE0C0403F1F00000078
:100C400038FFFF3830100F0700000003070F0E04B5
:100C50000203010000000103010000000000010088
:100C60000000000000000000000000000000000084
:100C70000000000000000000000000000000000074
:100C80000000000000000000000000000000000064
:100C90000000000000000000000000000000000153
:100CA000010000000003070100000000000107032D
:100CB0000000000000000001010000000000000032
:100CC000201F1F10000000000000000000000000B6
:100CD0000000000000000000000000000000000014
:100CE0000000000000000000000000000000000004
:100CF00000000000000000000000000000000000F4
:100D000000000000000000000000000000000000E3
:100D1000008080C0C0C00000C0C04040C0C0800093
:100D2000000000808040C0C04000000000CCDE8495
:100D3000000000C0C08080C0C0C0800000000080F3
:100D40008040C0C0800000000000000000000000E3
:100D50000000000000000000000000000000000093
:100D60000000000000000000000000000000000083
:100D70000000000000000000000000000000000073
:100D80000000000000000000000000000000000063
:100D90003F7F7F20201000003C7E6340607F7F000B
:100DA00000000027676444663E1C0000007F7F202F
:100DB000000000207F7F0000207F7F0000001F7F59
:100DC0007060403F3F1F0000000000000000000076
:100DD0000000000000000000000000000000000013
:100DE0000000000000000000000000000000000003
:100DF00000000000000000000000000000000000F3
:100E000000000000000000000000000000000000E2
:100E100000000000000000000000000000000000D2
:100E200000000000000000000000000000000000C2
:100E300000000000000000000000000000000000B2
:100E400000000000000000000000000000000000A2
:100E50000000000000000000000000000000000092
:100E60000000000000000000000000000000000082
:100E70000000000000000000000000000000000072
:100E80000000000000000000000000000000000062
:100E90000000000000000000000000000000000052
:100EA0000000000000000000000000000000000042
:100EB0000000000000000000000000000000000032
:100EC0000000000000000000000000000000000022
:100ED0000000000000000000000000000000000012
:100EE000000000000000000000000000B00000A1B1
:100EF00070E150964F26900F1D070C009669004A2E
:100F0000E44A0048444000806810000F99FB8F9D20
:100F1000BDBBFB77D4D4DF1F1A1AFE7F5D5DFF8057
:100F20005A0000A0A4AA0010BA3400FF5953F3FFDE
:100F30009B9B9EFFB9B996FF9595D19FF4940FFCAA
:100F4000295F91FF1838F8FF9294FFFF95D5F7BFFE
:100F5000B5DDD7F18F81F1F788C8F779C6467909F1
:100F6000FD9B090196F800828182805071620077B2
:100F700056560076763700A2B773010772060078DE
:100F800027500073347400775176007F55F700477F
:100F9000711000324772007364730015A27500610E
:100FA000679400009F6060F4F2F6F2000000000019
:100FB0003E5B4F5B3E3E6B4F6B3E1C3E7C3E1C18C7
:100FC0003C7E3C181C577D571C1C5E7F5E1C001825
:100FD0003C1800FFE7C3E7FF0018241800FFE7DB19
:100FE000E7FF30483A060E2629792926407F050575
:100FF00007407F05253F5A3CE73C5A7F3E1C1C08B2
:10100000081C1C3E7F14227F22145F5F005F5F0676
:10101000097F017F006689956A606060606094A2C4
:10102000FFA29408047E040810207E201008082ADD
:101030001C08081C2A08081E101010100C1E0C1E7C
:101040000C30383E3830060E3E0E06000000000020
:1010500000005F00000007000700147F147F1424C5
:101060002A7F2A122313086462364956205000084A
:10107000070300001C2241000041221C002A1C7FA3
:101080001C2A08083E08080080703000080808087C
:1010900008000060600020100804023E5149453EEF
:1010A00000427F400072494949462141494D331869
:1010B00014127F1027454545393C4A4949314121A1
:1010C0001109073649494936464949291E00001485
:1010D00000000040340000000814224114141414CD
:1010E00014004122140802015909063E415D594E7F
:1010F0007C1211127C7F494949363E414141227F91
:101100004141413E7F494949417F090909013E4129
:101110004151737F0808087F00417F410020404112
:101120003F017F081422417F404040407F021C0263
:101130007F7F0408107F3E4141413E7F0909090637
:101140003E4151215E7F091929462649494932030A
:10115000017F01033F4040403F1F2040201F3F4090
:1011600038403F6314081463030478040361594949
:101170004D43007F4141410204081020004141419C
:101180007F04020102044040404040000307080081
:1011900020545478407F2844443838444444283804
:1011A0004444287F385454541800087E090218A477
:1011B000A49C787F0804047800447D4000204040CF
:1011C0003D007F1028440000417F40007C047804EB
:1011D000787C080404783844444438FC18242418E3
:1011E00018242418FC7C080404084854545424048B
:1011F000043F44243C4040207C1C2040201C3C40B8
:1012000030403C44281028444C9090907C446454D6
:101210004C440008364100000077000000413608C9
:101220000002010204023C2623263C1EA1A16112F9
:101230003A4040207A385454555921555579412126
:1012400054547841215554784020545579400C1E0F
:1012500052721239555555593954545459395554B7
:1012600054580000457C410002457D420001457C08
:1012700040F0292429F0F0282528F07C5455450019
:101280002054547C547C0A097F49324949493232FE
:1012900048484832324A4848303A4141217A3A4235
:1012A000402078009DA0A07D39444444393D404011
:1012B000403D3C24FF2424487E4943662B2FFC2FCD
:1012C0002BFF0929F620C0887E0903205454794158
:1012D0000000447D413048484A32384040227A007C
:1012E0007A0A0A727D0D19317D2629292F2826298F
:1012F00029292630484D40203808080808080808E1
:1013000008382F10C8ACBA2F102834FA00007B0020
:101310000008142A142222142A1408950022009589
:10132000AA005500AAAA55AA55AA000000FF00105D
:101330001010FF00141414FF001010FF00FF101015
:10134000F010F0141414FC001414F700FF0000FF58
:1013500000FF1414F404FC141417101F10101F10B5
:101360001F1414141F00101010F0000000001F10B4
:101370001010101F10101010F010000000FF1010BF
:1013800010101010101010FF10000000FF140000CB
:10139000FF00FF00001F10170000FC04F4141417D6
:1013A00010171414F404F40000FF00F714141414BC
:1013B000141414F700F7141414171410101F101F2E
:1013C000141414F4141010F010F000001F101F007B
:1013D00000001F14000000FC140000F010F01010BA
:1013E000FF10FF141414FF141010101F0000000051
:1013F000F010FFFFFFFFFFF0F0F0F0F0FFFFFF0045
:1014000000000000FFFF0F0F0F0F0F384444384457
:101410007C2A2A3E147E02020606027E027E0263B7
:10142000554941633844443C04407E201E20060256
:101430007E020299A5E7A5991C2A492A1C4C720133
:10144000724C304A4D4D303048784830BC625A4674
:101450003D3E494949007E0101017E2A2A2A2A2A65
:1014600044445F444440514A444040444A5140004F
:1014700000FF0103E080FF000008086B6B083612D4
:10148000362436060F090F06000018180000001059
:1014900010003040FF0101001F01011E00191D173F
:1014A00012003C3C3C3C0000000000080B00020223
:1014B00002010009040000010202000005240010DE
:1014C0000105240101010424020605240600010788
:1014D00005810310004009040100020A0000000712
:1014E00005020240000007058302400000040309D2
:1014F0000412010002EF0201404123368000010185
:1015000002030141726475696E6F204C4C430041C7
:10151000726475626F790000BB1D11241FBECFEF8E
:10152000DAE0DEBFCDBF11E0A0E0B1E0ECE1FFE327
:1015300002C005900D92AE35B107D9F726E0AEE5B1
:10154000B1E001C01D92A631B207E1F71AE0CDE883
:10155000DAE004C02197FE010E94861FCC38D10733
:10156000C9F70E948C150C948C1F0C940000CF922C
:10157000DF92EF92FF920F931F93CF93DF936C0153
:101580007A018B01C0E0D0E0CE15DF0581F0D801F3
:101590006D918D01D601ED91FC910190F081E02DCE
:1015A000C6010995892B11F02196EECF7E01C70166
:1015B000DF91CF911F910F91FF90EF90DF90CF902F
:1015C00008952F923F924F925F926F927F928F92E7
:1015D0009F92AF92BF92CF92DF92EF92FF920F93C2
:1015E0001F93CF93DF93CDB7DEB728970FB6F8944C
:1015F000DEBF0FBECDBF9D838C836A30A1F4DC01BA
:1016000055962C91559751968D919C915297B8E093
:101610002B9F800D911D1124EC81FD81928B818B7C
:10162000108A1786C6C06D3009F4C3C0AC81BD8175
:101630001F968D919C91509780389105BCF0EC815C
:10164000FD812589422F50E087859089F6E02F9F04
:10165000800D911D1124AC81BD8150969C938E9379
:101660001F9756962C9121118FC0A3C0EC81FD814C
:10167000E188F288F0E4EF16F1040CF7AC81BD814B
:101680005596BC91BE839C01E5E0BE9F200D311DA7
:101690001124121613069CF6CB2ED12C970158E07C
:1016A000B59F200D311D11241216130644F6AC818E
:1016B000BD8154965C90549753964C90B5E06B9FC7
:1016C000F00111249F012555304F38872F83912C2D
:1016D00030E1732EEF81F8858490F5E09F1201C010
:1016E000812C870128E0622E80FE02C0542D01C0AB
:1016F000552D511103C0541409F433C09C01F52F2A
:10170000F170322E622F681B4E81641750F5B801BC
:10171000A62FA01B5E81A51708F520383105D8F447
:1017200060347105C0F45B01A501E1E041FDE4E036
:1017300040FDEE0F42FDE295487F749ED0011124DA
:10174000A30DBA83A983A458BE4FBC90BE2AF11141
:1017500001C0BE26BC926F5F7F4FDACF2F5F3F4F35
:10176000D0CF86946A940C0D1D1D6110BDCF93944B
:101770008C0D9D1D2F8138852F5F3F4F38872F831C
:1017800036E09312A7CF5BCF6AEF64039001659FA9
:10179000300D112420583F4F2817390754F48C81FD
:1017A0009D81DC01ED91FC910190F081E02D6AE0DA
:1017B000099581E090E028960FB6F894DEBF0FBE41
:1017C000CDBFDF91CF911F910F91FF90EF90DF90F0
:1017D000CF90BF90AF909F908F907F906F905F90D1
:1017E0004F903F902F90089508954F925F926F927F
:1017F0007F928F929F92AF92BF92CF92DF92EF92A1
:10180000FF920F931F93CF93DF936C013B01102F37
:1018100038E0832E912C7A01FF24270193E0559420
:1018200047949A95E1F7CA0187709927892B41F56A
:10183000D6011796CD91DC911897C3019927BE0167
:101840000E945E1F4C9EF0014D9EF00D5C9EF00DBF
:1018500011249927D60115964D915C9116978E0FFC
:101860009F1FFA01E80FF91F111106C0C22FC09582
:1018700020812C23208327C0C081C22BC08323C09A
:10188000C22FD0E04770A42EB12C720183E0EE0C81
:10189000FF1C8A95E1F79E0101C0220F4A95EAF7E5
:1018A000012FA701B301C6010E94F50BC4018A19DB
:1018B0009B0902C0D595C7958A95E2F72C2FA70101
:1018C000485F5F4FA8CFDF91CF911F910F91FF909D
:1018D000EF90DF90CF90BF90AF909F908F907F90D0
:1018E0006F905F904F9008955F926F927F928F926A
:1018F0009F92AF92BF92CF92DF92EF92FF920F939F
:101900001F93CF93DF93EC016A3061F48D859E8540
:101910009C878B872C898F859889820F911D988B46
:101920008F8777C0CB84DC84693031F489E0C80EBE
:10193000D11CDC86CB866DC09DEFC9169FEFD90602
:1019400054F48B8990E004962B853C85820F931F7D
:101950009C878B875EC08F819885C816D9068CF7C7
:10196000EF84F8888DEFE8168FEFF80654F3898539
:101970009A85E816F9062CF7603208F46FE780EED6
:10198000860F9FE9960F9A3118F49FEFE91AF90A2A
:101990008C3011F08B3119F49FEFE91AF90A869512
:1019A00094E0899F50011124360184E0680E711C77
:1019B0004601162F1170F401EC19FD09EA0DFB1D0B
:1019C000E551F14F8491111103C08F70582E04C05E
:1019D000582E52948FE058228C81882361F001E0C8
:1019E00089899A89892B09F000E02FE0A701B401C9
:1019F000CE010E94F50B0989252DA701B401CE0166
:101A00000E94F50B9FEF891A990A6814790499F6D8
:101A100098CF81E090E0DF91CF911F910F91FF90DF
:101A2000EF90DF90CF90BF90AF909F908F907F907E
:101A30006F905F900895089580E090E00895EF9290
:101A4000FF920F931F93CF93DF938C017B01C0E034
:101A5000D0E0F701EC0FFD1F6491662361F0D8011F
:101A6000ED91FC910190F081E02DC8010995892B41
:101A700011F02196EECFCE01DF91CF911F910F9102
:101A8000FF90EF9008952D9A0895BC0180E090E0BA
:101A9000AB01FC010E94421241505109E109F109D8
:101AA00028F068517C4F8F4F9F4FF6CFAB01FC0160
:101AB0000E944212641775078E079F07C8F30895A6
:101AC0008FB18095807F669B88601C9B84600895A1
:101AD0000C94E51E80E00C94020F8F929F92AF92BF
:101AE000BF92CF92DF92EF92FF920F931F93CF930B
:101AF000DF93AFE5B1E0C6E6D1E0EAE6F1E098ECCD
:101B00008CE3919319928D9321E0EE36F207C9F799
:101B100084E2C82ED12CE12CF12C9BE0892E912C53
:101B2000A12CB12C06E611E0CAE6D1E00E948E1E7F
:101B3000A70196010E94FB1E69930E948E1EA501BB
:101B400094010E94FB1EDC01CB010296A11DB11D78
:101B5000F80181938F01F1E0CE36DF0739F730913C
:101B60006A0120916B013217E9F290916C013917EB
:101B7000C9F280916D013817A9F2291799F2281737
:101B800089F2981779F21092630110926401109211
:101B9000650185E090E09093080180930701109221
:101BA000090181E080930401DF91CF911F910F9192
:101BB000FF90EF90DF90CF90BF90AF909F908F906D
:101BC0000895809100018530E9F480915E018430B0
:101BD00009F4A4C0863069F480910101909102015A
:101BE000880F991F880F991F65E070E00E945E1FA3
:101BF000B4C0873009F4A2C0883071F3893009F08D
:101C0000A9C06CC0863051F580915E01843059F4D2
:101C1000209101013091020145E0429FC001439FA4
:101C2000900D112491C0853099F48091010190911B
:101C3000020125E0289FB001299F700D112477FF34
:101C400002C06D5F7F4F759567957595679585C0E7
:101C50008730F1F2883009F055C040C0873091F5E7
:101C600080915E01843039F460910101709102012C
:101C7000660F771F72C0853081F4809101019091C9
:101C80000201BC01660F771F680F791F77FF02C042
:101C90006F5F7F4F7595679560C0863059F42091CE
:101CA00001013091020146E0429FC001439F900D27
:101CB00011249ACF883099F38930F9F28A3009F0EB
:101CC0004BC0D2CF883021F580915E01843009F479
:101CD0009FCF853009F4A9CF863029F460910101A6
:101CE000709102013AC0873069F42091010130916E
:101CF000020145E0429FC001439F900D112466E020
:101D000070E074CF893009F490CF8A3029F580CF04
:101D1000893011F580915E01843049F48091010190
:101D200090910201880F991F880F991F0DC085306F
:101D3000A9F2863009F450CF873049F4809101012F
:101D400090910201880F991F63E070E04FCF8830B7
:101D500009F442CF8A3011F30895CB010895209100
:101D6000050130910601A901481B590BCA0118163B
:101D700019062CF450930601409305010895109222
:101D800006011092050189E080936E0108952FB736
:101D9000F89483E08093E9009091E800892F8072A5
:101DA00095FF04C09091F20080E4891B2FBF089535
:101DB000CF93DF931F92CDB7DEB76983DC01ED913E
:101DC000FC910280F381E02D41E050E0BE016F5FA5
:101DD0007F4F09950F90DF91CF91089583E0809315
:101DE000E9008091F200882319F08AE38093E800EB
:101DF00008950E94C70E90E00895682F81E995E04C
:101E00000C94E10AECE7F1E0A0E0B8E000800EBC41
:101E10008111012C1197A0FDFDCF0192B9F70DB4EE
:101E2000089580E0ECE7F1E081118FEF00248193C9
:101E30008193819381930394D1F7089520919B0519
:101E4000282329F490919A05982381E009F480E0F1
:101E50000895CF93DF93C1E9D5E089858A870E94F1
:101E6000600D8987DF91CF910895009769F0FC019B
:101E700001900020E9F73197AF01481B590BBC01D5
:101E800081E995E00C94B70A80E090E008958BE535
:101E900091E00C94350FCF93DF93BC0181E995E07D
:101EA0000E941F0DEC010E94470F8C0F9D1FDF91B8
:101EB000CF9108952F923F924F925F926F927F92AF
:101EC0008F929F92AF92BF92CF92DF92EF92FF924A
:101ED0000F931F93CF93DF93CDB7DEB72A970FB63B
:101EE000F894DEBF0FBECDBF5A01822E912C940113
:101EF000280F391F37FDBAC0803891050CF0B6C0E5
:101F00009B01200F311D37FDB1C0603471050CF00D
:101F1000ADC0AB0177FF04C044275527461B570BC4
:101F2000477055279B0177FF02C0295F3F4FE3E0D1
:101F300035952795EA95E1F777FF08C021503109DB
:101F400068E070E0FB01E41BF50BAF01202E269446
:101F500026942694312C077019F0FFEF2F1A3F0AB0
:101F6000220E331E39017694762C6624779467947A
:101F7000680E791EE12CF12C00E010E0B3016058EE
:101F80007F4F7A87698768E070E0FB01E41BF50BFF
:101F9000FA83E9832216330609F468C02830310534
:101FA00009F464C02F3FFFEF3F070CF454C0E985EC
:101FB000FA85E00FF11FBF0164587E4F7C836B836D
:101FC000D801A60DB71DA458BE4F6C0160E070E0AB
:101FD000681579050CF03FC0E0E8CE16D10409F48D
:101FE0003AC0D7FC2CC02F3FFFEF3F0709F43AC09F
:101FF000FB01EE0DFF1DEA0DFB1DE491042E01C057
:10200000EE0F0A94EAF7FC91EF2BEC934115510582
:10201000B1F02730310599F0FB01EE0DFF1DEA0DFF
:10202000FB1DE4914E2E512C098002C0559447941B
:102030000A94E2F7EB81FC815080452840826F5F73
:102040007F4FEB81FC813196FC83EB83FFEFCF1A4E
:10205000DF0A1196BDCF2F5F3F4F00581F4FE80C8E
:10206000F91C98CF41155105B9F6E9CF2A960FB65C
:10207000F894DEBF0FBECDBFDF91CF911F910F91BE
:10208000FF90EF90DF90CF90BF90AF909F908F9098
:102090007F906F905F904F903F902F9008958F9218
:1020A0009F92AF92BF920F931F93CF93DF93CDB7C1
:1020B000DEB7A1970FB6F894DEBF0FBECDBF19A251
:1020C000423008F44AE08E010F5D1F4F842E912CA0
:1020D000A12CB12CA50194010E942D1FE62FB9015E
:1020E000CA0101501109EA3014F4E05D01C0E95C55
:1020F000D801EC93232B242B252B61F7C8010E94D8
:10210000350FA1960FB6F894DEBF0FBECDBFDF919D
:10211000CF911F910F91BF90AF909F908F90089596
:10212000CF93DF93682F70E080E090E04AE00E9458
:102130004F10EC010E94470F8C0F9D1FDF91CF9134
:102140000895CF92DF92EF92FF92CF93DF936C01CD
:10215000990FEE08FF08F7FE17C08DE20E94FD0EF2
:10216000EC0166277727CB016C197D098E099F0941
:102170004AE00E944F108C0F9D1FDF91CF91FF907E
:10218000EF90DF90CF9008954AE0C701B601DF914C
:10219000CF91FF90EF90DF90CF900C944F10E1E043
:1021A000F0E00E944212319728F068517C4F8F4F27
:1021B0009F4FF9CFAB01FC010E94421264177507D3
:1021C0008E079F07C8F308958F929F92AF92BF9298
:1021D000CF92DF92EF92FF920F931F93CF93DF93F3
:1021E0006C017B018A0180911101882309F458C098
:1021F00080917B01882309F453C08091790180FF8D
:1022000005C08091E00082608093E000E801B12C7D
:102210008AEFA82E93E0892E2AE3922E209711F4BC
:10222000BB20B9F10E94C70E811106C0AA94AA2052
:10223000B9F10E94CF10F2CF282F30E0C217D30798
:102240000CF48C2F9FB7F8948092E9002091E8005D
:1022500025FF1DC0282F30E0C21BD30BF701815092
:1022600020F041914093F100FACFE20EF31EBB2023
:1022700019F09092E8000AC08091E80085FD07C03F
:102280009092E800BB24B394209709F0B12C9FBF33
:10229000C5CF5D9884E6809378011016110644F04E
:1022A00081E090E0F6019383828380E090E001C0BA
:1022B000C801DF91CF911F910F91FF90EF90DF90B8
:1022C000CF90BF90AF909F908F90089520917B0109
:1022D000211103C08FEF9FEF08955FB7F89422E0BC
:1022E0002093E9002091F20030E01216130614F456
:1022F00021E030E0422FFC0184E6415038F028987C
:1023000080937A019091F1009193F7CF21153105D7
:1023100021F08091F200882319F05FBFC901089570
:102320008BE68093E800F9CFCF93DF931F92CDB770
:10233000DEB7FC018485958597FD05C02FEF3FEF43
:10234000358724870BC0CE0101960E946611019744
:1023500019F4898190E002C08FEF9FEF0F90DF9119
:10236000CF9108958091AC0581110DC082E08093DA
:10237000A80584E08093A9051092AB051092AA05E8
:1023800081E08093AC0588EA95E00895FC0184859E
:10239000958597FD0BC09FB7F89482E08093E90084
:1023A0008091F2009FBF90E0019608959FB7F89446
:1023B00082E08093E9008091F2009FBF90E0089551
:1023C00040910C0650910D0620910A0630910B06A3
:1023D00042175307B4F49091E8009570E1F390919F
:1023E000E80092FD19C08093F10080910C06909155
:1023F0000D0601968F739927892B19F48EEF809320
:10240000E80080910C0690910D06019690930D06C0
:1024100080930C0681E0089580E00895DF92EF92AA
:10242000FF920F931F93CF93DF93D82E8A017B01E6
:10243000E40EF51EEB01CE15DF0571F0D7FE03C0EB
:10244000FE01849101C088810E94E01121968111D2
:10245000F2CF8FEF9FEF01C0C801DF91CF911F91A5
:102460000F91FF90EF90DF900895615030F0209130
:10247000F100FC0120830196F8CF289884E6809330
:102480007A010895A4E0B6E02FB7F8947D918D917C
:102490009C9166B52FBFA89B05C06F3F18F47F5F66
:1024A0008F4F9F4F22E0660F771F881F991F2A9535
:1024B000D1F708950F931F93CF93DF931F92CDB75A
:1024C000DEB78C01FC018485958597FF0EC0CE0197
:1024D00001960E946611019719F4898190E002C06B
:1024E0008FEF9FEFF80195878487F80184859585A4
:1024F0000F90DF91CF911F910F9108950F931F932C
:10250000CF93DF931F92CDB7DEB782E0898342E499
:1025100050E06BEA74E180E80E940E120E94B21152
:10252000DC0112960D911C9113970115110589F08C
:10253000D801ED91FC910280F381E02DBE016F5F27
:102540007F4FC801099597FD04C0F80100851185EA
:10255000ECCF89810F90DF91CF911F910F9108955A
:102560001F920F920FB60F9211248F939F93809119
:10257000E1009091E100937F9093E10083FF0FC011
:102580001092E90091E09093EB001092EC0092E33E
:102590009093ED0010927B0198E09093F00082FF01
:1025A00020C093E09093E9009091F200992319F0F4
:1025B0009AE39093E80090917801992339F09091F3
:1025C0007801915090937801992389F190917A0143
:1025D000992339F090917A01915090937A0199233F
:1025E00041F184FF10C08091E2008E7E8160809373
:1025F000E2008091E1008F7E8093E100809179017B
:102600008E7E806111C080FF16C08091E2008E7EB8
:1026100080618093E2008091E1008E7E8093E100F2
:10262000809179018E7E81608093790104C05D9AEA
:10263000CDCF289AD6CF9F918F910F900FBE0F903C
:102640001F9018951F920F920FB60F921124CF92E0
:10265000DF92EF92FF920F931F932F933F934F932D
:102660005F936F937F938F939F93AF93BF93EF93FA
:10267000FF93CF93DF93CDB7DEB76C97DEBFCDBFAF
:102680001092E9008091E80083FFBCC168E0CE01B0
:1026900045960E94351282EF8093E8008D8987FF6E
:1026A00005C09091E80090FFFCCF03C09EEF90938F
:1026B000E800982F907609F0C6C09E894F89588D02
:1026C0002F89F88C91110CC0803829F4809109066B
:1026D0008093F10002C01092F1001092F1008FC1BE
:1026E000913051F481118BC14130510509F087C1FE
:1026F000809109068D7F0BC0933061F481117FC1F9
:102700004130510509F07BC18091090682608093B8
:10271000090675C1953049F48091E80080FFFCCF2F
:10272000822F80688093E3006AC1963009F05EC012
:102730000B8D1C8D22E01092E90010920D06109274
:102740000C06F21232C010920B0610920A060E947A
:102750007E1299E0BE016F5F7F4FDB01E92F1D9272
:10276000EA95E9F79983FA8291E09E8390EA988747
:102770009AEF998720910C0630910D06275F3F4F05
:102780003C832B838D831092E90010920D061092EA
:102790000C0610930B0600930A0649E050E080E017
:1027A0000E940E120E947E122AC110930B06009303
:1027B0000A060E94B211DC0112960D911C9113972A
:1027C0000115110509F4BEC0D801ED91FC910480FA
:1027D000F581E02DBE016B5E7F4FC8010995009722
:1027E00009F0ABC0F80100851185EACF973009F4F4
:1027F00002C1983021F481E08093F10000C199304A
:1028000009F0FDC0837009F0F6C0EDE4F1E081E06D
:1028100031E096E32081211109C08EE78093EA0020
:102820001092EA008F8980937B01E9C08093E900D0
:102830003093EB0021912093EC009093ED008F5F9B
:10284000873041F7EACF8B8D9C8D1092E900109272
:102850000D0610920C0690930B0680930A06898D44
:1028600081114FC08E899D89913A49F4813209F0D6
:10287000C2C047E050E06AE071E080E0B6C091324B
:1028800009F0B9C0833269F48F89988DA0E0B0E077
:102890008093120190931301A0931401B09315013A
:1028A000AEC0803269F48091E80082FFFCCF67E01F
:1028B0008AE091E00E9435128BEF8093E80006C019
:1028C000823209F09CC08F898093110180910A01A6
:1028D00090910B01A0910C01B0910D01803B9440AF
:1028E000A105B10509F084C08091110180FD80C06F
:1028F00088E780930806809164008F7D8093640050
:102900007EC00E94B211DC0112960D911C911397AA
:102910000115110509F46FC0D801ED91FC910190EA
:10292000F081E02DBE016B5E7F4FC80109958111DA
:1029300066C0F80100851185EBCF181619060CF456
:102940005EC059C0F1E0FF1609F446C0F3E0FF1283
:1029500052C08F89882309F442C0823029F440E8AC
:1029600067E08FE095E106C0813051F440E86BE00C
:1029700083E095E10E940E1E882309F43CC03FC00D
:102980008330C9F50E94B211DC011296ED90FC90E3
:1029900013978E010F5F1F4F6801E114F10479F066
:1029A000D701ED91FC910680F781E02DB801C701B8
:1029B0000995080F111DF701E084F184EECFD801CD
:1029C0001C92F60101900020E9F73197BF016C19C4
:1029D0007D0940E0C601CECF61EF74E102C06DEE2B
:1029E00074E1FB01449150E080E80E940E1207C0A0
:1029F0001092080604C081E28093EB0003C08EEFC2
:102A00008093E8006C960FB6F894DEBF0FBECDBF82
:102A1000DF91CF91FF91EF91BF91AF919F918F91F6
:102A20007F916F915F914F913F912F911F910F91E6
:102A3000FF90EF90DF90CF900F900FBE0F901F9000
:102A400018950F930FB70F931F9211248F939F9395
:102A5000EF93FF93EEE0F6E08091150691E08D5F35
:102A60008D3710F08D579395809315068081890FCF
:102A700080839181911D91830281011D0283838155
:102A8000811D838309270F7009270295009314067F
:102A90003BD08111009312068C3A11F08C35A1F4D1
:102AA00000911306901B963088F0855380930008A0
:102AB00080930108289828D0F1F788E198E0809366
:102AC000600090936000FFCF9093130680910806FA
:102AD000815020F08093080687E741F3E4E0F6E0B8
:102AE0008081918101968083918382819381811D70
:102AF000911D82839383FF91EF919F918F911F90FE
:102B00000F910FBF0F9118958FB18095807F669BB5
:102B100088601C9B84600895789484B5826084BD2D
:102B2000816084BD85B5826085BD816085BD81E0A1
:102B300080936E00E1E8F0E0108282E080838160A3
:102B40008083E0E8808181608083E1E98081826028
:102B5000808381608083E0E9808181608083E1EC13
:102B60008081846080838260808381608083E3ECE5
:102B7000808181608083E0EC808182608083E2ECF0
:102B8000808181608083EAE78081846080838260C5
:102B90008083816080838068808310927B011092A3
:102BA0000906109279018091D70081608093D70047
:102BB00080EA8093D80089B5806189BD89B582603B
:102BC00089BD09B400FEFDCF0E94CF108091D800CE
:102BD0008F7C80618093D8008091E000807F80931B
:102BE000E0008091E1008E7E8093E1008DE0809393
:102BF000E200559A209A81EC80937C0085B1806F29
:102C000085B984B1877E84B984B1876E84B95E9AB0
:102C10005F988AB1806D8AB9769A6E9881B3806F19
:102C200081BB899880B38D7080BB80E58CBD81E0CD
:102C30008DBD85E090E00E94450D5F9A85E090E0B3
:102C40000E94450D5E985C98E3E5F2E084918EBDAC
:102C500000000DB407FEFDCF319632E0E036F307F9
:102C6000A9F75C9A81E88093640080916500816097
:102C70008093650085E995E00E946A0D0E94600DD1
:102C800087FF1FC05C9885EA8EBD00000DB407FE6B
:102C9000FDCF5C9A2E982F982D9881E083BF889560
:102CA00013BEFCCF2D980E94600D8478843871F09B
:102CB0000E94600D8471843131F188EC90E00E94B3
:102CC000450D0E94600D82FDEDCF3AC00E94430D7C
:102CD00088EC90E00E94450D2F9882E090E00E94E1
:102CE000E51E8F3F29F06FEF82E090E00E94ED1E1D
:102CF00084EF91E00E94450D2F9A0E94600D847828
:102D00008438D9F3D5CF0E94430D88EC90E00E941F
:102D1000450D2E9882E090E00E94E51E882329F060
:102D200060E082E090E00E94ED1E84EF91E00E945E
:102D3000450D2E9A0E94600D84718431D9F3BDCF68
:102D40000E94430D82E090E00E94680D882319F0F4
:102D50003E9A3F9A02C03E983F9881E090E00E94E0
:102D6000680D182F147081FF3AC011112E98C0EF12
:102D7000DFEF0E94600D86FF05C02E9A2F9A0E94F9
:102D8000430D2DC0112329F0C430D10511F42E9A22
:102D90002F9881E00E94020F00E128E543EA51E00C
:102DA000BE0184E190E00E945A0F85E995E00E94FF
:102DB0006A0D8FE090E00E94450D2196C931D10542
:102DC000C1F6112311F02F9A2D9880E991E00E940D
:102DD000450D0E94430D81E995E00E947A1D82E332
:102DE00090E00E94450D0E94600D8111F8CF81E2B4
:102DF00080939C05809164008E7F80936400809115
:102E00007A00806480937A0080917A0086FDFCCFFE
:102E1000C0917800D09179000E9442128E0120E08A
:102E200030E0980111270027600F711F821F931F48
:102E30002091640021602093640061157105810573
:102E4000910511F00E94DC1E97E0892E912CA12C97
:102E5000B12C2CE3222E312C3EE2C32ED12C0E9429
:102E6000110F1092A3051092A2051092A1051092C5
:102E7000A0052FB7F89480910E0690910F06A091AF
:102E80001006B09111062FBF20919D05482F421BBF
:102E9000242F30919E05332329F040939F051092F3
:102EA0009E0516C630919C05431748F42F5F2317E3
:102EB00008F00EC681E083BF889513BE09C621E0E5
:102EC00020939E0580939D0580919805909199058A
:102ED0000196909399058093980580916E018111D8
:102EE00030C00FE220E84BEE5AE060E070E080E096
:102EF00090E00E945A0F1092A1051092A00582E363
:102F000090E09093A3058093A20586ED9AE00E943D
:102F10004B0F85E995E00E946A0D0E94290F88E019
:102F20000E941E0F8823C9F381E080936E010E94E6
:102F3000110F1092A3051092A2051092A1051092F4
:102F4000A00580916E01813009F095C010928A052C
:102F500010928905109288051092870510928C05B1
:102F600010928B056FE77AE08CE795E00E941F0DC9
:102F70001092A1051092A005CEE1D0E0D093A30558
:102F8000C093A2058FE69AE00E944B0F8DE59AE070
:102F90000E944B0F80E59AE00E944B0F86E49AE076
:102FA0000E944B0F80917701811109C01092A105F9
:102FB0001092A005D093A305C093A20520C0813034
:102FC00039F41092A1051092A00586E290E013C09A
:102FD000823049F41092A1051092A005D092A30569
:102FE000C092A2050CC0833051F41092A10510923A
:102FF000A00586E390E09093A3058093A20583E566
:1030000091E00E94350F85E995E00E946A0D0E94CB
:10301000290F80E10E941E0F882329F080917701FB
:103020008F5F8093770180E80E941E0F882329F02C
:10303000809177018150809377018091770184306E
:1030400010F01092770188E00E941E0F882399F0FB
:1030500080917701811102C082E00BC0813011F4B0
:1030600084E007C0823011F488E003C0833019F493
:103070008AE080936E0180916E018A3009F03FC032
:1030800010928A0510928905109288051092870582
:1030900010928C0510928B0580917601811106C0EB
:1030A00061E679E08CE795E00E941F0D8091760142
:1030B000813031F46AE478E08CE795E00E941F0DDE
:1030C00080917601823031F467EA77E08CE795E011
:1030D0000E941F0D85E995E00E946A0D0E94290F4C
:1030E00088E00E941E0F882351F0809176018F5F47
:1030F00080937601833018F081E080936E01809197
:103100006E01823009F0E4C08091090181110E94B2
:103110006D0D0E94110F1092A3051092A20510923E
:10312000A1051092A005CAE6D1E006E611E080E212
:103130000E94FD0EE991F0E0EE0FFF1FE15AF84FFB
:103140006591749181E995E00E941F0D3092A1056F
:103150002092A00566E577E081E995E00E941F0DC9
:10316000F80181918F010E9490104EE651E04C17BA
:103170005D07E9F60E94470F0E94470F6DE477E074
:1031800081E995E00E941F0D80910701909108014F
:103190000E94A11068E477E081E995E00E941F0D8C
:1031A00080910501909106010E94A1108091650116
:1031B000811109C01092A1051092A0051092A305DB
:1031C0001092A2051EC0813039F41092A105109210
:1031D000A00588E090E011C0823039F41092A1057A
:1031E0001092A00580E190E008C0833051F4109265
:1031F000A1051092A00588E190E09093A30580932B
:10320000A2058EE30E94FD0E85E995E00E946A0DFD
:103210000E94290F84E00E941E0F882329F081E07C
:1032200080936E018093090188E00E941E0F88231D
:1032300019F083E080936E0180E80E941E0F8823BE
:1032400029F08091650181508093650180E10E94A1
:103250001E0F882329F0809165018F5F809365019F
:1032600080E20E941E0F882349F08091070190910F
:1032700008010597909308018093070180E40E945C
:103280001E0F882349F0809107019091080105964F
:1032900090930801809307018091070190910801A4
:1032A0002091050130910601281739072CF430933D
:1032B00008012093070106C097FF04C0109208017F
:1032C0001092070180916501843010F01092650121
:1032D00080916E01833009F067C1E0916A01F0E0EE
:1032E000EE0FFF1FE15AF84F859194910E944B0F0A
:1032F000E0916B01F0E0EE0FFF1FE15AF84F85916E
:1033000094910E944B0FE0916C01F0E0EE0FFF1FD3
:10331000E15AF84F859194910E944B0FE0916D0115
:10332000F0E0EE0FFF1FE15AF84F859194910E9453
:103330004B0F0E94290F84E00E941E0F882329F062
:1033400081E08093090180936E0180916401811175
:103350000CC01092A1051092A005D092A305C092B6
:10336000A2058AE397E00E944B0F809164018111CE
:1033700005C088E00E941E0F8111B2C380916401D4
:10338000882309F40DC180916301811118C00FE5F4
:1033900011E0C0E0D0E0F80181918F0190E09093BE
:1033A000A1058093A005D093A305C093A2058EE745
:1033B0000E94FD0E2896C032D10569F751C08831B0
:1033C00008F054C0F6E6EF2EF1E0FF2ECFE5D1E095
:1033D00000E010E00E948E1EF70121917F01EDE0D8
:1033E0004E2E512C421A5108052C000C6608770805
:1033F0002CE030E040E050E00E94FB1EDC01CB01FD
:103400000196A11DB11D84159505A605B70594F477
:103410000E948E1E23E030E040E050E00E94FB1E40
:10342000DC01CB010296A11DB11D2881622F680F1E
:10343000688303C088818F5F8883899190E090932F
:10344000A1058093A0051093A3050093A2058EE724
:103450000E94FD0E085F1F4F0032110509F0BACF20
:10346000809163018F5F809363019AC05FE5E52ED1
:1034700051E0F52E00E010E0F70181917F0190E02E
:103480009093A1058093A0051093A3050093A20536
:103490008EE70E94FD0EEFE5F1E080E0712C90E0F8
:1034A0002191921710F4782E922F8F5F8430C1F7FC
:1034B0001092A1051092A005D092A305C092A2057A
:1034C000C72DD0E0FE01E659FE4FE081F0E0EE0F9F
:1034D000FF1FE15AF84F6591749181E995E00E94D0
:1034E0001F0D84E397E00E944B0F809165018711C7
:1034F00040C06BE277E081E995E00E941F0DCA5958
:10350000DE4F888190E001962091070130910801FB
:10351000AC01429FC001439F900D529F900D11241A
:103520000E94A1100E94470F809104018823C1F0DE
:10353000888190E001964091070150910801849F95
:103540009001859F300D949F300D112480910501CD
:1035500090910601280F391F309306012093050131
:1035600010920401085F1F4F0032110509F084CF4B
:1035700017C060E277E081E995E00E941F0D80911D
:103580000701909108010E94A110809104018823F5
:1035900039F380910701909108010E94AF0EE0CFAE
:1035A00085E995E00E946A0D80916E01843009F0F2
:1035B00094C08091030181110E946D0D67E177E055
:1035C00081E995E00E941F0D809101019091020117
:1035D0000E94A11062E177E081E995E00E941F0D51
:1035E00080910501909106010E94A1100E94470F51
:1035F0006FEF76E081E995E00E941F0D8091000158
:103600000E94901085E995E00E946A0D0E94290FA2
:1036100084E00E941E0F882329F081E080936E01D0
:103620008093030188E00E941E0F882329F01092E6
:10363000750185E080936E0180E80E941E0F88234B
:1036400029F0809100018F5F8093000180E10E944A
:103650001E0F882329F08091000181508093000182
:1036600080E20E941E0F882349F080910101909111
:1036700002010297909302018093010180E40E946D
:103680001E0F882349F0809101019091020102965A
:1036900090930201809301018091010190910201B8
:1036A0002091050130910601281739072CF4309339
:1036B00002012093010106C097FF04C0109202018D
:1036C00010920101809100018A3010F085E003C062
:1036D000853018F489E08093000180916E01853077
:1036E00009F0F6C080917501811163C00E948E1EA1
:1036F000A50194010E94FB1E609374010E948E1E1E
:10370000A50194010E94FB1E6093730180917401D6
:10371000680F60935E0191E09093750184E080935F
:10372000720180910001853029F4653049F590934C
:10373000720126C0863041F4663011F06C3079F5A4
:1037400081E0809372012BC0873051F4673011F013
:103750006B30F1F491E090937201873069F418C0F6
:10376000883029F4962F9B7F9830C9F4F3CF8930A5
:1037700019F4693029F4EECF883089F08930C9F422
:103780008EEF860F823090F485E08093720111C035
:103790008EEF860F8230C0F36C3059F4F5CF8EEF88
:1037A000860F823088F36B3021F4EECF6B5062309D
:1037B00058F385EF96E00E944B0F0E94470F6FEE83
:1037C00076E081E995E00E941F0D6091740170E040
:1037D00080E090E04AE00E944F108CE20E94FD0ED3
:1037E000809173010E94901080917201811104C038
:1037F00085E591E00E94350F80917201853021F4BA
:1038000088EE96E00E944B0F80917201843021F483
:1038100084EE96E00E944B0F80917201813021F47A
:103820008FED96E00E944B0F0E94470F8CEC96E0C4
:103830000E944B0F85E995E00E946A0D0E94290FB6
:1038400084E00E941E0F882329F081E080936E019E
:103850008093030188E00E941E0F8823C9F18091A4
:103860007201853051F41092750186E080936E01EB
:1038700080915E01809371012BC08130B1F487E0AB
:1038800080936E0120910101309102018091050128
:1038900090910601820F931F90930601809305017A
:1038A0003093700120936F0113C0843089F487E056
:1038B00080936E01C0910101D0910201CE010E945E
:1038C000AF0ED195C195D109D0937001C0936F010E
:1038D00080916E01863009F0A4C08091750181113C
:1038E00026C00E948E1EA50194010E94FB1E6093BB
:1038F00074010E948E1EA50194010E94FB1E60931C
:10390000730180917401680F60935E0181E0809380
:10391000750180910001681303C083E080937201F8
:1039200080917101681303C082E08093720180EC82
:1039300096E00E944B0F0E94470F67EB76E081E90B
:1039400095E00E941F0D809174010E9490106EEA14
:1039500076E081E995E00E941F0D809173010E943D
:1039600090100E94470F0E94470F80917201833090
:1039700019F485EA96E009C0823019F48DE996E0E1
:1039800004C0853021F482E996E00E944B0F0E942A
:10399000470F8FE796E00E944B0F85E995E00E9464
:1039A0006A0D0E94290F88E00E941E0F8823C9F12A
:1039B00080917201853031F41092750186E0809318
:1039C0006E012FC08230B1F487E080936E010E94B7
:1039D000E10D2091050130910601820F931F909314
:1039E0000601809305010E94E10D90937001809380
:1039F0006F0117C08330A9F487E080936E01C091F6
:103A00000101D0910201CE01880F991F0E94AF0ED3
:103A1000D195C195D109CC0FDD1FD0937001C09312
:103A20006F0180916E01873009F040C080916F0175
:103A3000909170011816190684F466E776E081E922
:103A400095E00E941F0D80916F01909170010E947E
:103A5000A11080E796E00E944B0F80916F0190913A
:103A6000700197FF13C066E676E081E995E00E9459
:103A70001F0D80916F019091700191958195910931
:103A80000E94A11080E696E00E944B0F85E995E028
:103A90000E946A0D0E94290F84E00E941E0F81116E
:103AA00023C088E00E941E0F81111EC080916E010C
:103AB000893071F400E420E840E652E060E070E014
:103AC00080E090E00E945A0F85E995E00E946A0D1F
:103AD00080E090E0892B09F4C2C90E940000BFC9B0
:103AE00081E0809364014ACC81E080936E018093F1
:103AF0000301DCCF0F931F93CF93DF93EC0181E0A1
:103B000090E00E94680D80FF2EC08AE090E00E9445
:103B1000680D9FEF980F9E3F30F522E330E0388B21
:103B20002F8728E330E03A8B298B0BE010E0E88107
:103B3000F9810190F081E02D682FCE010995C8012F
:103B40000E94680D0F5F1F4F0131110581F7CE01F3
:103B500004960E946A0D88EE93E0DF91CF911F9149
:103B60000F910C94450DDF91CF911F910F91089506
:103B700004970C947A1DE4EBF5E01382128288EE30
:103B800093E0A0E0B0E084839583A683B7838EE1C1
:103B900091E0918380838FEF9FEF95878487E1E9A0
:103BA000F5E0138212821186128680E183871086E7
:103BB000178215868CE391E0918380838AE491E0FB
:103BC00095838483108A1786128A118A81E0838BF9
:103BD000148A858B168AECE7F5E01382128220E3C3
:103BE00031E0318320832CE731E03683258320E8E0
:103BF00030E03087278320E430E03287218795E06A
:103C0000948B838B16861586108A178614861386E6
:103C100081E090E0928B818B14820895DF92EF9285
:103C2000FF920F931F93CF93DF93D82EF92EE42E9C
:103C3000062F10E0C8010196880F0E94E01183E072
:103C40000E94E011CD2DDF2D0C0F1D1FC017D107D5
:103C500089F0E7FE03C0FE01849101C088810E94C3
:103C6000E011F82E80E00E94E0118F212196811151
:103C7000EDCF01C081E0DF91CF911F910F91FF90B7
:103C8000EF90DF9008958F929F92AF92BF92CF9264
:103C9000DF92EF92FF92CF93DF93EC0168817981FD
:103CA0008A819B81611571058105910521F464E28A
:103CB00079ED8BE597E02DE133EF41E050E00E9494
:103CC000FB1E49015A019B01AC01A7EAB1E40E9425
:103CD0001A1F6B017C01ACEEB4EFA50194010E94A8
:103CE000281FDC01CB018C0D9D1DAE1DBF1DB7FF34
:103CF00003C00197A109B04888839983AA83BB8335
:103D0000BC01CD019F77DF91CF91FF90EF90DF90C5
:103D1000CF90BF90AF909F908F9008958F929F9279
:103D2000AF92BF92CF92DF92EF92FF926091160115
:103D30007091170180911801909119016115710519
:103D40008105910521F464E279ED8BE597E02DE1A1
:103D500033EF41E050E00E94FB1E49015A019B01F4
:103D6000AC01A7EAB1E40E941A1F6B017C01ACEE22
:103D7000B4EFA50194010E94281FDC01CB018C0D3A
:103D80009D1DAE1DBF1DB7FF03C00197A109B0481F
:103D90008093160190931701A0931801B093190115
:103DA000BC01CD019F77FF90EF90DF90CF90BF9047
:103DB000AF909F908F9008956093160170931701B4
:103DC00080931801909319010895F999FECF92BD3F
:103DD00081BDF89A992780B50895262FF999FECFCD
:103DE0001FBA92BD81BD20BD0FB6F894FA9AF99A18
:103DF0000FBE01960895052E97FB1EF400940E94B5
:103E0000121F57FD07D00E942D1F07FC03D04EF450
:103E10000C94121F50954095309521953F4F4F4F70
:103E20005F4F089590958095709561957F4F8F4F66
:103E30009F4F08950E944F1FA59F900DB49F900D16
:103E4000A49F800D911D11240895B7FF0C941A1F93
:103E50000E941A1F821B930B0895A1E21A2EAA1B1F
:103E6000BB1BFD010DC0AA1FBB1FEE1FFF1FA2172A
:103E7000B307E407F50720F0A21BB30BE40BF50B27
:103E8000661F771F881F991F1A9469F760957095B0
:103E9000809590959B01AC01BD01CF010895A29F33
:103EA000B001B39FC001A39F700D811D1124911D0E
:103EB000B29F700D811D1124911D089597FB072E4F
:103EC00016F4009407D077FD09D00E94721F07FCFA
:103ED00005D03EF4909581959F4F0895709561951A
:103EE0007F4F0895AA1BBB1B51E107C0AA1FBB1F30
:103EF000A617B70710F0A61BB70B881F991F5A9576
:103F0000A9F780959095BC01CD010895EE0FFF1F94
:0C3F10000590F491E02D0994F894FFCF87
:103F1C000502000101640005000100E10000000041
:103F2C000000FFFFFFFF0100000000000000D80EA2
:103F3C00E410F90EEE0EC61194115A120000000096
:103F4C00740CB70A1C0D1B0D00000000E10AB70A27
:103F5C001C0D1B0D7A1DFCFF0000B81D00C18081DB
:0E3F6C000000003E0075682D6F68000D0A0011
:00000001FF
