:100000000C947B070C94A3070C94A3070C94A307F0
:100010000C94A3070C94A3070C94A3070C94A307B8
:100020000C94A3070C94A3070C948A0B0C94FC0B60
:100030000C94A3070C94A3070C94A3070C94A30798
:100040000C94A3070C94A3070C94A3070C94A30788
:100050000C94A3070C94A3070C94A3070C94B11061
:100060000C94A3070C94A3070C94A3070C94A30768
:100070000C94A3070C94A3070C94A3070C94A30758
:100080000C94A3070C94A3070C94A3070C94A30748
:100090000C94A3070C94A3070C94A3070C94A30738
:1000A0000C94A3070C94A3070C94A307F0F89C8E60
:1000B0008783878E9CF8F00000FEFF030303030391
:1000C000070EFCF80000FEFF0303030303070EFC0A
:1000D000F80000FFFF00000000000000FFFF00002C
:1000E000FEFF8383838383C7EE7C380000F8FC0E19
:1000F00007030303070EFCF800003F7FE0C0808089
:10010000C0E07F3FFFFF01010101010101FFFF008E
:1001100000FFFF0C0C0C0C1C3E77E3C100007FFFBE
:10012000C0C0C0C0C0E0703F1F00001F3F70E0C0F3
:10013000C0C0E0703F1F00007FFFC1C1C1C1C1E36B
:10014000773E1C00001F3F70E0C0C0C0E0703F1F42
:10015000000000000001FFFF01000000D5F08D1439
:10016000A1C881CFD9F1AF200050726573732041CF
:1001700020746F20476F00E701EA01EF01F501FBF2
:1001800001000209020F02190221022A0233023978
:100190000242024902500256025F0266026B02717D
:1001A0000278027E028302880291029A029D02A1D5
:1001B00002A902AF02B802C002C702CF02544849E6
:1001C00053205245534F52542057415320494D41DB
:1001D00047494E45440A425920412042454E2C2071
:1001E0005259414E2C20414E445245570A414E44EB
:1001F0002044414E2C20412044554E47454F4E53FC
:1002000020414E440A445241474F4E5320414456E8
:10021000454E545552494E470A47524F5550205764
:1002200048494C4520415454454D5054494E47206F
:10023000544F0A534156452054484520574F524C7D
:10024000442046524F4D205448450A575241544885
:10025000204F4620544845204749414E54532E00D4
:100260004D4F4E535445524F504F4C4953205741D8
:10027000530A464F554E4445442042592047524563
:1002800041542C0A42554742454152205741524C55
:100290004F52440A474F524548554E4745522C202D
:1002A000465249454E44204F460A5448452044573B
:1002B00041525645532C20414E4E4948494C4154D9
:1002C0004F520A4F46205448452048494C4C20473D
:1002D00049414E54532C204849530A5357415348DF
:1002E0004255434B4C494E472042524F5448455289
:1002F0000A47524547454B2C204E415649474154E9
:100300004F52204F46205448450A534B4945532CE1
:1003100020414E4420544845495220424F4F4E0AF6
:10032000434F4D50414E494F4E20534C4F4F50205C
:1003300054484520424F4E450A4841525645535471
:1003400045522C204F4620544845204C495A415292
:10035000440A464F4C4B2C20504152414D4F554E74
:1003600054204F46205448450A424F4E45204341B1
:1003700052564552532E004D4F4E535445524F50F6
:100380004F4C49532049532041200A464142554C85
:100390004F55532044455354494E4154494F4E20E4
:1003A000464F520A414C4C2057484F204841564531
:1003B00020524943484553204F520A574953482039
:1003C000544F204245434F4D4520524943482E202B
:1003D000434F4D450A464F52204120535441474513
:1003E0002053484F572C20504C415920494E0A5415
:1003F000484520434153494E4F2C205649534954B8
:10040000205448450A4D41524B4554532E20434FEA
:100410004E5645494E454E544C590A4C4F43415453
:10042000454420494E204E4F52544845524E0A46AC
:10043000414552554E2C204A555354204120534893
:100440004F525420424F41540A524944452046528B
:100450004F4D204D4952414241522E004845592CA2
:1004600020474F424C494E2C20594F5520574F5250
:100470004B2041540A54484520434153494E4F2094
:100480004E4F572E0A4D414B452054484520424F70
:1004900053532048415050590A4259204D414B492D
:1004A0004E47204D4F4E45592C204F5220454C531E
:1004B000452100205072657373204120746F2043E2
:1004C0006F6E74696E75650000E0E0C04060E0C06A
:1004D000C04040C0C0800000000000808080C0801C
:1004E000000000000080000000808000000000008C
:1004F000000000000000000000000007FCFE0300F8
:1005000000000000000000000000000000000000EB
:1005100000000000000000000000000000000000DB
:1005200000008000000000000000000080808000CB
:1005300000000007FEFE00000000C6CFC60000005D
:100540008080C02060602000003F3F3F000020FF0F
:100550007F000000FFFF80000000FFFF800003FF1E
:10056000FF00000001FFFF030103FFFFFC0000008C
:1005700038FCFE82C7C7E68000000101FFFF0302CE
:100580000000F0F80C3EFCE000001CFEF80C0E1E13
:100590000C0000F8FC06061FFEF800000001FFFE3C
:1005A000020307FFFE000000FCFEFF010103FFFF46
:1005B00000000000FFFF00000000FFFF40000000FF
:1005C0000327766222231F0E0000000000000000B7
:1005D000000000000001000000000003070302010A
:1005E00001000000000F0F0600000F3F1F00000079
:1005F000103879F060203F1F00000060FFFF4000CE
:100600000000FFFF86030100000080FFFF80000064
:100610000000007FFFE0C0403F1F00000038FFFFE8
:100620003830100F0700000003070F0E040203010B
:1006300000000001030100000000000100000000B4
:1006400000000000000000000000000000000000AA
:10065000000000000000000000000000000000009A
:10066000000000000000000000000000000000008A
:100670000000000000000000000000000101000078
:100680000000030701000000000001070300000054
:1006900000000000010100000000000000201F1FFA
:1006A000100000000000000000000000000000003A
:1006B000000000000000000000000000000000003A
:1006C000000000000000000000000000000000002A
:1006D000000000000000000000000000000000001A
:1006E000000000000000000000000000000080800A
:1006F000C0C0C00000C0C04040C0C08000000000BA
:10070000808040C0C04000000000CCDE84000000BB
:10071000C0C08080C0C0C08000000000808040C099
:10072000C080000000000000000000000000000089
:1007300000000000000000000000000000000000B9
:1007400000000000000000000000000000000000A9
:100750000000000000000000000000000000000099
:10076000000000000000000000000000003F7F7F4C
:1007700020201000003C7E6340607F7F000000006E
:1007800027676444663E1C0000007F7F2000000055
:10079000207F7F0000207F7F0000001F7F7060406F
:1007A0003F3F1F00000000000000000000000000AC
:1007B0000000000000000000000000000000000039
:1007C0000000000000000000000000000000000029
:1007D0000000000000000000000000000000000019
:1007E0000000000000000000000000000000000009
:1007F00000000000000000000000000000000000F9
:1008000000000000000000000000000000000000E8
:1008100000000000000000000000000000000000D8
:1008200000000000000000000000000000000000C8
:1008300000000000000000000000000000000000B8
:1008400000000000000000000000000000000000A8
:100850000000000000000000000000000000000098
:100860000000000000000000000000000000000088
:100870000000000000000000000000000000000078
:100880000000000000000000000000000000000068
:100890000000000000000000000000000000000058
:1008A0000000000000000000000000000000000048
:1008B0000000000000000000000000000000000038
:1008C0000000000000000000080B0002020201000E
:1008D00009040000010202000005240010010524A3
:1008E0000101010424020605240600010705810315
:1008F00010004009040100020A000000070502027E
:1009000040000007058302400000040309041201AF
:100910000002EF0201404123368000010102030181
:1009200041726475696E6F204C4C4300417264756E
:10093000626F790000B00000A170E150964F2690E0
:100940000F1D070C009669004AE44A004844400025
:10095000806810000F99FB8F9DBDBBFB77D4D4DF5F
:100960001F1A1AFE7F5D5DFF805A0000A0A4AA0036
:1009700010BA3400FF5953F3FF9B9B9EFFB9B99601
:10098000FF9595D19FF4940FFC295F91FF1838F8DB
:10099000FF9294FFFF95D5F7BFB5DDD7F18F81F1B9
:1009A000F788C8F779C6467909FD9B090196F800D2
:1009B00082818280507162007756560076763700C9
:1009C000A2B77301077206007827500073347400D1
:1009D000775176007F55F70047711000324772005B
:1009E0007364730015A2750061679400009F6060D6
:1009F000F4F2F6F200000000003E5B4F5B3E3E6BFF
:100A00004F6B3E1C3E7C3E1C183C7E3C181C577DA8
:100A1000571C1C5E7F5E1C00183C1800FFE7C3E7F4
:100A2000FF0018241800FFE7DBE7FF30483A060E06
:100A30002629792926407F050507407F05253F5A4D
:100A40003CE73C5A7F3E1C1C08081C1C3E7F1422BD
:100A50007F22145F5F005F5F06097F017F00668968
:100A6000956A606060606094A2FFA29408047E04AE
:100A70000810207E201008082A1C08081C2A0808D4
:100A80001E101010100C1E0C1E0C30383E38300694
:100A90000E3E0E06000000000000005F0000000790
:100AA000000700147F147F14242A7F2A12231308BE
:100AB000646236495620500008070300001C22419A
:100AC000000041221C002A1C7F1C2A08083E08083E
:100AD00000807030000808080808000060600020EE
:100AE000100804023E5149453E00427F40007249D1
:100AF0004949462141494D331814127F1027454575
:100B000045393C4A4949314121110907364949498A
:100B100036464949291E00001400000040340000F8
:100B20000008142241141414141400412214080261
:100B3000015909063E415D594E7C1211127C7F49D4
:100B40004949363E414141227F4141413E7F494929
:100B500049417F090909013E414151737F08080855
:100B60007F00417F41002040413F017F0814224126
:100B70007F404040407F021C027F7F0408107F3E80
:100B80004141413E7F090909063E4151215E7F09ED
:100B9000192946264949493203017F01033F404054
:100BA000403F1F2040201F3F4038403F631408143F
:100BB0006303047804036159494D43007F41414177
:100BC0000204081020004141417F04020102044058
:100BD00040404040000307080020545478407F28DC
:100BE0004444383844444428384444287F385454D2
:100BF000541800087E090218A4A49C787F080404F5
:100C00007800447D40002040403D007F1028440093
:100C100000417F40007C047804787C080404783824
:100C200044444438FC1824241818242418FC7C0854
:100C3000040408485454542404043F44243C4040D1
:100C4000207C1C2040201C3C4030403C4428102884
:100C5000444C9090907C4464544C440008364100CD
:100C60000000770000004136080002010204023C47
:100C70002623263C1EA1A161123A4040207A385416
:100C80005455592155557941215454784121555491
:100C9000784020545579400C1E52721239555555E2
:100CA00059395454545939555454580000457C41CD
:100CB0000002457D420001457C40F0292429F0F0E6
:100CC000282528F07C545545002054547C547C0A37
:100CD000097F4932494949323248484832324A4804
:100CE00048303A4141217A3A42402078009DA0A004
:100CF0007D39444444393D4040403D3C24FF242458
:100D0000487E4943662B2FFC2F2BFF0929F620C074
:100D1000887E090320545479410000447D413048C5
:100D2000484A32384040227A007A0A0A727D0D1908
:100D3000317D2629292F28262929292630484D406A
:100D400020380808080808080808382F10C8ACBA66
:100D50002F102834FA00007B000008142A142222E5
:100D6000142A14089500220095AA005500AAAA5535
:100D7000AA55AA000000FF00101010FF0014141460
:100D8000FF001010FF00FF1010F010F0141414FCFE
:100D9000001414F700FF0000FF00FF1414F404FC1B
:100DA000141417101F10101F101F1414141F0010FC
:100DB0001010F0000000001F101010101F10101075
:100DC00010F010000000FF10101010101010101084
:100DD000FF10000000FF140000FF00FF00001F10C4
:100DE000170000FC04F414141710171414F404F47E
:100DF0000000FF00F714141414141414F700F7146F
:100E00001414171410101F101F141414F4141010BD
:100E1000F010F000001F101F0000001F1400000061
:100E2000FC140000F010F01010FF10FF141414FF59
:100E3000141010101F00000000F010FFFFFFFFFF54
:100E4000F0F0F0F0F0FFFFFF0000000000FFFF0FE8
:100E50000F0F0F0F38444438447C2A2A3E147E0278
:100E6000020606027E027E0263554941633844440D
:100E70003C04407E201E2006027E020299A5E7A5C2
:100E8000991C2A492A1C4C7201724C304A4D4D3033
:100E90003048784830BC625A463D3E494949007E58
:100EA0000101017E2A2A2A2A2A44445F44444051EF
:100EB0004A444040444A51400000FF0103E080FFA3
:100EC000000008086B6B083612362436060F090F2F
:100ED00006000018180000001010003040FF01014B
:100EE000001F01011E00191D1712003C3C3C3C0074
:100EF00000000000341711241FBECFEFDAE0DEBF80
:100F0000CDBF12E0A0E0B1E0E0E9F2E302C005905D
:100F10000D92AC3DB107D9F727E0ACEDB2E001C0CE
:100F20001D92AD38B207E1F717E0CBE7D7E004C078
:100F30002197FE010E944019CA37D107C9F70E94C4
:100F40001C110C9446190C9400002FB7F89483E000
:100F50008093E9009091E800892F807295FF04C08A
:100F60009091F20080E4891B2FBF0895CF93DF9307
:100F70001F92CDB7DEB76983DC01ED91FC91028051
:100F8000F381E02D41E050E0BE016F5F7F4F099596
:100F90000F90DF91CF91089583E08093E9008091D5
:100FA000F200882319F08AE38093E80008950E94F4
:100FB000A50790E00895009769F0FC0101900020DA
:100FC000E9F73197AF01481B590BBC0188E097E066
:100FD0000C94FB0D80E090E0089588ED92E00C9475
:100FE000DB07CF93DF930E94DB07EC010E94ED0744
:100FF0008C0F9D1FDF91CF910895E3EFF2E0A0E009
:10100000B8E000800EBC8111012C1197A0FDFDCF2E
:101010000192B9F70DB408950C94DB0780E0E3EF7B
:10102000F2E081118FEF002481938193819381936A
:101030000394D1F7089520911207282329F4909161
:101040001107982381E009F480E00895CF93DF939E
:10105000C8E0D7E089858A870E94A4108987DF913C
:10106000CF9108952F923F924F925F926F927F920D
:101070008F929F92AF92BF92CF92DF92EF92FF92A8
:101080000F931F93CF93DF93CDB7DEB72A970FB699
:10109000F894DEBF0FBECDBF5A01822E912C940171
:1010A000280F391F37FDBAC0803891050CF0B6C043
:1010B0009B01200F311D37FDB1C0603471050CF06C
:1010C000ADC0AB0177FF04C044275527461B570B23
:1010D000477055279B0177FF02C0295F3F4FE3E030
:1010E00035952795EA95E1F777FF08C0215031093A
:1010F00068E070E0FB01E41BF50BAF01202E2694A5
:1011000026942694312C077019F0FFEF2F1A3F0A0E
:10111000220E331E39017694762C662477946794D8
:10112000680E791EE12CF12C00E010E0B30160584C
:101130007F4F7A87698768E070E0FB01E41BF50B5D
:10114000FA83E9832216330609F468C02830310592
:1011500009F464C02F3FFFEF3F070CF454C0E9854A
:10116000FA85E00FF11FBF016D507D4F7C836B83CB
:10117000D801A60DB71DAD50BD4F6C0160E070E009
:10118000681579050CF03FC0E0E8CE16D10409F4EB
:101190003AC0D7FC2CC02F3FFFEF3F0709F43AC0FD
:1011A000FB01EE0DFF1DEA0DFB1DE491042E01C0B5
:1011B000EE0F0A94EAF7FC91EF2BEC9341155105E1
:1011C000B1F02730310599F0FB01EE0DFF1DEA0D5E
:1011D000FB1DE4914E2E512C098002C0559447947A
:1011E0000A94E2F7EB81FC815080452840826F5FD2
:1011F0007F4FEB81FC813196FC83EB83FFEFCF1AAD
:10120000DF0A1196BDCF2F5F3F4F00581F4FE80CEC
:10121000F91C98CF41155105B9F6E9CF2A960FB6BA
:10122000F894DEBF0FBECDBFDF91CF911F910F911C
:10123000FF90EF90DF90CF90BF90AF909F908F90F6
:101240007F906F905F904F903F902F9008958F9276
:101250009F92AF92BF920F931F93CF93DF93CDB71F
:10126000DEB7A1970FB6F894DEBF0FBECDBF19A2AF
:10127000423008F44AE08E010F5D1F4F842E912CFE
:10128000A12CB12CA50194010E94E718E62FB90109
:10129000CA0101501109EA3014F4E05D01C0E95CB3
:1012A000D801EC93232B242B252B61F7C8010E9436
:1012B000DB07A1960FB6F894DEBF0FBECDBFDF915E
:1012C000CF911F910F91BF90AF909F908F900895F5
:1012D000CF92DF92EF92FF92CF93DF936B017C016D
:1012E0006DE288E097E00E94250EEC0166277727E3
:1012F000CB016C197D098E099F094AE00E942709DC
:101300008C0F9D1FDF91CF91FF90EF90DF90CF90DA
:101310000895BC01990F880B990B97FD0C946809EF
:101320004AE00C942709CF93DF93BC01990F880BF7
:10133000990B97FF03C00E94680903C04AE00E940E
:101340002709EC010E94ED078C0F9D1FDF91CF91C3
:101350000895E1E0F0E00E94FE0A319728F068511C
:101360007C4F8F4F9F4FF9CFAB01FC010E94FE0ACB
:10137000641775078E079F07C8F308958F929F9291
:10138000AF92BF92CF92DF92EF92FF920F931F9393
:10139000CF93DF936C017B018A0180910E0188233A
:1013A00009F458C08091F202882309F453C0809157
:1013B000F00280FF05C08091E00082608093E00031
:1013C000E801B12C8AEFA82E93E0892E2AE3922E11
:1013D000209711F4BB20B9F10E94A507811106C026
:1013E000AA94AA20B9F10E94A909F2CF282F30E0CF
:1013F000C217D3070CF48C2F9FB7F8948092E900A2
:101400002091E80025FF1DC0282F30E0C21BD30B20
:10141000F701815020F041914093F100FACFE20EA4
:10142000F31EBB2019F09092E8000AC08091E800FA
:1014300085FD07C09092E800BB24B394209709F083
:10144000B12C9FBFC5CF5D9884E68093EF02101644
:10145000110644F081E090E0F6019383828380E0FE
:1014600090E001C0C801DF91CF911F910F91FF90D3
:10147000EF90DF90CF90BF90AF909F908F900895A6
:101480002091F202211103C08FEF9FEF08955FB703
:10149000F89422E02093E9002091F20030E0121647
:1014A000130614F421E030E0422FFC0184E64150A1
:1014B00038F028988093F1029091F1009193F7CF42
:1014C0002115310521F08091F200882319F05FBFCA
:1014D000C90108958BE68093E800F9CF8091230736
:1014E00081110DC082E080931F0784E08093200764
:1014F000109222071092210781E0809323078FE149
:1015000097E00895FC018485958597FD0BC09FB7F2
:10151000F89482E08093E9008091F2009FBF90E010
:10152000019608959FB7F89482E08093E900809136
:10153000F2009FBF90E00895409183075091840787
:10154000209181073091820742175307B4F490919C
:10155000E8009570E1F39091E80092FD19C0809346
:10156000F100809183079091840701968F739927EA
:10157000892B19F48EEF8093E80080918307909176
:1015800084070196909384078093830781E00895F0
:1015900080E00895DF92EF92FF920F931F93CF9315
:1015A000DF93D82E8A017B01E40EF51EEB01CE15E8
:1015B000DF0571F0D7FE03C0FE01849101C0888170
:1015C0000E949C0A21968111F2CF8FEF9FEF01C0FC
:1015D000C801DF91CF911F910F91FF90EF90DF90A5
:1015E0000895615030F02091F100FC0120830196B4
:1015F000F8CF289884E68093F1020895ABE7B7E02E
:101600002FB7F8947D918D919C9166B52FBFA89BC3
:1016100005C06F3F18F47F5F8F4F9F4F22E0660F2A
:10162000771F881F991F2A95D1F708950F931F934D
:10163000CF93DF931F92CDB7DEB78C01FC01848579
:10164000958597FF0EC0CE0101960E94400A019732
:1016500019F4898190E002C08FEF9FEFF801958720
:101660008487F801848595850F90DF91CF911F9134
:101670000F910895CF93DF931F92CDB7DEB7FC0192
:101680008485958597FD05C02FEF3FEF358724872B
:101690000BC0CE0101960E94400A019719F489817E
:1016A00090E002C08FEF9FEF0F90DF91CF910895F0
:1016B0000F931F93CF93DF931F92CDB7DEB782E0D6
:1016C000898342E450E068EC78E080E80E94CA0A2E
:1016D0000E946E0ADC0112960D911C911397011560
:1016E000110589F0D801ED91FC910280F381E02D84
:1016F000BE016F5F7F4FC801099597FD04C0F801D7
:1017000000851185ECCF89810F90DF91CF911F91DA
:101710000F9108951F920F920FB60F9211248F937D
:101720009F938091E1009091E100937F9093E1007D
:1017300083FF0FC01092E90091E09093EB001092AC
:10174000EC0092E39093ED001092F20298E09093F7
:10175000F00082FF20C093E09093E9009091F200A6
:10176000992319F09AE39093E8009091EF0299235E
:1017700039F09091EF0291509093EF02992389F103
:101780009091F102992339F09091F1029150909348
:10179000F102992341F184FF10C08091E2008E7E16
:1017A00081608093E2008091E1008F7E8093E10070
:1017B0008091F0028E7E806111C080FF16C0809102
:1017C000E2008E7E80618093E2008091E1008E7E57
:1017D0008093E1008091F0028E7E81608093F00220
:1017E00004C05D9ACDCF289AD6CF9F918F910F904C
:1017F0000FBE0F901F9018951F920F920FB60F9269
:101800001124CF92DF92EF92FF920F931F932F93A9
:101810003F934F935F936F937F938F939F93AF9378
:10182000BF93EF93FF93CF93DF93CDB7DEB76C9762
:10183000DEBFCDBF1092E9008091E80083FFBCC1FC
:1018400068E0CE0145960E94F10A82EF8093E8009D
:101850008D8987FF05C09091E80090FFFCCF03C001
:101860009EEF9093E800982F907609F0C6C09E896D
:101870004F89588D2F89F88C91110CC0803829F42C
:10188000809180078093F10002C01092F1001092C5
:10189000F1008FC1913051F481118BC1413051055C
:1018A00009F087C1809180078D7F0BC0933061F470
:1018B00081117FC14130510509F07BC180918007C2
:1018C00082608093800775C1953049F48091E8006B
:1018D00080FFFCCF822F80688093E3006AC196303E
:1018E00009F05EC00B8D1C8D22E01092E900109271
:1018F000840710928307F21232C01092820710926E
:1019000081070E94580B99E0BE016F5F7F4FDB019A
:10191000E92F1D92EA95E9F79983FA8291E09E8377
:1019200090EA98879AEF99872091830730918407EE
:10193000275F3F4F3C832B838D831092E9001092E9
:10194000840710928307109382070093810749E070
:1019500050E080E00E94CA0A0E94580B2AC11093EE
:101960008207009381070E946E0ADC0112960D9196
:101970001C9113970115110509F4BEC0D801ED9112
:10198000FC910480F581E02DBE016B5E7F4FC801A4
:101990000995009709F0ABC0F80100851185EACFE1
:1019A000973009F402C1983021F481E08093F1006E
:1019B00000C1993009F0FDC0837009F0F6C0EAE477
:1019C000F1E081E031E096E32081211109C08EE74A
:1019D0008093EA001092EA008F898093F202E9C0B6
:1019E0008093E9003093EB0021912093EC009093D9
:1019F000ED008F5F873041F7EACF8B8D9C8D109281
:101A0000E9001092840710928307909382078093D5
:101A10008107898D81114FC08E899D89913A49F442
:101A2000813209F0C2C047E050E067E071E080E039
:101A3000B6C0913209F0B9C0833269F48F89988DAC
:101A4000A0E0B0E080930F0190931001A0931101EA
:101A5000B0931201AEC0803269F48091E80082FF39
:101A6000FCCF67E087E091E00E94F10A8BEF809362
:101A7000E80006C0823209F09CC08F8980930E0175
:101A80008091070190910801A0910901B0910A018C
:101A9000803B9440A105B10509F084C080910E01FE
:101AA00080FD80C088E780937F07809164008F7DF0
:101AB000809364007EC00E946E0ADC0112960D9134
:101AC0001C9113970115110509F46FC0D801ED9110
:101AD000FC910190F081E02DBE016B5E7F4FC8014B
:101AE0000995811166C0F80100851185EBCF1816A4
:101AF00019060CF45EC059C0F1E0FF1609F446C0A7
:101B0000F3E0FF1252C08F89882309F442C082306B
:101B100029F440E867E08CE299E006C0813051F496
:101B200040E86BE080E299E00E948717882309F47F
:101B30003CC03FC08330C9F50E946E0ADC0112969A
:101B4000ED90FC9013978E010F5F1F4F6801E11419
:101B5000F10479F0D701ED91FC910680F781E02D39
:101B6000B801C7010995080F111DF701E084F18440
:101B7000EECFD8011C92F60101900020E9F73197D1
:101B8000BF016C197D0940E0C601CECF6EE079E05F
:101B900002C06AE079E0FB01449150E080E80E94D5
:101BA000CA0A07C010927F0704C081E28093EB004D
:101BB00003C08EEF8093E8006C960FB6F894DEBFFA
:101BC0000FBECDBFDF91CF91FF91EF91BF91AF914C
:101BD0009F918F917F916F915F914F913F912F9145
:101BE0001F910F91FF90EF90DF90CF900F900FBE5D
:101BF0000F901F901895CF92DF92EF92FF920F9364
:101C00001F93CF93DF936C017A018B01C0E0D0E08A
:101C1000CE15DF0581F0D8016D918D01D601ED91D2
:101C2000FC910190F081E02DC6010995892B11F0FE
:101C30002196EECF7E01C701DF91CF911F910F91C9
:101C4000FF90EF90DF90CF9008952F923F924F92A8
:101C50005F926F927F928F929F92AF92BF92CF923C
:101C6000DF92EF92FF920F931F93CF93DF93CDB745
:101C7000DEB728970FB6F894DEBF0FBECDBF9D83A9
:101C80008C836A30A1F4DC0155962C9155975196BE
:101C90008D919C915297B8E02B9F800D911D11243E
:101CA000EC81FD81928B818B108A1786C6C06D30C6
:101CB00009F4C3C0AC81BD811F968D919C91509752
:101CC00080389105BCF0EC81FD812589422F50E0E0
:101CD00087859089F6E02F9F800D911D1124AC819E
:101CE000BD8150969C938E931F9756962C912111EF
:101CF0008FC0A3C0EC81FD81E188F288F0E4EF168B
:101D0000F1040CF7AC81BD815596BC91BE839C015A
:101D1000E5E0BE9F200D311D1124121613069CF61E
:101D2000CB2ED12C970158E0B59F200D311D1124E9
:101D30001216130644F6AC81BD8154965C905497FC
:101D400053964C90B5E06B9FF00111249F012C50ED
:101D5000364F38872F83912C30E1732EEF81F88531
:101D60008490F5E09F1201C0812C870128E0622E4B
:101D700080FE02C0542D01C0552D511103C05414D2
:101D800009F433C09C01F52FF170322E622F681BCD
:101D90004E81641750F5B801A62FA01B5E81A517D0
:101DA00008F520383105D8F460347105C0F45B01C2
:101DB000A501E1E041FDE4E040FDEE0F42FDE295CA
:101DC000487F749ED0011124A30DBA83A983AD501E
:101DD000BD4FBC90BE2AF11101C0BE26BC926F5F00
:101DE0007F4FDACF2F5F3F4FD0CF86946A940C0D90
:101DF0001D1D6110BDCF93948C0D9D1D2F813885C5
:101E00002F5F3F4F38872F8336E09312A7CF5BCFEA
:101E10006AEF64039001659F300D112420583F4FF5
:101E20002817390754F48C819D81DC01ED91FC91D8
:101E30000190F081E02D6AE0099581E090E028961C
:101E40000FB6F894DEBF0FBECDBFDF91CF911F91CB
:101E50000F91FF90EF90DF90CF90BF90AF909F9049
:101E60008F907F906F905F904F903F902F9008954C
:101E700008954F925F926F927F928F929F92AF924E
:101E8000BF92CF92DF92EF92FF920F931F93CF9367
:101E9000DF936C013B01102F38E0832E912C7A01E7
:101EA000FF24270193E0559447949A95E1F7CA01DE
:101EB00087709927892B41F5D6011796CD91DC9132
:101EC0001897C3019927BE010E9418194C9EF00172
:101ED0004D9EF00D5C9EF00D11249927D6011596AC
:101EE0004D915C9116978E0F9F1FFA01E80FF91F15
:101EF000111106C0C22FC09520812C23208327C03A
:101F0000C081C22BC08323C0C22FD0E04770A42E53
:101F1000B12C720183E0EE0CFF1C8A95E1F79E0163
:101F200001C0220F4A95EAF7012FA701B301C601AC
:101F30000E94390FC4018A199B0902C0D595C79523
:101F40008A95E2F72C2FA701485F5F4FA8CFDF915A
:101F5000CF911F910F91FF90EF90DF90CF90BF90A6
:101F6000AF909F908F907F906F905F904F9008956B
:101F70005F926F927F928F929F92AF92BF92CF9219
:101F8000DF92EF92FF920F931F93CF93DF93EC01B9
:101F90006A3061F48D859E859C878B872C898F851F
:101FA0009889820F911D988B8F8777C0CB84DC84B2
:101FB000693031F489E0C80ED11CDC86CB866DC057
:101FC0009DEFC9169FEFD90654F48B8990E00496D3
:101FD0002B853C85820F931F9C878B875EC08F81EA
:101FE0009885C816D9068CF7EF84F8888DEFE81627
:101FF0008FEFF80654F389859A85E816F9062CF7D1
:10200000603208F46FE780EE860F9FE9960F9A31F1
:1020100018F49FEFE91AF90A8C3011F08B3119F49A
:102020009FEFE91AF90A869594E0899F50011124DF
:10203000360184E0680E711C4601162F1170F40100
:10204000EC19FD09EA0DFB1DEC5CF64F84911111B2
:1020500003C08F70582E04C0582E52948FE058221F
:102060008C81882361F001E089899A89892B09F0A4
:1020700000E02FE0A701B401CE010E94390F0989C9
:10208000252DA701B401CE010E94390F9FEF891AB7
:10209000990A6814790499F698CF81E090E0DF916D
:1020A000CF911F910F91FF90EF90DF90CF90BF9055
:1020B000AF909F908F907F906F905F90089508955C
:1020C00080E090E00895EF92FF920F931F93CF93DB
:1020D000DF938C017B01C0E0D0E0F701EC0FFD1F26
:1020E0006491662361F0D801ED91FC910190F0813B
:1020F000E02DC8010995892B11F02196EECFCE0174
:10210000DF91CF911F910F91FF90EF9008952D9A3D
:102110000895BC0180E090E0AB01FC010E94FE0A42
:1021200041505109E109F10928F068517C4F8F4F66
:102130009F4FF6CFAB01FC010E94FE0A64177507A2
:102140008E079F07C8F308958FB18095807F669BA7
:1021500088601C9B846008950C949F1880E00C9408
:10216000FD070F930FB70F931F9211248F939F9327
:10217000EF93FF93E5E8F7E080918C0791E08D5FA6
:102180008D3710F08D57939580938C078081890F40
:1021900080839181911D91830281011D028383813E
:1021A000811D838309270F700927029500938B07F0
:1021B0003BD08111009389078C3A11F08C35A1F442
:1021C00000918A07901B963088F085538093000811
:1021D00080930108289828D0F1F788E198E080934F
:1021E000600090936000FFCF90938A0780917F07F3
:1021F000815020F080937F0787E741F3EBE7F7E01A
:102200008081918101968083918382819381811D58
:10221000911D82839383FF91EF919F918F911F90E6
:102220000F910FBF0F9118958FB18095807F669B9E
:1022300088601C9B8460089500D000D0CDB7DEB7C5
:10224000789484B5826084BD816084BD85B58260E8
:1022500085BD816085BD81E080936E00E1E8F0E09E
:10226000108282E0808381608083E0E880818160E9
:102270008083E1E980818260808381608083E0E9FE
:10228000808181608083E1EC8081846080838260D2
:10229000808381608083E3EC808181608083E0ECD7
:1022A000808182608083E2EC808181608083EAE7C4
:1022B0008081846080838260808381608083806885
:1022C00080831092F202109280071092F0028091A7
:1022D000D70081608093D70080EA8093D80089B5C9
:1022E000806189BD89B5826089BD09B400FEFDCFDA
:1022F0000E94A9098091D8008F7C80618093D800CA
:102300008091E000807F8093E0008091E1008E7EEC
:102310008093E1008DE08093E200559A209A81EC51
:1023200080937C0085B1806F85B984B1877E84B944
:1023300084B1876E84B95E9A5F988AB1806D8AB9DC
:10234000769A6E9881B3806F81BB899880B38D70C7
:1023500080BB80E58CBD81E08DBD85E090E00E9472
:1023600089105F9A85E090E00E9489105E985C98E1
:10237000ECE5F1E089E691E024912EBD00000DB47A
:1023800007FEFDCF31968E179F07B1F75C9A81E863
:1023900080936400809165008160809365008CE08B
:1023A00097E00E94AE100E94A41087FF1FC05C98A7
:1023B00085EA8EBD00000DB407FEFDCF5C9A2E9815
:1023C0002F982D9881E083BF889513BEFCCF2D9860
:1023D0000E94A4108478843871F00E94A410847143
:1023E000843131F188EC90E00E9489100E94A410A1
:1023F00082FDEDCF3AC00E94871088EC90E00E94E9
:1024000089102F9882E090E00E949F188F3F29F05A
:102410006FEF82E090E00E94A71884EF91E00E94A5
:1024200089102F9A0E94A41084788438D9F3D5CFCC
:102430000E94871088EC90E00E9489102E9882E01C
:1024400090E00E949F18882329F060E082E090E0ED
:102450000E94A71884EF91E00E9489102E9A0E9492
:10246000A41084718431D9F3BDCF0E94871082E01B
:1024700090E00E94AC10882319F03E9A3F9A02C067
:102480003E983F9881E090E00E94AC10182F1470A5
:1024900081FF41C011112E9840EF5FEF5A834983AD
:1024A0000E94A41086FF05C02E9A2F9A0E948710C2
:1024B00032C0112331F089819A81049711F42E9A48
:1024C0002F9881E00E94FD0700E128E54CEA50E0EA
:1024D00069817A8184E190E00E9432088CE097E083
:1024E0000E94AE108FE090E00E948910A981BA810D
:1024F0001196BA83A983599799F6112311F02F9A4F
:102500002D9880E991E00E9489100E94871088E050
:1025100097E00E94BC1782E390E00E9489100E941D
:10252000A4108111F8CF81E2809313078091640099
:102530008E7F8093640080917A00806480937A001B
:1025400080917A0086FDFCCFE0917800F0917900CF
:10255000FA83E9830E94FE0A49815A818A0120E0B8
:1025600030E0980111270027600F711F821F931F11
:10257000209164002160209364006115710581053C
:10258000910511F00E94961875E0672E712CE4E217
:102590002E2E312C412C512CFBE08F2E912CA12C76
:1025A000B12CAEE2EA2EF12C0E940E0810921A070E
:1025B0001092190710921807109217078FB7F89406
:1025C0004091850750918607609187077091880731
:1025D0008FBF80911407942F981B892F9091150716
:1025E000992329F0809316071092150731C4909112
:1025F0001307891748F48F5F891708F029C481E011
:1026000083BF889513BE24C481E08093150740934F
:10261000140780910F07909110070196909310076F
:1026200080930F078091EE02811134C00FE220E801
:1026300048EC54E060E070E080E090E00E943208F6
:10264000109218071092170782E390E090931A07F0
:102650008093190763EB74E088E097E00E946310B1
:102660000E94ED078CE097E00E94AE100E942608C1
:1026700088E00E941B088823C9F381E08093EE0262
:102680000E940E0810921A0710921907109218074C
:10269000109217078091EE02813009F097C01092D6
:1026A0000107109200071092FF061092FE0610928A
:1026B0000307109202076CE574E083EF96E00E9436
:1026C00063101092180710921707AEE1B0E0B093B4
:1026D0001A07A093190780E591E00E94F10780E6B0
:1026E00091E00E94F10782E791E00E94F1078FE7F5
:1026F00091E00E94F1078091ED0281110BC01092D0
:10270000180710921707EEE1F0E0F0931A07E09334
:10271000190720C0813039F410921807109217075A
:1027200086E290E013C0823049F4109218071092AC
:102730001707F0921A07E09219070CC0833051F482
:10274000109218071092170786E390E090931A07EB
:102750008093190789E891E00E940C088CE097E0CB
:102760000E94AE100E94260880E10E941B08882368
:1027700029F08091ED028F5F8093ED0280E80E9446
:102780001B08882329F08091ED0281508093ED028F
:102790008091ED02843010F01092ED0288E00E94EA
:1027A0001B08882399F08091ED02811102C082E01C
:1027B0000BC0813011F484E007C0823011F485E051
:1027C00003C0833019F486E08093EE028091EE021C
:1027D000863009F03FC01092010710920007109256
:1027E000FF061092FE0610920307109202078091D6
:1027F000EC02811106C067E773E083EF96E00E9468
:1028000063108091EC02813031F460E672E083EF76
:1028100096E00E9463108091EC02823031F46DEBFF
:1028200071E083EF96E00E9463108CE097E00E94D5
:10283000AE100E94260888E00E941B08882351F0F1
:102840008091EC028F5F8093EC02833018F081E07E
:102850008093EE028091EE02823009F029C18091CE
:102860000601882309F45AC06FED72E044EE52E08D
:10287000E8EEF2E098EC8CE39193DA011D92AD0161
:10288000DB018D93BD01B2E0EC3EFB07A9F704EE3E
:1028900012E0E8EEF2E0FA83E9830E944818A20110
:1028A00091010E94B518A981BA816D93BA83A98359
:1028B0000E944818A50194010E94B518DC01CB01C3
:1028C0000296A11DB11DF80181938F0149815A81A2
:1028D0004C5E524011F73091E8022091E902321724
:1028E000B1F29091EA02391791F28091EB02381718
:1028F00071F2291761F2281751F2981741F21092DC
:10290000DE021092DD021092E302709205016092E5
:1029100004011092060181E0809301010E940E08DB
:1029200010921A07109219071092180710921707A1
:1029300068EEC62E62E0D62E04EE12E0A1E0B0E012
:10294000BA83A98389819A810E94890980ED91E0E7
:102950000E940C08D601ED916D01F0E0EE0FFF1F13
:10296000E958FE4F859194910E940C08ECE3F0E049
:10297000F0931807E09317078BE891E00E940C088A
:10298000D8016D918D0170E080E090E04AE00E94F6
:1029900027090E94ED07E981FA813196FA83E983DC
:1029A000359781F60E94ED070E94ED0784E991E0DA
:1029B0000E940C088091E30290E001960E94930926
:1029C00080EA91E00E940C08809104019091050139
:1029D0000E94890989EA91E00E940C088091020115
:1029E000909103010E9489090E9426088CE097E0DB
:1029F0000E94AE1084E00E941B08882329F081E029
:102A00008093EE028093060188E00E941B088823D1
:102A100019F083E08093EE0280E80E941B0888236F
:102A200029F08091E3028F5F8093E30280E10E94AE
:102A30001B08882329F08091E30281508093E302F0
:102A400080E20E941B08882349F080910401909144
:102A500005010597909305018093040180E40E948D
:102A60001B08882349F08091040190910501059687
:102A700090930501809304018091040190910501D8
:102A80002091020130910301281739072CF430936B
:102A900005012093040106C097FF04C010920501B0
:102AA000109204018091E302843010F01092E3024E
:102AB0008091EE02833009F067C1E091E802F0E016
:102AC000EE0FFF1FE958FE4F859194910E94F10788
:102AD000E091E902F0E0EE0FFF1FE958FE4F85910B
:102AE00094910E94F107E091EA02F0E0EE0FFF1FDF
:102AF000E958FE4F859194910E94F107E091EB0215
:102B0000F0E0EE0FFF1FE958FE4F859194910E946F
:102B1000F1070E94260884E00E941B08882329F000
:102B200081E0809306018093EE028091DD028111A5
:102B300010C01092180710921707F0921A07E0922F
:102B4000190769E671E088E097E00E9463100E942F
:102B5000ED078091DD02811105C088E00E941B080D
:102B600081117EC18091DD02882309F409C1809121
:102B7000DE02811120C00FED12E01A821982D80105
:102B80008D918D0190E09093180780931707E9814C
:102B9000FA81F0931A07E09319078EEA91E00E94F8
:102BA0000C0849815A81485F5F4F5A8349834032FC
:102BB000510529F732C08831B0F50FED12E01A82C5
:102BC00019820E94481823E030E040E050E00E9463
:102BD000B518DC01CB010196A11DB11DF8012081C2
:102BE000622F680FD8016D938D0170E07093180704
:102BF00060931707E981FA81F0931A07E0931907A8
:102C00008EEA91E00E940C0849815A81485F5F4F2B
:102C10005A83498340325105A1F68091DE028F5FCD
:102C20008093DE02ADC08FED92E09A83898300E04D
:102C300010E0A981BA818D91BA83A98390E0909325
:102C400018078093170710931A07009319078EEA45
:102C500091E00E940C08EFEDF2E080E0D12C90E0D2
:102C60002191921710F4D82E922F8F5F8430C1F7E4
:102C70001092180710921707F0921A07E09219079E
:102C8000ED2DF0E0FC83EB83E851FD4FE081F0E0B7
:102C9000EE0FFF1FE958FE4F859194910E940C089A
:102CA00080EB91E00E94F1078091E3028D1143C017
:102CB00086EB91E00E940C084B815C814C515D4F8A
:102CC0005C834B83DA018C9190E0019620910401A2
:102CD00030910501FC01E29FC001E39F900DF29F3E
:102CE000900D11240E949309809101018823D1F055
:102CF000AB81BC818C9190E0019640910401509190
:102D00000501849F9001859F300D949F300D112403
:102D10008091020190910301280F391F3093030124
:102D20002093020110920101085F1F4F003211052C
:102D300009F07FCF25C08FEB91E00E940C088091B5
:102D40000401909105010E94890980910101882365
:102D500049F3809102019091030120910401309187
:102D60000501821B930B181619062CF4909303018E
:102D700080930201D7CF7092030160920201D2CFFB
:102D80008CE097E00E94AE108091EE02843009F052
:102D90005FC00E940E0810921A0710921907109235
:102DA0001807109217078091DC02811149C00E9418
:102DB0000E0810921A071092190710921807109215
:102DC00017078AEC91E00E940C086091000170E006
:102DD00080E090E04AE00E9427090E94ED078CE025
:102DE00097E00E94AE100E94260880E10E941B0816
:102DF000882329F08091000181508093000180E8B0
:102E00000E941B08882329F0809100018F5F809326
:102E10000001809100018A3018F085E08093000164
:102E200080910001853018F489E08093000188E0EA
:102E30000E941B08882361F081E08093DC0208C0B7
:102E400082ED91E00E94F1078CE097E00E94AE10C5
:102E500080E090E0892B09F4A7CB0E940000A4CB6E
:102E600081E08093DD027ECEEBE2F7E013821282F6
:102E700088EE93E0A0E0B0E084839583A683B783D7
:102E80008BE191E0918380838FEF9FEF958784871B
:102E9000E8E0F7E0138212821186128680E18387D0
:102EA00010861782158689E391E09183808387E4F9
:102EB00091E095838483108A1786128A118A81E0B3
:102EC000838B148A858B168AE3EFF6E013821282D5
:102ED0002DE231E03183208323EF32E036832583F6
:102EE00020E830E03087278320E430E032872187F4
:102EF00095E0948B838B16861586108A1786148628
:102F0000138681E090E0928B818B14820895DF928A
:102F1000EF92FF920F931F93CF93DF93D82EF92E4A
:102F2000E42E062F10E0C8010196880F0E949C0A2B
:102F300083E00E949C0ACD2DDF2D0C0F1D1FC017B2
:102F4000D10789F0E7FE03C0FE01849101C08881AA
:102F50000E949C0AF82E80E00E949C0A8F212196F4
:102F60008111EDCF01C081E0DF91CF911F910F91D1
:102F7000FF90EF90DF9008950F931F93CF93DF930F
:102F8000EC0181E090E00E94AC1080FF2EC08AE04E
:102F900090E00E94AC109FEF980F9E3F30F522E327
:102FA00030E0388B2F8728E330E03A8B298B0BE019
:102FB00010E0E881F9810190F081E02D682FCE01C9
:102FC0000995C8010E94AC100F5F1F4F0131110518
:102FD00081F7CE0104960E94AE1088EE93E0DF9157
:102FE000CF911F910F910C948910DF91CF911F9178
:102FF0000F91089504970C94BC178F929F92AF92F3
:10300000BF92CF92DF92EF92FF92CF93DF93EC01CA
:10301000688179818A819B8161157105810591059E
:1030200021F464E279ED8BE597E02DE133EF41E0A7
:1030300050E00E94B51849015A019B01AC01A7EA72
:10304000B1E40E94D4186B017C01ACEEB4EFA50191
:1030500094010E94E218DC01CB018C0D9D1DAE1D78
:10306000BF1DB7FF03C00197A109B04888839983AA
:10307000AA83BB83BC01CD019F77DF91CF91FF90E5
:10308000EF90DF90CF90BF90AF909F908F9008957A
:103090008F929F92AF92BF92CF92DF92EF92FF9268
:1030A00060911301709114018091150190911601A6
:1030B000611571058105910521F464E279ED8BE5D7
:1030C00097E02DE133EF41E050E00E94B51849014F
:1030D0005A019B01AC01A7EAB1E40E94D4186B012C
:1030E0007C01ACEEB4EFA50194010E94E218DC0172
:1030F000CB018C0D9D1DAE1DBF1DB7FF03C00197F9
:10310000A109B0488093130190931401A093150175
:10311000B0931601BC01CD019F77FF90EF90DF9037
:10312000CF90BF90AF909F908F90089560931301C0
:103130007093140180931501909316010895F999E5
:10314000FECF92BD81BDF89A992780B50895262FAC
:10315000F999FECF1FBA92BD81BD20BD0FB6F8947C
:10316000FA9AF99A0FBE01960895052E97FB1EF460
:1031700000940E94CC1857FD07D00E94E71807FC66
:1031800003D04EF40C94CC18509540953095219571
:103190003F4F4F4F5F4F0895909580957095619583
:1031A0007F4F8F4F9F4F08950E940919A59F900D43
:1031B000B49F900DA49F800D911D11240895B7FF19
:1031C0000C94D4180E94D418821B930B0895A1E28A
:1031D0001A2EAA1BBB1BFD010DC0AA1FBB1FEE1F91
:1031E000FF1FA217B307E407F50720F0A21BB30BDC
:1031F000E40BF50B661F771F881F991F1A9469F758
:1032000060957095809590959B01AC01BD01CF01B3
:103210000895A29FB001B39FC001A39F700D811DAF
:103220001124911DB29F700D811D1124911D0895CF
:1032300097FB072E16F4009407D077FD09D00E9463
:103240002C1907FC05D03EF4909581959F4F089569
:10325000709561957F4F0895AA1BBB1B51E107C074
:10326000AA1FBB1FA617B70710F0A61BB70B881F16
:10327000991F5A95A9F780959095BC01CD010895A5
:10328000EE0FFF1F0590F491E02D0994F894FFCF05
:103290000501640005000100E1000000000000FFDE
:1032A000FFFFFF0100000000000000B607BE09D7C5
:1032B00007CC07820A3A0B160B00000000B80FFB80
:1032C0000D60105F1000000000250EFB0D60105F08
:1032D00010BC17FCFF0000FA1700C180810000003D
:1032E00020204C697A61726420526163696E6700C4
:1032F00020204E696C626F677320526576656E6739
:10330000650020204F746865722047616D6500205C
:103310002043726564697473003E00204F646473D7
:1033200020313A00552F44204C697A6172643D0087
:103330004C2F52204265743D00206F6620007E00B5
:103340002077696E7300596F752057696E20005998
:103350006F75206C6F6F736520004D61696E203D45
:1033600020004D61696E20686173206265656E2082
:1033700063616C6C6564004976004A686F7800454B
:1033800064726573005572746869004F64687500F3
:1033900044756C7275727468004972746869004E85
:1033A000757268746963756E004E657469727265D2
:1033B000004C6F7274676F6E6B0052756465677254
:1033C0006F68005661657373005468616368657265
:1033D0006B004B6F72687469004E69726874790093
:1033E000426F73687500526570657374726900414D
:1033F000736861727500546F726B00536869736B08
:1034000000446F736B6F73004D61736C6F004F6797
:103410006765004F7465730044616C74656B68691F
:103420000054686F7468726963004C6F004573687C
:10343000004E616C7468697300457472696E005463
:10344000687572647973730054686172676F78008D
:1034500054686F67677900456769736F72740053CA
:0C34600074697374696E6B000D0A000043
:00000001FF
