:100000000C944A070C9472070C9472070C947207B4
:100010000C9472070C9472070C9472070C9472077C
:100020000C9472070C9472070C94D30A0C94450B31
:100030000C9472070C9472070C9472070C9472075C
:100040000C9472070C9472070C9472070C9472074C
:100050000C9472070C9472070C9472070C94440D64
:100060000C9472070C9472070C9472070C9472072C
:100070000C9472070C9472070C9472070C9472071C
:100080000C9472070C9472070C9472070C9472070C
:100090000C9472070C9472070C9472070C947207FC
:1000A0000C9472070C9472070C94720700B0000055
:1000B000A170E150964F26900F1D070C0096690025
:1000C0004AE44A0048444000806810000F99FB8FC2
:1000D0009DBDBBFB77D4D4DF1F1A1AFE7F5D5DFF89
:1000E000805A0000A0A4AA0010BA3400FF5953F3AC
:1000F000FF9B9B9EFFB9B996FF9595D19FF4940FF6
:10010000FC295F91FF1838F8FF9294FFFF95D5F70F
:10011000BFB5DDD7F18F81F1F788C8F779C6467989
:1001200009FD9B090196F80082818280507162006E
:100130007756560076763700A2B77301077206002D
:100140007827500073347400775176007F55F7009C
:1001500047711000324772007364730015A2750076
:1001600061679400009F6060F4F2F6F20000000006
:10017000003E5B4F5B3E3E6B4F6B3E1C3E7C3E1C2D
:10018000183C7E3C181C577D571C1C5E7F5E1C0073
:10019000183C1800FFE7C3E7FF0018241800FFE72A
:1001A000DBE7FF30483A060E2629792926407F05ED
:1001B0000507407F05253F5A3CE73C5A7F3E1C1C03
:1001C00008081C1C3E7F14227F22145F5F005F5FC3
:1001D00006097F017F006689956A606060606094AF
:1001E000A2FFA29408047E040810207E20100808B4
:1001F0002A1C08081C2A08081E101010100C1E0CBF
:100200001E0C30383E3830060E3E0E060000000050
:100210000000005F00000007000700147F147F1437
:10022000242A7F2A1223130864623649562050007C
:1002300008070300001C2241000041221C002A1C68
:100240007F1C2A08083E0808008070300008080853
:100250000808000060600020100804023E51494573
:100260003E00427F400072494949462141494D3391
:100270001814127F1027454545393C4A49493141F8
:10028000211109073649494936464949291E0000C6
:10029000140000004034000000081422411414141B
:1002A0001414004122140802015909063E415D5907
:1002B0004E7C1211127C7F494949363E4141412210
:1002C0007F4141413E7F494949417F090909013E3A
:1002D000414151737F0808087F00417F4100204061
:1002E000413F017F081422417F404040407F021C73
:1002F000027F7F0408107F3E4141413E7F0909098A
:10030000063E4151215E7F09192946264949493255
:1003100003017F01033F4040403F1F2040201F3F1B
:100320004038403F631408146303047804036159A0
:10033000494D43007F4141410204081020004141E2
:10034000417F04020102044040404040000307088E
:100350000020545478407F2844443838444444288A
:10036000384444287F385454541800087E09021831
:10037000A4A49C787F0804047800447D40002040B9
:10038000403D007F1028440000417F40007C0478FD
:1003900004787C080404783844444438FC18242445
:1003A0001818242418FC7C080404084854545424C5
:1003B00004043F44243C4040207C1C2040201C3C42
:1003C0004030403C44281028444C9090907C446439
:1003D000544C4400083641000000770000004136CC
:1003E000080002010204023C2623263C1EA1A16152
:1003F000123A4040207A3854545559215555794184
:100400002154547841215554784020545579400C5A
:100410001E5272123955555559395454545939553B
:100420005454580000457C410002457D420001457E
:100430007C40F0292429F0F0282528F07C545545EB
:10044000002054547C547C0A097F4932494949327E
:100450003248484832324A4848303A4141217A3A93
:1004600042402078009DA0A07D39444444393D405D
:1004700040403D3C24FF2424487E4943662B2FFC0A
:100480002F2BFF0929F620C0887E090320545479B8
:10049000410000447D413048484A32384040227A89
:1004A000007A0A0A727D0D19317D2629292F282606
:1004B0002929292630484D4020380808080808080E
:1004C0000808382F10C8ACBA2F102834FA00007B67
:1004D000000008142A142222142A1408950022006D
:1004E00095AA005500AAAA55AA55AA000000FF0027
:1004F000101010FF00141414FF001010FF00FF1064
:1005000010F010F0141414FC001414F700FF000095
:10051000FF00FF1414F404FC141417101F10101F14
:10052000101F1414141F00101010F0000000001F02
:10053000101010101F10101010F010000000FF100D
:100540001010101010101010FF10000000FF140009
:1005500000FF00FF00001F10170000FC04F414143B
:100560001710171414F404F40000FF00F714141407
:1005700014141414F700F7141414171410101F1087
:100580001F141414F4141010F010F000001F101FAA
:100590000000001F14000000FC140000F010F01018
:1005A00010FF10FF141414FF141010101F0000008F
:1005B00000F010FFFFFFFFFFF0F0F0F0F0FFFFFF93
:1005C0000000000000FFFF0F0F0F0F0F38444438EA
:1005D000447C2A2A3E147E02020606027E027E0225
:1005E00063554941633844443C04407E201E200644
:1005F000027E020299A5E7A5991C2A492A1C4C7281
:1006000001724C304A4D4D303048784830BC625A07
:10061000463D3E494949007E0101017E2A2A2A2A97
:100620002A44445F444440514A444040444A514073
:100630000000FF0103E080FF000008086B6B083634
:1006400012362436060F090F0600001818000000A5
:100650001010003040FF0101001F01011E00191D94
:100660001712003C3C3C3C0000000000F0F89C8E5F
:100670008783878E9CF8F00000FEFF0303030303CB
:10068000070EFCF80000FEFF0303030303070EFC44
:10069000F80000FFFF00000000000000FFFF000066
:1006A000FEFF8383838383C7EE7C380000F8FC0E53
:1006B00007030303070EFCF800003F7FE0C08080C3
:1006C000C0E07F3FFFFF01010101010101FFFF00C9
:1006D00000FFFF0C0C0C0C1C3E77E3C100007FFFF9
:1006E000C0C0C0C0C0E0703F1F00001F3F70E0C02E
:1006F000C0C0E0703F1F00007FFFC1C1C1C1C1E3A6
:10070000773E1C00001F3F70E0C0C0C0E0703F1F7C
:10071000000000000001FFFF01000000D5F08D1473
:10072000A1C881CFD9F1AF20004D6F6E737465728F
:100730006F706F6C697320697320610A66616275FE
:100740006C6F75732064657374696E6174696F6E24
:1007500020666F720A616C6C2077686F2068617622
:100760006520726963686573206F722077697368AA
:1007700020746F206265636F6D6520726963682EF7
:1007800020436F6D6520666F72206120737461670E
:10079000652073686F772C20706C617920696E20FA
:1007A00074686520636173696E6F2C207669736964
:1007B0007420746865206D61726B6574732E204CB3
:1007C0006F636174656420696E204E6F7274686532
:1007D000726E2046616572756E2C206A7573742086
:1007E000612073686F727420626F61742072696433
:1007F000652066726F6D204D6972616261722E2094
:100800004D6F6E737465726F706F6C697320776172
:100810007320666F756E6465642062792067726507
:1008200061742C2062756762656172207761726CF9
:100830006F726420476F726568756E6765722C20F1
:10084000667269656E64206F6620746865206477DF
:1008500061727665732C20616E6E6968696C617473
:100860006F72206F66207468652068696C6C206701
:1008700069616E74732C2068697320737761736883
:100880006275636B6C696E672062726F7468657203
:100890002047726567656B2C206E617669676174AD
:1008A0006F72206F662074686520736B6965732CA6
:1008B00020616E6420746865697220626F6F6E20BB
:1008C000636F6D70616E696F6E20536C6F6F702017
:1008D00074686520426F6E65204861727665737436
:1008E00065722C206F6620746865206C697A61726D
:1008F0006420666F6C6B2C20706172616D6F756E19
:1009000074206F662074686520626F6E6520636175
:1009100072766572732E2054686973207265736FE6
:1009200072742077617320696D6167696E656420F8
:10093000627920612042656E2C205279616E2C20F4
:10094000416E6472657720616E642044616E2C2074
:10095000612044756E67656F6E7320616E6420441C
:100960007261676F6E7320616476656E747572690B
:100970006E672067726F7570207768696C6520619B
:100980007474656D7074696E6720746F207361761E
:10099000652074686520776F726C642066726F6D75
:1009A00020746865207772617468206F66207468AF
:1009B00065206769616E74732E004845592C204785
:1009C0004F424C494E2C20594F5520574F524B20E7
:1009D00041540A54484520434153494E4F204E4FFD
:1009E000572E0A4D414B452054484520424F535302
:1009F0002048415050590A4259204D414B494E47D9
:100A0000204D4F4E45592C204F5220454C534521E7
:100A100000205072657373204120746F20436F6E05
:100A200074696E75650000E0E0C04060E0C0C040E1
:100A300040C0C0800000000000808080C0800000B6
:100A40000000008000000080800000000000000026
:100A500000000000000000000007FCFE0300000092
:100A60000000000000000000000000000000000086
:100A70000000000000000000000000000000000076
:100A80008000000000000000000080808000000066
:100A90000007FEFE00000000C6CFC60000008080F8
:100AA000C02060602000003F3F3F000020FF7F002B
:100AB0000000FFFF80000000FFFF800003FFFF0039
:100AC000000001FFFF030103FFFFFC00000038FCF2
:100AD000FE82C7C7E68000000101FFFF030200009D
:100AE000F0F80C3EFCE000001CFEF80C0E1E0C00A2
:100AF00000F8FC06061FFEF800000001FFFE0203DE
:100B000007FFFE000000FCFEFF010103FFFF0000E5
:100B10000000FFFF00000000FFFF4000000003276F
:100B2000766222231F0E000000000000000000007B
:100B300000000001000000000003070302010100A3
:100B40000000000F0F0600000F3F1F0000001038CC
:100B500079F060203F1F00000060FFFF40000000B0
:100B6000FFFF86030100000080FFFF8000000000FF
:100B7000007FFFE0C0403F1F00000038FFFF38301B
:100B8000100F0700000003070F0E0402030100000E
:100B9000000103010000000000010000000000004F
:100BA0000000000000000000000000000000000045
:100BB0000000000000000000000000000000000035
:100BC0000000000000000000000000000000000025
:100BD0000000000000000000000001010000000013
:100BE00003070100000000000107030000000000EF
:100BF0000000010100000000000000201F1F100085
:100C000000000000000000000000000000000000E4
:100C100000000000000000000000000000000000D4
:100C200000000000000000000000000000000000C4
:100C300000000000000000000000000000000000B4
:100C40000000000000000000000000008080C0C024
:100C5000C00000C0C04040C0C080000000008080D4
:100C600040C0C04000000000CCDE84000000C0C0D6
:100C70008080C0C0C08000000000808040C0C08074
:100C80000000000000000000000000000000000064
:100C90000000000000000000000000000000000054
:100CA0000000000000000000000000000000000044
:100CB0000000000000000000000000000000000034
:100CC00000000000000000000000003F7F7F2000C7
:100CD0000000003C7E6340607F7F000000002767CB
:100CE0006444663E1C0000007F7F20000000207FDF
:100CF0007F0000207F7F0000001F7F7060403F3F2B
:100D00001F000000000000000000000000000000C4
:100D100000000000000000000000000000000000D3
:100D200000000000000000000000000000000000C3
:100D300000000000000000000000000000000000B3
:100D400000000000000000000000000000000000A3
:100D50000000000000000000000000000000000093
:100D60000000000000000000000000000000000083
:100D70000000000000000000000000000000000073
:100D80000000000000000000000000000000000063
:100D90000000000000000000000000000000000053
:100DA0000000000000000000000000000000000043
:100DB0000000000000000000000000000000000033
:100DC0000000000000000000000000000000000023
:100DD0000000000000000000000000000000000013
:100DE0000000000000000000000000000000000003
:100DF00000000000000000000000000000000000F3
:100E000000000000000000000000000000000000E2
:100E100000000000000000000000000000000000D2
:100E2000000000000000080B00020202010009049B
:100E30000000010202000005240010010524010148
:100E400001042402060524060001070581031000A1
:100E50004009040100020A000000070502024000E8
:100E60000007058302400000040309041201000288
:100E7000EF0201404123368000010102030141726B
:100E80006475696E6F204C4C430041726475626FEB
:100E90007900B61311241FBECFEFDAE0DEBFCDBF5D
:100EA00011E0A0E0B1E0E8EAFAE202C005900D929C
:100EB000A838B107D9F726E0A8E8B1E001C01D9233
:100EC000A832B207E1F717E0CAE4D7E004C02197DF
:100ED000FE010E944C15C934D107C9F70E949B102E
:100EE0000C9452150C940000EF92FF920F931F93F5
:100EF000CF93DF938C017B01C0E0D0E0F701EC0FD2
:100F0000FD1F6491662361F0D801ED91FC91019081
:100F1000F081E02DC8010995892B11F02196EECFC3
:100F2000CE01DF91CF911F910F91FF90EF90089527
:100F3000CF92DF92EF92FF920F931F93CF93DF93A5
:100F40006C017A018B01C0E0D0E0CE15DF0581F0A5
:100F5000D8016D918D01D601ED91FC910190F08148
:100F6000E02DC6010995892B11F02196EECF7E0167
:100F7000C701DF91CF911F910F91FF90EF90DF900C
:100F8000CF9008952D9A0895BC0180E090E0AB01C8
:100F9000FC010E94890A41505109E109F10928F038
:100FA00068517C4F8F4F9F4FF6CFAB01FC010E94E1
:100FB000890A641775078E079F07C8F308958FB1D4
:100FC0008095807F669B88601C9B846008952F922B
:100FD0003F924F925F926F927F928F929F92AF92C9
:100FE000BF92CF92DF92EF92FF920F931F93CF9316
:100FF000DF93CDB7DEB728970FB6F894DEBF0FBEEC
:10100000CDBF9D838C836A30A1F4DC0155962C9171
:10101000559751968D919C915297B8E02B9F800DDA
:10102000911D1124EC81FD81928B818B108A178692
:10103000C6C06D3009F4C3C0AC81BD811F968D91CF
:101040009C91509780389105BCF0EC81FD812589F9
:10105000422F50E087859089F6E02F9F800D911DEB
:101060001124AC81BD8150969C938E931F97569608
:101070002C9121118FC0A3C0EC81FD81E188F28801
:10108000F0E4EF16F1040CF7AC81BD815596BC91EC
:10109000BE839C01E5E0BE9F200D311D1124121678
:1010A00013069CF6CB2ED12C970158E0B59F200D4E
:1010B000311D11241216130644F6AC81BD815496DD
:1010C0005C90549753964C90B5E06B9FF0011124BF
:1010D0009F0124593E4F38872F83912C30E1732E86
:1010E000EF81F8858490F5E09F1201C0812C870183
:1010F00028E0622E80FE02C0542D01C0552D5111F2
:1011000003C0541409F433C09C01F52FF170322E42
:10111000622F681B4E81641750F5B801A62FA01BE3
:101120005E81A51708F520383105D8F460347105C3
:10113000C0F45B01A501E1E041FDE4E040FDEE0FFC
:1011400042FDE295487F749ED0011124A30DBA831D
:10115000A983A056BE4FBC90BE2AF11101C0BE2685
:10116000BC926F5F7F4FDACF2F5F3F4FD0CF869417
:101170006A940C0D1D1D6110BDCF93948C0D9D1DA7
:101180002F8138852F5F3F4F38872F8336E09312AA
:10119000A7CF5BCF6AEF64039001659F300D1124E8
:1011A00020583F4F2817390754F48C819D81DC016A
:1011B000ED91FC910190F081E02D6AE0099581E0CC
:1011C00090E028960FB6F894DEBF0FBECDBFDF913A
:1011D000CF911F910F91FF90EF90DF90CF90BF9034
:1011E000AF909F908F907F906F905F904F903F90C7
:1011F0002F90089508954F925F926F927F928F92F1
:101200009F92AF92BF92CF92DF92EF92FF920F9395
:101210001F93CF93DF936C013B01102F38E0832E97
:10122000912C7A01FF24270193E0559447949A95D5
:10123000E1F7CA0187709927892B41F5D6011796E6
:10124000CD91DC911897C3019927BE010E94241506
:101250004C9EF0014D9EF00D5C9EF00D11249927DF
:10126000D60115964D915C9116978E0F9F1FFA012E
:10127000E80FF91F111106C0C22FC09520812C2341
:10128000208327C0C081C22BC08323C0C22FD0E0DF
:101290004770A42EB12C720183E0EE0CFF1C8A95DE
:1012A000E1F79E0101C0220F4A95EAF7012FA7013D
:1012B000B301C6010E94FB08C4018A199B0902C040
:1012C000D595C7958A95E2F72C2FA701485F5F4F08
:1012D000A8CFDF91CF911F910F91FF90EF90DF90FA
:1012E000CF90BF90AF909F908F907F906F905F90C6
:1012F0004F9008955F926F927F928F929F92AF92DC
:10130000BF92CF92DF92EF92FF920F931F93CF93F2
:10131000DF93EC016A3061F48D859E859C878B8715
:101320002C898F859889820F911D988B8F8777C024
:10133000CB84DC84693031F489E0C80ED11CDC86B2
:10134000CB866DC09DEFC9169FEFD90654F48B89EB
:1013500090E004962B853C85820F931F9C878B879A
:101360005EC08F819885C816D9068CF7EF84F888FF
:101370008DEFE8168FEFF80654F389859A85E81605
:10138000F9062CF7603208F46FE780EE860F9FE9CC
:10139000960F9A3118F49FEFE91AF90A8C3011F080
:1013A0008B3119F49FEFE91AF90A869594E0899F29
:1013B00050011124360184E0680E711C4601162F7D
:1013C0001170F401EC19FD09EA0DFB1DE455FF4F06
:1013D0008491111103C08F70582E04C0582E52945E
:1013E0008FE058228C81882361F001E089899A89F5
:1013F000892B09F000E02FE0A701B401CE010E9483
:10140000FB080989252DA701B401CE010E94FB0824
:101410009FEF891A990A6814790499F698CF81E0A8
:1014200090E0DF91CF911F910F91FF90EF90DF90AF
:10143000CF90BF90AF909F908F907F906F905F9074
:101440000895089580E090E008950C94AB144091C5
:10145000990150919A01209197013091980142177A
:101460005307B4F49091E8009570E1F39091E8008F
:1014700092FD19C08093F1008091990190919A0199
:1014800001968F739927892B19F48EEF8093E800CA
:101490008091990190919A01019690939A0180937D
:1014A000990181E0089580E00895DF92EF92FF9224
:1014B0000F931F93CF93DF93D82E8A017B01E40E05
:1014C000F51EEB01CE15DF0571F0D7FE03C0FE015E
:1014D000849101C088810E94270A21968111F2CF50
:1014E0008FEF9FEF01C0C801DF91CF911F910F9146
:1014F000FF90EF90DF900895615030F02091F1005F
:10150000FC0120830196F8CF289884E680939E0101
:101510000895A3E9B1E02FB7F8947D918D919C9146
:1015200066B52FBFA89B05C06F3F18F47F5F8F4F34
:101530009F4F22E0660F771F881F991F2A95D1F7CA
:1015400008950F931F93CF93DF931F92CDB7DEB70C
:1015500082E0898342E450E066E27EE080E80E9417
:10156000550A0E944210DC0112960D911C911397AE
:101570000115110589F0D801ED91FC910280F381EC
:10158000E02DBE016F5F7F4FC801099597FD04C034
:10159000F80100851185ECCF89810F90DF91CF9103
:1015A0001F910F9108951F920F920FB60F92112461
:1015B0008F939F938091E1009091E100937F9093AE
:1015C000E10083FF0FC01092E90091E09093EB00DF
:1015D0001092EC0092E39093ED0010929F0198E03E
:1015E0009093F00082FF20C093E09093E9009091E7
:1015F000F200992319F09AE39093E80090919C01EE
:10160000992339F090919C01915090939C019923DA
:1016100089F190919E01992339F090919E0191500A
:1016200090939E01992341F184FF10C08091E200C4
:101630008E7E81608093E2008091E1008F7E8093B6
:10164000E10080919D018E7E806111C080FF16C0F7
:101650008091E2008E7E80618093E2008091E100C3
:101660008E7E8093E10080919D018E7E81608093CB
:101670009D0104C05D9ACDCF289AD6CF9F918F91BE
:101680000F900FBE0F901F9018951F920F920FB6DC
:101690000F921124CF92DF92EF92FF920F931F933C
:1016A0002F933F934F935F936F937F938F939F936A
:1016B000AF93BF93EF93FF93CF93DF93CDB7DEB795
:1016C0006C97DEBFCDBF1092E9008091E80083FFE8
:1016D000BCC168E0CE0145960E947C0A82EF8093EF
:1016E000E8008D8987FF05C09091E80090FFFCCF4E
:1016F00003C09EEF9093E800982F907609F0C6C043
:101700009E894F89588D2F89F88C91110CC0803893
:1017100029F480918E018093F10002C01092F100B3
:101720001092F1008FC1913051F481118BC1413081
:10173000510509F087C180918E018D7F0BC09330D8
:1017400061F481117FC14130510509F07BC1809165
:101750008E01826080938E0175C1953049F480912D
:10176000E80080FFFCCF822F80688093E3006AC18D
:10177000963009F05EC00B8D1C8D22E01092E900BE
:1017800010929A0110929901F21232C010929801AF
:10179000109297010E94A10A99E0BE016F5F7F4FEE
:1017A000DB01E92F1D92EA95E9F79983FA8291E02E
:1017B0009E8390EA98879AEF9987209199013091BA
:1017C0009A01275F3F4F3C832B838D831092E90062
:1017D00010929A0110929901109398010093970129
:1017E00049E050E080E00E94550A0E94A10A2AC107
:1017F00010939801009397010E944210DC01129609
:101800000D911C9113970115110509F4BEC0D80163
:10181000ED91FC910480F581E02DBE016B5E7F4F60
:10182000C8010995009709F0ABC0F8010085118542
:10183000EACF973009F402C1983021F481E0809317
:10184000F10000C1993009F0FDC0837009F0F6C0C5
:10185000E1E1F1E081E031E096E32081211109C06E
:101860008EE78093EA001092EA008F8980939F01AF
:10187000E9C08093E9003093EB0021912093EC00C4
:101880009093ED008F5F873041F7EACF8B8D9C8D71
:101890001092E90010929A01109299019093980188
:1018A00080939701898D81114FC08E899D89913ACE
:1018B00049F4813209F0C2C047E050E064E071E0D1
:1018C00080E0B6C0913209F0B9C0833269F48F89E3
:1018D000988DA0E0B0E08093000190930101A09367
:1018E0000201B0930301AEC0803269F48091E80038
:1018F00082FFFCCF67E084E091E00E947C0A8BEFDE
:101900008093E80006C0823209F09CC08F898093E2
:101910000B018091040190910501A0910601B09105
:101920000701803B9440A105B10509F084C0809176
:101930000B0180FD80C088E780939B01809164004B
:101940008F7D809364007EC00E944210DC0112965D
:101950000D911C9113970115110509F46FC0D80161
:10196000ED91FC910190F081E02DBE016B5E7F4F07
:10197000C8010995811166C0F80100851185EBCF7A
:10198000181619060CF45EC059C0F1E0FF1609F4F0
:1019900046C0F3E0FF1252C08F89882309F442C089
:1019A000823029F440E867E08AE89EE006C0813092
:1019B00051F440E86BE08EE79EE00E94811388239B
:1019C00009F43CC03FC08330C9F50E944210DC01DD
:1019D0001296ED90FC9013978E010F5F1F4F6801D8
:1019E000E114F10479F0D701ED91FC910680F781C3
:1019F000E02DB801C7010995080F111DF701E0841A
:101A0000F184EECFD8011C92F60101900020E9F795
:101A10003197BF016C197D0940E0C601CECF6CE65D
:101A20007EE002C068E67EE0FB01449150E080E881
:101A30000E94550A07C010929B0104C081E2809366
:101A4000EB0003C08EEF8093E8006C960FB6F8941D
:101A5000DEBF0FBECDBFDF91CF91FF91EF91BF9160
:101A6000AF919F918F917F916F915F914F913F9136
:101A70002F911F910F91FF90EF90DF90CF900F90DB
:101A80000FBE0F901F9018950F930FB70F931F92D3
:101A900011248F939F93EF93FF93EAE8F1E08091F5
:101AA000920191E08D5F8D3710F08D579395809363
:101AB00092018081890F80839181911D91830281A0
:101AC000011D02838381811D838309270F700927EC
:101AD0000295009391013BD0811100938F018C3AC4
:101AE00011F08C35A1F400919001901B963088F094
:101AF00085538093000880930108289828D0F1F737
:101B000088E198E08093600090936000FFCF90930D
:101B1000900180919B01815020F080939B0187E789
:101B200041F3E3E9F1E08081918101968083918323
:101B300082819381811D911D82839383FF91EF9117
:101B40009F918F911F900F910FBF0F9118958FB19B
:101B50008095807F669B88601C9B8460089520919F
:101B60009F01211103C08FEF9FEF08955FB7F89495
:101B700022E02093E9002091F20030E012161306D3
:101B800014F421E030E0422FFC0184E6415038F0AB
:101B9000289880939E019091F1009193F7CF2115A1
:101BA000310521F08091F200882319F05FBFC9014F
:101BB00008958BE68093E800F9CF2FB7F89483E07F
:101BC0008093E9009091E800892F807295FF04C00E
:101BD0009091F20080E4891B2FBF0895CF93DF938B
:101BE0001F92CDB7DEB76983DC01ED91FC910280D5
:101BF000F381E02D41E050E0BE016F5F7F4F09951A
:101C00000F90DF91CF91089583E08093E900809158
:101C1000F200882319F08AE38093E80008950E9477
:101C2000DD0D90E00895CF93DF931F92CDB7DEB71F
:101C3000FC018485958597FD05C02FEF3FEF358723
:101C400024870BC0CE0101960E94AF0D019719F4B5
:101C5000898190E002C08FEF9FEF0F90DF91CF91CD
:101C600008950F931F93CF93DF931F92CDB7DEB7E5
:101C70008C01FC018485958597FF0EC0CE010196ED
:101C80000E94AF0D019719F4898190E002C08FEF97
:101C90009FEFF80195878487F801848595850F90DB
:101CA000DF91CF911F910F910895FC018485958557
:101CB00097FD0BC09FB7F89482E08093E900809174
:101CC000F2009FBF90E0019608959FB7F89482E0DC
:101CD0008093E9008091F2009FBF90E00895E0EAD0
:101CE000F1E0A0E0B8E000800EBC8111012C11975A
:101CF000A0FDFDCF0192B9F70DB4089580E0E0EAB0
:101D0000F1E081118FEF002481938193819381937E
:101D10000394D1F708952091BF05282329F49091C9
:101D2000BE05982381E009F480E00895009769F0EA
:101D3000FC0101900020E9F73197AF01481B590BD6
:101D4000BC0185EB95E00C94980780E090E0089545
:101D50002F923F924F925F926F927F928F929F92BB
:101D6000AF92BF92CF92DF92EF92FF920F931F93A9
:101D7000CF93DF93CDB7DEB72A970FB6F894DEBFC7
:101D80000FBECDBF5A01822E912C9401280F391F0E
:101D900037FDBAC0803891050CF0B6C09B01200F0A
:101DA000311D37FDB1C0603471050CF0ADC0AB0121
:101DB00077FF04C044275527461B570B477055270C
:101DC0009B0177FF02C0295F3F4FE3E035952795E0
:101DD000EA95E1F777FF08C02150310968E070E02B
:101DE000FB01E41BF50BAF01202E269426942694CC
:101DF000312C077019F0FFEF2F1A3F0A220E331E05
:101E000039017694762C662477946794680E791E4F
:101E1000E12CF12C00E010E0B30160587F4F7A878D
:101E2000698768E070E0FB01E41BF50BFA83E98346
:101E30002216330609F468C02830310509F464C05D
:101E40002F3FFFEF3F070CF454C0E985FA85E00F00
:101E5000F11FBF0160567E4F7C836B83D801A60DB6
:101E6000B71DA056BE4F6C0160E070E068157905A3
:101E70000CF03FC0E0E8CE16D10409F43AC0D7FC1C
:101E80002CC02F3FFFEF3F0709F43AC0FB01EE0DD6
:101E9000FF1DEA0DFB1DE491042E01C0EE0F0A9414
:101EA000EAF7FC91EF2BEC9341155105B1F0273087
:101EB000310599F0FB01EE0DFF1DEA0DFB1DE491CC
:101EC0004E2E512C098002C0559447940A94E2F793
:101ED000EB81FC815080452840826F5F7F4FEB8112
:101EE000FC813196FC83EB83FFEFCF1ADF0A11965A
:101EF000BDCF2F5F3F4F00581F4FE80CF91C98CF04
:101F000041155105B9F6E9CF2A960FB6F894DEBF10
:101F10000FBECDBFDF91CF911F910F91FF90EF903A
:101F2000DF90CF90BF90AF909F908F907F906F90F9
:101F30005F904F903F902F900895CF93DF930E9432
:101F4000960EEC0189E491E00E94960E8C0F9D1F85
:101F5000DF91CF910895E1E0F0E00E94890A319786
:101F600028F068517C4F8F4F9F4FF9CFAB01FC0198
:101F70000E94890A641775078E079F07C8F30895A2
:101F80008F929F92AF92BF92CF92DF92EF92FF9289
:101F90000F931F93CF93DF936C017B018A01809194
:101FA0000B01882309F458C080919F01882309F40C
:101FB00053C080919D0180FF05C08091E000826048
:101FC0008093E000E801B12C8AEFA82E93E0892EDF
:101FD0002AE3922E209711F4BB20B9F10E94DD0D67
:101FE000811106C0AA94AA20B9F10E94AB0FF2CFCA
:101FF000282F30E0C217D3070CF48C2F9FB7F8942A
:102000008092E9002091E80025FF1DC0282F30E0D4
:10201000C21BD30BF701815020F041914093F10096
:10202000FACFE20EF31EBB2019F09092E8000AC02E
:102030008091E80085FD07C09092E800BB24B3942E
:10204000209709F0B12C9FBFC5CF5D9884E680939F
:102050009C011016110644F081E090E0F601938394
:10206000828380E090E001C0C801DF91CF911F9191
:102070000F91FF90EF90DF90CF90BF90AF909F9027
:102080008F9008958091D00581110DC082E08093DA
:10209000CC0584E08093CD051092CF051092CE053B
:1020A00081E08093D0058CEC95E008950F931F9309
:1020B000CF93DF938C0181E090E00E94250A80FF9E
:1020C00032C08AE090E00E94250A9FEF980F9E3F61
:1020D00050F522E330E0D80150963C932E931F97A1
:1020E00028E330E052963C932E935197CBE0D0E01A
:1020F000D801ED91FC910190F081E02D682FC8018D
:102100000995CE010E94250A2196C131D10581F79A
:1021100080E00E946F0E88EE93E0DF91CF911F91D7
:102120000F910C94C407DF91CF911F910F910895E7
:1021300004970C945610789484B5826084BD8160B5
:1021400084BD85B5826085BD816085BD81E0809359
:102150006E00E1E8F0E0108282E08083816080839D
:10216000E0E8808181608083E1E980818260808312
:1021700081608083E0E9808181608083E1EC8081FF
:10218000846080838260808381608083E3EC8081CF
:1021900081608083E0EC808182608083E2EC8081DA
:1021A00081608083EAE780818460808382608083AD
:1021B000816080838068808310929F0110928E01DD
:1021C00010929D018091D70081608093D70080EAB2
:1021D0008093D80089B5806189BD89B5826089BD49
:1021E00009B400FEFDCF0E94AB0F8091D8008F7C18
:1021F00080618093D8008091E000807F8093E00030
:102200008091E1008E7E8093E1008DE08093E2007A
:10221000559A209A81EC80937C0085B1806F85B9B6
:1022200084B1877E84B984B1876E84B95E9A5F98E1
:102230008AB1806D8AB9769A6E9881B3806F81BBBE
:10224000899880B38D7080BB80E58CBD81E08DBDA9
:1022500085E090E00E94C4075F9A85E090E00E94CC
:10226000C4075E985C98ECE1F7E089E297E024917E
:102270002EBD00000DB407FEFDCF31968E179F07CF
:10228000B1F75C9A81E88093640080916500816079
:102290008093650080E00E946F0E0E94DF0787FF39
:1022A0001FC05C9885EA8EBD00000DB407FEFDCF0F
:1022B0005C9A2E982F982D9881E083BF889513BE45
:1022C000FCCF2D980E94DF078478843871F00E943B
:1022D000DF078471843131F188EC90E00E94C407FB
:1022E0000E94DF0782FDEDCF3AC00E94C20788EC52
:1022F00090E00E94C4072F9882E090E00E94AB1407
:102300008F3F29F06FEF82E090E00E94B31484EFDA
:1023100091E00E94C4072F9A0E94DF0784788438D6
:10232000D9F3D5CF0E94C20788EC90E00E94C40781
:102330002E9882E090E00E94AB14882329F060E0A0
:1023400082E090E00E94B31484EF91E00E94C40701
:102350002E9A0E94DF0784718431D9F3BDCF0E9489
:10236000C20782E090E00E94250A882319F03E9A75
:102370003F9A02C03E983F9881E090E00E94250A73
:10238000182F147081FF39C011112E98C0EFDFEFA4
:102390000E94DF0786FF05C02E9A2F9A0E94C2076F
:1023A0002CC0112329F0C430D10511F42E9A2F9896
:1023B00081E00E946F0E00E128E54CE656E0BE0188
:1023C00084E190E00E94A80E80E00E946F0E8FE0F2
:1023D00090E00E94C4072196C931D105C9F61123A6
:1023E00011F02F9A2D9880E991E00E94C4070E9475
:1023F000C20785EB95E00E94561082E390E00E94B0
:10240000C4070E94DF078111F8CF81E28093C005E5
:10241000809164008E7F8093640080917A00806454
:1024200080937A0080917A0086FDFCCFC09178007D
:10243000D09179000E94890A6E01E12CF12C76017D
:10244000DD24CC246C0D7D1D8E1D9F1D209164000C
:10245000216020936400611571058105910511F0DB
:102460000E94A21411E040E0642E40E0742ECEE100
:10247000D0E054E3E52EF12C6EE2C62ED12C76E2AC
:10248000A72EB12CE2E38E2E912C85E0582E94E0FD
:10249000492E23E0322E32E0232E0E947E0E10922F
:1024A000C7051092C6051092C5051092C4058FB7D6
:1024B000F89440918A0150918B0160918C01709148
:1024C0008D018FBF8091C105942F981B892F90910A
:1024D000C205992329F08093C3051092C2050AC151
:1024E0009091C005891740F48F5F891708F002C1E9
:1024F00013BF889513BEFEC01093C2054093C1055B
:102500008091BC059091BD0501969093BD05809387
:10251000BC0580918901811138C00FE220E846E2B4
:102520005AE060E070E080E090E00E94A80E109217
:10253000C5051092C4059092C7058092C60561E159
:102540007AE085EB95E00E94740789E491E00E94AF
:10255000960E80E00E946F0E8091BE058093BF05AD
:102560000E94DF078093BE0588E00E948B0E8823BF
:1025700099F3109389010E947E0E1092C705109264
:10258000C6051092C5051092C4058091890181305D
:1025900009F09AC01092AE051092AD051092AC05EC
:1025A0001092AB051092B0051092AF056AEB79E07E
:1025B00080EA95E00E9474071092C5051092C40548
:1025C000D093C705C093C6058CE491E00E949D0F8F
:1025D0008CE591E00E949D0F8EE691E00E949D0F98
:1025E0008BE791E00E949D0F80918801811109C0C5
:1025F0001092C5051092C405D093C705C093C605B7
:1026000020C0813049F41092C5051092C405B092E3
:10261000C705A092C60515C0823049F41092C505C1
:102620001092C405D092C705C092C6050AC0833077
:1026300041F41092C5051092C405F092C705E092CE
:10264000C60585E891E00E94960E80E00E946F0E1C
:102650008091BE058093BF050E94DF078093BE0571
:1026600080E10E948B0E882329F0809188018F5F82
:102670008093880180E80E948B0E882329F0809146
:10268000880181508093880180918801843010F006
:102690001092880188E00E948B0E8823A9F0809117
:1026A0008801811103C0209289010EC0813019F484
:1026B0003092890109C0823019F44092890104C026
:1026C000833011F45092890180918901853091F411
:1026D0001092AE051092AD051092AC051092AB05AC
:1026E0001092B0051092AF0569E277E080EA95E0BC
:1026F0000E9474076114710409F4CFCE0E94000097
:10270000C4CEDF92EF92FF920F931F93CF93DF938C
:10271000D82EF92EE42E062F10E0C8010196880F5E
:102720000E94270A83E00E94270ACD2DDF2D0C0F7F
:102730001D1FC017D10789F0E7FE03C0FE01849179
:1027400001C088810E94270AF82E80E00E94270A93
:102750008F2121968111EDCF01C081E0DF91CF91D2
:102760001F910F91FF90EF90DF900895E8EDF5E055
:102770001382128288EE93E0A0E0B0E08483958318
:10278000A683B7838BE191E0918380838FEF9FEFE6
:1027900095878487E5EBF5E0138212821186128615
:1027A00080E1838710861782158689E391E0918303
:1027B000808387E491E095838483108A1786128A48
:1027C000118A81E0838B148A858B168AE0EAF5E012
:1027D000138212822DE231E03183208320EA31E03E
:1027E0003683258320E830E03087278320E430E0FB
:1027F0003287218795E0948B838B16861586108A05
:1028000017861486138681E090E0928B818B148268
:1028100008958F929F92AF92BF92CF92DF92EF92E4
:10282000FF92CF93DF93EC01688179818A819B814C
:10283000611571058105910521F464E279ED8BE55F
:1028400097E02DE133EF41E050E00E94C1144901CF
:102850005A019B01AC01A7EAB1E40E94E0146B01AC
:102860007C01ACEEB4EFA50194010E94EE14DC01F2
:10287000CB018C0D9D1DAE1DBF1DB7FF03C0019781
:10288000A109B04888839983AA83BB83BC01CD0189
:102890009F77DF91CF91FF90EF90DF90CF90BF9027
:1028A000AF909F908F9008958F929F92AF92BF921A
:1028B000CF92DF92EF92FF9260910C0170910D0127
:1028C00080910E0190910F016115710581059105AF
:1028D00021F464E279ED8BE597E02DE133EF41E0FF
:1028E00050E00E94C11449015A019B01AC01A7EAC2
:1028F000B1E40E94E0146B017C01ACEEB4EFA501E1
:1029000094010E94EE14DC01CB018C0D9D1DAE1DC7
:10291000BF1DB7FF03C00197A109B04880930C0108
:1029200090930D01A0930E01B0930F01BC01CD0156
:102930009F77FF90EF90DF90CF90BF90AF909F90E8
:102940008F90089560930C0170930D0180930E0198
:1029500090930F010895F999FECF92BD81BDF89A29
:10296000992780B50895262FF999FECF1FBA92BDF9
:1029700081BD20BD0FB6F894FA9AF99A0FBE019660
:102980000895052E97FB1EF400940E94D81457FD5D
:1029900007D00E94F31407FC03D04EF40C94D81413
:1029A00050954095309521953F4F4F4F5F4F08957B
:1029B00090958095709561957F4F8F4F9F4F0895AB
:1029C0000E941515A59F900DB49F900DA49F800D9A
:1029D000911D11240895B7FF0C94E0140E94E01497
:1029E000821B930B0895A1E21A2EAA1BBB1BFD01AB
:1029F0000DC0AA1FBB1FEE1FFF1FA217B307E407DE
:102A0000F50720F0A21BB30BE40BF50B661F771F35
:102A1000881F991F1A9469F7609570958095909515
:102A20009B01AC01BD01CF010895A29FB001B39FEE
:102A3000C001A39F700D811D1124911DB29F700DC7
:102A4000811D1124911D089597FB072E16F4009403
:102A500007D077FD09D00E94381507FC05D03EF459
:102A6000909581959F4F0895709561957F4F08953A
:102A7000AA1BBB1B51E107C0AA1FBB1FA617B707A4
:102A800010F0A61BB70B881F991F5A95A9F78095C0
:102A90009095BC01CD010895EE0FFF1F0590F491B4
:082AA000E02D0994F894FFCF2A
:102AA800FFFFFFFF00E10000000000000100000040
:102AB80000C1808100000000000000EE0DC00F0F73
:102AC8000E040E550E130E310E000000007A099800
:102AD80007220A210A00000000E7079807220A21B6
:102AE8000A5610FCFF000098100D0A0020204C69BF
:102AF8007A61726420526163696E670020204E69B2
:102B08006C626F677320526576656E67650020207A
:102B18004F746865722047616D65002020437265B7
:082B280064697473003E0000B3
:00000001FF
