:100000000C947C070C94A4070C94A4070C94A407EC
:100010000C94A4070C94A4070C94A4070C94A407B4
:100020000C94A4070C94A4070C9452080C94C408D4
:100030000C94A4070C94A4070C94A4070C94A40794
:100040000C94A4070C94A4070C94A4070C94A40784
:100050000C94A4070C94A4070C94A4070C94C30A52
:100060000C94A4070C94A4070C94A4070C94A40764
:100070000C94A4070C94A4070C94A4070C94A40754
:100080000C94A4070C94A4070C94A4070C94A40744
:100090000C94A4070C94A4070C94A4070C94A40734
:1000A0000C94A4070C94A4070C94A407F0F89C8E5D
:1000B0008783878E9CF8F00000FEFF030303030391
:1000C000070EFCF80000FEFF0303030303070EFC0A
:1000D000F80000FFFF00000000000000FFFF00002C
:1000E000FEFF8383838383C7EE7C380000F8FC0E19
:1000F00007030303070EFCF800003F7FE0C0808089
:10010000C0E07F3FFFFF01010101010101FFFF008E
:1001100000FFFF0C0C0C0C1C3E77E3C100007FFFBE
:10012000C0C0C0C0C0E0703F1F00001F3F70E0C0F3
:10013000C0C0E0703F1F00007FFFC1C1C1C1C1E36B
:10014000773E1C00001F3F70E0C0C0C0E0703F1F42
:10015000000000000001FFFF01000000D5F08D1439
:10016000A1C881CFD9F1AF200050726573732041CF
:1001700020746F20476F009F01A201A701AD01B35A
:1001800001B801C101C701D101D901E201E801EEC5
:1001900001F701FE0105020B0214021B02200226D8
:1001A000022D02330238023D0246024F025202562D
:1001B000025E0264026D0275027C0284028D0254AA
:1001C000484953205245534F5254205741532049D8
:1001D0004D4147494E45440A425920412042454E2F
:1001E0002C205259414E2C20414E445245570A4131
:1001F0004E442044414E2C20412044554E47454F0B
:100200004E5320414E440A445241474F4E532041E1
:100210004456454E545552494E470A47524F555041
:10022000205748494C4520415454454D5054494E5F
:100230004720544F0A534156452054484520574FB4
:10024000524C442046524F4D205448450A57524183
:100250005448204F4620544845204749414E545366
:100260002E004D4F4E535445524F504F4C49532042
:100270005741530A464F554E444544204259204762
:10028000524541542C0A425547424541522057415C
:10029000524C4F52440A474F524548554E474552DB
:1002A0002C20465249454E44204F460A544845208A
:1002B000445741525645532C20414E4E4948494CD3
:1002C00041544F520A4F46205448452048494C4C0F
:1002D000204749414E54532C204849530A53574113
:1002E00053484255434B4C494E472042524F544885
:1002F00045520A47524547454B2C204E41564947E7
:1003000041544F52204F46205448450A534B4945CB
:10031000532C20414E4420544845495220424F4FCF
:100320004E0A434F4D50414E494F4E20534C4F4F74
:10033000502054484520424F4E450A4841525645A8
:10034000535445522C204F4620544845204C495A7E
:100350004152440A464F4C4B2C20504152414D4F84
:10036000554E54204F46205448450A424F4E452092
:10037000434152564552532E004D4F4E5354455211
:100380004F504F4C49532049532041200A46414287
:10039000554C4F55532044455354494E4154494FB1
:1003A0004E20464F520A414C4C2057484F2048415E
:1003B000564520524943484553204F520A57495306
:1003C0004820544F204245434F4D45205249434811
:1003D0002E20434F4D450A464F5220412053544151
:1003E00047452053484F572C20504C415920494EE7
:1003F0000A54484520434153494E4F2C20564953F7
:100400004954205448450A4D41524B4554532E20DF
:10041000434F4E5645494E454E544C590A4C4F4356
:100420004154454420494E204E4F52544845524E67
:100430000A46414552554E2C204A555354204120DE
:1004400053484F525420424F41540A524944452088
:1004500046524F4D204D4952414241522E0048458F
:10046000592C20474F424C494E2C20594F5520576C
:100470004F524B2041540A54484520434153494E62
:100480004F204E4F572E0A4D414B45205448452092
:10049000424F53532048415050590A4259204D4130
:1004A0004B494E47204D4F4E45592C204F52204529
:1004B0004C53452100205072657373204120746FA6
:1004C00020436F6E74696E75650000E0E0C04060A7
:1004D000E0C0C04040C0C0800000000000808080BC
:1004E000C08000000000008000000080800000004C
:1004F0000000000000000000000000000007FCFEFB
:1005000003000000000000000000000000000000E8
:1005100000000000000000000000000000000000DB
:10052000000000008000000000000000000080804B
:10053000800000000007FEFE00000000C6CFC600DD
:1005400000008080C02060602000003F3F3F00002E
:1005500020FF7F000000FFFF80000000FFFF800001
:1005600003FFFF00000001FFFF030103FFFFFC008A
:10057000000038FCFE82C7C7E68000000101FFFFD3
:1005800003020000F0F80C3EFCE000001CFEF80C3A
:100590000E1E0C0000F8FC06061FFEF8000000010D
:1005A000FFFE020307FFFE000000FCFEFF01010347
:1005B000FFFF00000000FFFF00000000FFFF400001
:1005C00000000327766222231F0E000000000000B7
:1005D000000000000000000100000000000307030D
:1005E000020101000000000F0F0600000F3F1F0076
:1005F0000000103879F060203F1F00000060FFFF0E
:1006000040000000FFFF86030100000080FFFF8024
:1006100000000000007FFFE0C0403F1F00000038E6
:10062000FFFF3830100F0700000003070F0E040211
:1006300003010000000103010000000000010000B0
:1006400000000000000000000000000000000000AA
:10065000000000000000000000000000000000009A
:10066000000000000000000000000000000000008A
:100670000000000000000000000000000000010178
:100680000000000003070100000000000107030054
:100690000000000000000101000000000000002038
:1006A0001F1F1000000000000000000000000000FC
:1006B000000000000000000000000000000000003A
:1006C000000000000000000000000000000000002A
:1006D000000000000000000000000000000000001A
:1006E000000000000000000000000000000000000A
:1006F0008080C0C0C00000C0C04040C0C0800000BA
:100700000000808040C0C04000000000CCDE8400BB
:100710000000C0C08080C0C0C08000000000808099
:1007200040C0C08000000000000000000000000089
:1007300000000000000000000000000000000000B9
:1007400000000000000000000000000000000000A9
:100750000000000000000000000000000000000099
:100760000000000000000000000000000000003F4A
:100770007F7F20201000003C7E6340607F7F000070
:10078000000027676444663E1C0000007F7F200055
:100790000000207F7F0000207F7F0000001F7F700F
:1007A00060403F3F1F00000000000000000000000C
:1007B0000000000000000000000000000000000039
:1007C0000000000000000000000000000000000029
:1007D0000000000000000000000000000000000019
:1007E0000000000000000000000000000000000009
:1007F00000000000000000000000000000000000F9
:1008000000000000000000000000000000000000E8
:1008100000000000000000000000000000000000D8
:1008200000000000000000000000000000000000C8
:1008300000000000000000000000000000000000B8
:1008400000000000000000000000000000000000A8
:100850000000000000000000000000000000000098
:100860000000000000000000000000000000000088
:100870000000000000000000000000000000000078
:100880000000000000000000000000000000000068
:100890000000000000000000000000000000000058
:1008A0000000000000000000000000000000000048
:1008B0000000000000000000000000000000000038
:1008C00000000000000000000000080B000202020F
:1008D00001000904000001020200000524001001CB
:1008E0000524010101042402060524060001070570
:1008F000810310004009040100020A0000000705FE
:1009000002024000000705830240000004030904BE
:1009100012010002EF020140412336800001010272
:10092000030141726475696E6F204C4C4300417243
:100930006475626F790000B00000A170E150964FBD
:1009400026900F1D070C009669004AE44A004844AF
:100950004000806810000F99FB8F9DBDBBFB77D4D2
:10096000D4DF1F1A1AFE7F5D5DFF805A0000A0A42D
:10097000AA0010BA3400FF5953F3FF9B9B9EFFB9A6
:10098000B996FF9595D19FF4940FFC295F91FF18BC
:1009900038F8FF9294FFFF95D5F7BFB5DDD7F18FFB
:1009A00081F1F788C8F779C6467909FD9B09019658
:1009B000F800828182805071620077565600767608
:1009C0003700A2B77301077206007827500073340E
:1009D0007400775176007F55F70047711000324759
:1009E00072007364730015A2750061679400009F24
:1009F0006060F4F2F6F200000000003E5B4F5B3EE8
:100A00003E6B4F6B3E1C3E7C3E1C183C7E3C181CD3
:100A1000577D571C1C5E7F5E1C00183C1800FFE7CA
:100A2000C3E7FF0018241800FFE7DBE7FF30483A70
:100A3000060E2629792926407F050507407F0525D2
:100A40003F5A3CE73C5A7F3E1C1C08081C1C3E7F5A
:100A500014227F22145F5F005F5F06097F017F0021
:100A60006689956A606060606094A2FFA294080441
:100A70007E040810207E201008082A1C08081C2A62
:100A800008081E101010100C1E0C1E0C30383E38BA
:100A900030060E3E0E06000000000000005F000061
:100AA0000007000700147F147F14242A7F2A1223D2
:100AB0001308646236495620500008070300001CE2
:100AC0002241000041221C002A1C7F1C2A08083EEB
:100AD00008080080703000080808080800006060FE
:100AE0000020100804023E5149453E00427F40006C
:100AF00072494949462141494D331814127F102744
:100B0000454545393C4A4949314121110907364992
:100B1000494936464949291E000014000000403466
:100B2000000000081422411414141414004122146B
:100B30000802015909063E415D594E7C1211127C92
:100B40007F494949363E414141227F4141413E7FF3
:100B5000494949417F090909013E414151737F08D3
:100B600008087F00417F41002040413F017F081479
:100B700022417F404040407F021C027F7F040810DA
:100B80007F3E4141413E7F090909063E4151215EB8
:100B90007F09192946264949493203017F01033F4C
:100BA0004040403F1F2040201F3F4038403F6314DB
:100BB00008146303047804036159494D43007F41DD
:100BC00041410204081020004141417F040201021A
:100BD000044040404040000307080020545478403F
:100BE0007F284444383844444428384444287F38D3
:100BF0005454541800087E090218A4A49C787F0855
:100C000004047800447D40002040403D007F1028CF
:100C1000440000417F40007C047804787C08040490
:100C2000783844444438FC1824241818242418FC28
:100C30007C08040408485454542404043F44243CCD
:100C40004040207C1C2040201C3C4030403C44283C
:100C50001028444C9090907C4464544C44000836D6
:100C60004100000077000000413608000201020444
:100C7000023C2623263C1EA1A161123A4040207A64
:100C800038545455592155557941215454784121AE
:100C90005554784020545579400C1E5272123955E3
:100CA00055555939545454593955545458000045E0
:100CB0007C410002457D420001457C40F029242909
:100CC000F0F0282528F07C545545002054547C54DD
:100CD0007C0A097F49324949493232484848323210
:100CE0004A4848303A4141217A3A42402078009DB2
:100CF000A0A07D39444444393D4040403D3C24FF60
:100D00002424487E4943662B2FFC2F2BFF0929F60C
:100D100020C0887E090320545479410000447D415D
:100D20003048484A32384040227A007A0A0A727DB6
:100D30000D19317D2629292F2826292929263048D1
:100D40004D4020380808080808080808382F10C83F
:100D5000ACBA2F102834FA00007B000008142A14C3
:100D60002222142A14089500220095AA005500AAF0
:100D7000AA55AA55AA000000FF00101010FF001489
:100D80001414FF001010FF00FF1010F010F01414E6
:100D900014FC001414F700FF0000FF00FF1414F40B
:100DA00004FC141417101F10101F101F1414141F0C
:100DB00000101010F0000000001F101010101F1085
:100DC000101010F010000000FF1010101010101084
:100DD0001010FF10000000FF140000FF00FF0000D3
:100DE0001F10170000FC04F414141710171414F447
:100DF00004F40000FF00F714141414141414F70082
:100E0000F7141414171410101F101F141414F414D2
:100E10001010F010F000001F101F0000001F140041
:100E20000000FC140000F010F01010FF10FF14146C
:100E300014FF141010101F00000000F010FFFFFF3F
:100E4000FFFFF0F0F0F0F0FFFFFF0000000000FFF8
:100E5000FF0F0F0F0F0F38444438447C2A2A3E14EA
:100E60007E02020606027E027E0263554941633815
:100E700044443C04407E201E2006027E020299A5C6
:100E8000E7A5991C2A492A1C4C7201724C304A4D24
:100E90004D303048784830BC625A463D3E49494959
:100EA000007E0101017E2A2A2A2A2A44445F444402
:100EB00040514A444040444A51400000FF0103E091
:100EC00080FF000008086B6B083612362436060FC8
:100ED000090F06000018180000001010003040FF35
:100EE0000101001F01011E00191D1712003C3C3CAE
:100EF0003C0000000000F91411241FBECFEFDAE01F
:100F0000DEBFCDBF12E0A0E0B1E0E0EBFDE202C049
:100F100005900D92A639B107D9F727E0A6E9B2E00E
:100F200001C01D92A933B207E1F717E0CCE7D7E083
:100F300004C02197FE010E94D016CB37D107C9F714
:100F40000E948B100C94D6160C9400004091AA02BB
:100F50005091AB022091A8023091A9024217530789
:100F6000B4F49091E8009570E1F39091E80092FD5F
:100F700019C08093F1008091AA029091AB02019672
:100F80008F739927892B19F48EEF8093E800809155
:100F9000AA029091AB0201969093AB028093AA02B1
:100FA00081E0089580E00895DF92EF92FF920F9321
:100FB0001F93CF93DF93D82E8A017B01E40EF51E99
:100FC000EB01CE15DF0571F0D7FE03C0FE01849161
:100FD00001C088810E94A60721968111F2CF8FEF70
:100FE0009FEF01C0C801DF91CF911F910F91FF903A
:100FF000EF90DF900895615030F02091F100FC01F6
:1010000020830196F8CF289884E68093AF02089554
:10101000A4EAB2E02FB7F8947D918D919C9166B5CA
:101020002FBFA89B05C06F3F18F47F5F8F4F9F4F66
:1010300022E0660F771F881F991F2A95D1F7089520
:101040000F931F93CF93DF931F92CDB7DEB782E04C
:10105000898342E450E06AEC78E080E80E94D4079B
:101060000E94C10DDC0112960D911C911397011580
:10107000110589F0D801ED91FC910280F381E02DFA
:10108000BE016F5F7F4FC801099597FD04C0F8014D
:1010900000851185ECCF89810F90DF91CF911F9151
:1010A0000F9108951F920F920FB60F9211248F93F4
:1010B0009F938091E1009091E100937F9093E100F4
:1010C00083FF0FC01092E90091E09093EB00109223
:1010D000EC0092E39093ED001092B00298E09093B0
:1010E000F00082FF20C093E09093E9009091F2001D
:1010F000992319F09AE39093E8009091AD02992317
:1011000039F09091AD0291509093AD02992389F1FD
:101110009091AF02992339F09091AF029150909342
:10112000AF02992341F184FF10C08091E2008E7ECE
:1011300081608093E2008091E1008F7E8093E100E6
:101140008091AE028E7E806111C080FF16C08091BA
:10115000E2008E7E80618093E2008091E1008E7ECD
:101160008093E1008091AE028E7E81608093AE021A
:1011700004C05D9ACDCF289AD6CF9F918F910F90C2
:101180000FBE0F901F9018951F920F920FB60F92DF
:101190001124CF92DF92EF92FF920F931F932F9320
:1011A0003F934F935F936F937F938F939F93AF93EF
:1011B000BF93EF93FF93CF93DF93CDB7DEB76C97D9
:1011C000DEBFCDBF1092E9008091E80083FFBCC173
:1011D00068E0CE0145960E94FB0782EF8093E8000D
:1011E0008D8987FF05C09091E80090FFFCCF03C078
:1011F0009EEF9093E800982F907609F0C6C09E89E4
:101200004F89588D2F89F88C91110CC0803829F4A2
:1012100080919F028093F10002C01092F100109221
:10122000F1008FC1913051F481118BC141305105D2
:1012300009F087C180919F028D7F0BC0933061F4CC
:1012400081117FC14130510509F07BC180919F021E
:10125000826080939F0275C1953049F48091E800C7
:1012600080FFFCCF822F80688093E3006AC19630B4
:1012700009F05EC00B8D1C8D22E01092E9001092E7
:10128000AB021092AA02F21232C01092A90210927E
:10129000A8020E94200899E0BE016F5F7F4FDB012A
:1012A000E92F1D92EA95E9F79983FA8291E09E83EE
:1012B00090EA98879AEF99872091AA023091AB0221
:1012C000275F3F4F3C832B838D831092E900109260
:1012D000AB021092AA021093A9020093A80249E05F
:1012E00050E080E00E94D4070E9420082AC1109399
:1012F000A9020093A8020E94C10DDC0112960D9173
:101300001C9113970115110509F4BEC0D801ED9188
:10131000FC910480F581E02DBE016B5E7F4FC8011A
:101320000995009709F0ABC0F80100851185EACF57
:10133000973009F402C1983021F481E08093F100E4
:1013400000C1993009F0FDC0837009F0F6C0E9E1F1
:10135000F1E081E031E096E32081211109C08EE7C0
:101360008093EA001092EA008F898093B002E9C06E
:101370008093E9003093EB0021912093EC0090934F
:10138000ED008F5F873041F7EACF8B8D9C8D1092F7
:10139000E9001092AB021092AA029093A9028093E6
:1013A000A802898D81114FC08E899D89913A49F497
:1013B000813209F0C2C047E050E06CE071E080E0AB
:1013C000B6C0913209F0B9C0833269F48F89988D23
:1013D000A0E0B0E08093080190930901A0930A0176
:1013E000B0930B01AEC0803269F48091E80082FFB7
:1013F000FCCF67E08CE091E00E94FB078BEF8093CD
:10140000E80006C0823209F09CC08F8980931301E6
:1014100080910C0190910D01A0910E01B0910F01EE
:10142000803B9440A105B10509F084C0809113016F
:1014300080FD80C088E78093AC02809164008F7D3E
:10144000809364007EC00E94C10DDC0112960D9154
:101450001C9113970115110509F46FC0D801ED9186
:10146000FC910190F081E02DBE016B5E7F4FC801C1
:101470000995811166C0F80100851185EBCF18161A
:1014800019060CF45EC059C0F1E0FF1609F446C01D
:10149000F3E0FF1252C08F89882309F442C08230E2
:1014A00029F440E867E08EE299E006C0813051F40B
:1014B00040E86BE082E299E00E94C414882309F4BA
:1014C0003CC03FC08330C9F50E94C10DDC011296BB
:1014D000ED90FC9013978E010F5F1F4F6801E11490
:1014E000F10479F0D701ED91FC910680F781E02DB0
:1014F000B801C7010995080F111DF701E084F184B7
:10150000EECFD8011C92F60101900020E9F7319747
:10151000BF016C197D0940E0C601CECF60E179E0E2
:1015200002C06CE079E0FB01449150E080E80E9449
:10153000D40707C01092AC0204C081E28093EB0094
:1015400003C08EEF8093E8006C960FB6F894DEBF70
:101550000FBECDBFDF91CF91FF91EF91BF91AF91C2
:101560009F918F917F916F915F914F913F912F91BB
:101570001F910F91FF90EF90DF90CF900F900FBED3
:101580000F901F9018950F930FB70F931F92112470
:101590008F939F93EF93FF93EBE9F2E08091A30287
:1015A00091E08D5F8D3710F08D5793958093A30256
:1015B0008081890F80839181911D91830281011D1A
:1015C00002838381811D838309270F700927029578
:1015D0000093A2023BD081110093A0028C3A11F03B
:1015E0008C35A1F40091A102901B963088F08553B0
:1015F0008093000880930108289828D0F1F788E1AB
:1016000098E08093600090936000FFCF9093A102D8
:101610008091AC02815020F08093AC0287E741F3C7
:10162000E4EAF2E080819181019680839183828156
:101630009381811D911D82839383FF91EF919F91EF
:101640008F911F900F910FBF0F9118958FB18095BB
:10165000807F669B88601C9B846008952091B00207
:10166000211103C08FEF9FEF08955FB7F89422E038
:101670002093E9002091F20030E01216130614F4D2
:1016800021E030E0422FFC0184E6415038F02898F8
:101690008093AF029091F1009193F7CF211531051E
:1016A00021F08091F200882319F05FBFC9010895ED
:1016B0008BE68093E800F9CF2FB7F89483E080930E
:1016C000E9009091E800892F807295FF04C0909105
:1016D000F20080E4891B2FBF0895CF93DF931F9200
:1016E000CDB7DEB76983DC01ED91FC910280F38117
:1016F000E02D41E050E0BE016F5F7F4F09950F90F4
:10170000DF91CF91089583E08093E9008091F2000A
:10171000882319F08AE38093E80008950E945C0B07
:1017200090E00895CF93DF931F92CDB7DEB7FC0111
:101730008485958597FD05C02FEF3FEF358724877A
:101740000BC0CE0101960E942E0B019719F48981DE
:1017500090E002C08FEF9FEF0F90DF91CF9108953F
:101760000F931F93CF93DF931F92CDB7DEB78C01FA
:10177000FC018485958597FF0EC0CE0101960E94DD
:101780002E0B019719F4898190E002C08FEF9FEF33
:10179000F80195878487F801848595850F90DF91FE
:1017A000CF911F910F910895FC018485958597FD38
:1017B0000BC09FB7F89482E08093E9008091F2001B
:1017C0009FBF90E0019608959FB7F89482E08093C0
:1017D000E9008091F2009FBF90E00895009769F0C2
:1017E000FC0101900020E9F73197AF01481B590B2C
:1017F000BC0186EC96E00C94D50D80E090E0089555
:10180000E1EBF2E0A0E0B8E000800EBC8111012C19
:101810001197A0FDFDCF0192B9F70DB4089580E0B6
:10182000E1EBF2E081118FEF0024819381938193AA
:1018300081930394D1F708952091D006282329F4A9
:101840009091CF06982381E009F480E008952F92CB
:101850003F924F925F926F927F928F929F92AF9240
:10186000BF92CF92DF92EF92FF920F931F93CF938D
:10187000DF93CDB7DEB72A970FB6F894DEBF0FBE61
:10188000CDBF5A01822E912C9401280F391F37FDAC
:10189000BAC0803891050CF0B6C09B01200F311DF5
:1018A00037FDB1C0603471050CF0ADC0AB0177FFFE
:1018B00004C044275527461B570B477055279B01EB
:1018C00077FF02C0295F3F4FE3E035952795EA9502
:1018D000E1F777FF08C02150310968E070E0FB01B3
:1018E000E41BF50BAF01202E269426942694312C70
:1018F000077019F0FFEF2F1A3F0A220E331E39012D
:101900007694762C662477946794680E791EE12C81
:10191000F12C00E010E0B30160587F4F7A876987AF
:1019200068E070E0FB01E41BF50BFA83E983221603
:10193000330609F468C02830310509F464C02F3F2C
:10194000FFEF3F070CF454C0E985FA85E00FF11F63
:10195000BF016F547D4F7C836B83D801A60DB71DEB
:10196000AF54BD4F6C0160E070E0681579050CF074
:101970003FC0E0E8CE16D10409F43AC0D7FC2CC031
:101980002F3FFFEF3F0709F43AC0FB01EE0DFF1DAB
:10199000EA0DFB1DE491042E01C0EE0F0A94EAF754
:1019A000FC91EF2BEC9341155105B1F02730310537
:1019B00099F0FB01EE0DFF1DEA0DFB1DE4914E2E8B
:1019C000512C098002C0559447940A94E2F7EB81A8
:1019D000FC815080452840826F5F7F4FEB81FC8106
:1019E0003196FC83EB83FFEFCF1ADF0A1196BDCF50
:1019F0002F5F3F4F00581F4FE80CF91C98CF41153F
:101A00005105B9F6E9CF2A960FB6F894DEBF0FBE9E
:101A1000CDBFDF91CF911F910F91FF90EF90DF909D
:101A2000CF90BF90AF909F908F907F906F905F907E
:101A30004F903F902F900895CF93DF930E94EE0B2D
:101A4000EC0181E591E00E94EE0B8C0F9D1FDF9170
:101A5000CF910895E1E0F0E00E940808319728F066
:101A600068517C4F8F4F9F4FF9CFAB01FC010E9413
:101A70000808641775078E079F07C8F308958F92AB
:101A80009F92AF92BF92CF92DF92EF92FF920F930D
:101A90001F93CF93DF936C017B018A018091130127
:101AA000882309F458C08091B002882309F453C0F8
:101AB0008091AE0280FF05C08091E000826080933B
:101AC000E000E801B12C8AEFA82E93E0892E2AE3EA
:101AD000922E209711F4BB20B9F10E945C0B81116A
:101AE00006C0AA94AA20B9F10E942A0DF2CF282F8D
:101AF00030E0C217D3070CF48C2F9FB7F894809274
:101B0000E9002091E80025FF1DC0282F30E0C21B0E
:101B1000D30BF701815020F041914093F100FACFAF
:101B2000E20EF31EBB2019F09092E8000AC08091EB
:101B3000E80085FD07C09092E800BB24B39420978D
:101B400009F0B12C9FBFC5CF5D9884E68093AD02AC
:101B50001016110644F081E090E0F6019383828331
:101B600080E090E001C0C801DF91CF911F910F91FB
:101B7000FF90EF90DF90CF90BF90AF909F908F90AD
:101B800008958091E10681110DC082E08093DD0609
:101B900084E08093DE061092E0061092DF0681E07A
:101BA0008093E1068DED96E00895CF92DF92EF925B
:101BB000FF920F931F93CF93DF936C017A018B01F8
:101BC000C0E0D0E0CE15DF0581F0D8016D918D0128
:101BD000D601ED91FC910190F081E02DC6010995AF
:101BE000892B11F02196EECF7E01C701DF91CF91B5
:101BF0001F910F91FF90EF90DF90CF9008952F925B
:101C00003F924F925F926F927F928F929F92AF928C
:101C1000BF92CF92DF92EF92FF920F931F93CF93D9
:101C2000DF93CDB7DEB728970FB6F894DEBF0FBEAF
:101C3000CDBF9D838C836A30A1F4DC0155962C9135
:101C4000559751968D919C915297B8E02B9F800D9E
:101C5000911D1124EC81FD81928B818B108A178656
:101C6000C6C06D3009F4C3C0AC81BD811F968D9193
:101C70009C91509780389105BCF0EC81FD812589BD
:101C8000422F50E087859089F6E02F9F800D911DAF
:101C90001124AC81BD8150969C938E931F975696CC
:101CA0002C9121118FC0A3C0EC81FD81E188F288C5
:101CB000F0E4EF16F1040CF7AC81BD815596BC91B0
:101CC000BE839C01E5E0BE9F200D311D112412163C
:101CD00013069CF6CB2ED12C970158E0B59F200D12
:101CE000311D11241216130644F6AC81BD815496A1
:101CF0005C90549753964C90B5E06B9FF001112483
:101D00009F012A50364F38872F83912C30E1732E54
:101D1000EF81F8858490F5E09F1201C0812C870146
:101D200028E0622E80FE02C0542D01C0552D5111B5
:101D300003C0541409F433C09C01F52FF170322E06
:101D4000622F681B4E81641750F5B801A62FA01BA7
:101D50005E81A51708F520383105D8F46034710587
:101D6000C0F45B01A501E1E041FDE4E040FDEE0FC0
:101D700042FDE295487F749ED0011124A30DBA83E1
:101D8000A983AF54BD4FBC90BE2AF11101C0BE263D
:101D9000BC926F5F7F4FDACF2F5F3F4FD0CF8694DB
:101DA0006A940C0D1D1D6110BDCF93948C0D9D1D6B
:101DB0002F8138852F5F3F4F38872F8336E093126E
:101DC000A7CF5BCF6AEF64039001659F300D1124AC
:101DD00020583F4F2817390754F48C819D81DC012E
:101DE000ED91FC910190F081E02D6AE0099581E090
:101DF00090E028960FB6F894DEBF0FBECDBFDF91FE
:101E0000CF911F910F91FF90EF90DF90CF90BF90F7
:101E1000AF909F908F907F906F905F904F903F908A
:101E20002F90089508954F925F926F927F928F92B4
:101E30009F92AF92BF92CF92DF92EF92FF920F9359
:101E40001F93CF93DF936C013B01102F38E0832E5B
:101E5000912C7A01FF24270193E0559447949A9599
:101E6000E1F7CA0187709927892B41F5D6011796AA
:101E7000CD91DC911897C3019927BE010E94A81645
:101E80004C9EF0014D9EF00D5C9EF00D11249927A3
:101E9000D60115964D915C9116978E0F9F1FFA01F2
:101EA000E80FF91F111106C0C22FC09520812C2305
:101EB000208327C0C081C22BC08323C0C22FD0E0A3
:101EC0004770A42EB12C720183E0EE0CFF1C8A95A2
:101ED000E1F79E0101C0220F4A95EAF7012FA70101
:101EE000B301C6010E94130FC4018A199B0902C0E5
:101EF000D595C7958A95E2F72C2FA701485F5F4FCC
:101F0000A8CFDF91CF911F910F91FF90EF90DF90BD
:101F1000CF90BF90AF909F908F907F906F905F9089
:101F20004F9008955F926F927F928F929F92AF929F
:101F3000BF92CF92DF92EF92FF920F931F93CF93B6
:101F4000DF93EC016A3061F48D859E859C878B87D9
:101F50002C898F859889820F911D988B8F8777C0E8
:101F6000CB84DC84693031F489E0C80ED11CDC8676
:101F7000CB866DC09DEFC9169FEFD90654F48B89AF
:101F800090E004962B853C85820F931F9C878B875E
:101F90005EC08F819885C816D9068CF7EF84F888C3
:101FA0008DEFE8168FEFF80654F389859A85E816C9
:101FB000F9062CF7603208F46FE780EE860F9FE990
:101FC000960F9A3118F49FEFE91AF90A8C3011F044
:101FD0008B3119F49FEFE91AF90A869594E0899FED
:101FE00050011124360184E0680E711C4601162F41
:101FF0001170F401EC19FD09EA0DFB1DEA5CF64FC6
:102000008491111103C08F70582E04C0582E529421
:102010008FE058228C81882361F001E089899A89B8
:10202000892B09F000E02FE0A701B401CE010E9446
:10203000130F0989252DA701B401CE010E94130FAA
:102040009FEF891A990A6814790499F698CF81E06C
:1020500090E0DF91CF911F910F91FF90EF90DF9073
:10206000CF90BF90AF909F908F907F906F905F9038
:102070000895089580E090E00895EF92FF920F9305
:102080001F93CF93DF938C017B01C0E0D0E0F70179
:10209000EC0FFD1F6491662361F0D801ED91FC9176
:1020A0000190F081E02DC8010995892B11F021964E
:1020B000EECFCE01DF91CF911F910F91FF90EF9066
:1020C00008952D9A0895BC0180E090E0AB01FC01D9
:1020D0000E94080841505109E109F10928F06851AE
:1020E0007C4F8F4F9F4FF6CFAB01FC010E94080839
:1020F000641775078E079F07C8F308958FB1809501
:10210000807F669B88601C9B846008950C942F16CA
:1021100080E00C94000C789484B5826084BD81606A
:1021200084BD85B5826085BD816085BD81E0809379
:102130006E00E1E8F0E0108282E0808381608083BD
:10214000E0E8808181608083E1E980818260808332
:1021500081608083E0E9808181608083E1EC80811F
:10216000846080838260808381608083E3EC8081EF
:1021700081608083E0EC808182608083E2EC8081FA
:1021800081608083EAE780818460808382608083CD
:1021900081608083806880831092B00210929F02D9
:1021A0001092AE028091D70081608093D70080EAC0
:1021B0008093D80089B5806189BD89B5826089BD69
:1021C00009B400FEFDCF0E942A0D8091D8008F7CBB
:1021D00080618093D8008091E000807F8093E00050
:1021E0008091E1008E7E8093E1008DE08093E2009B
:1021F000559A209A81EC80937C0085B1806F85B9D7
:1022000084B1877E84B984B1876E84B95E9A5F9801
:102210008AB1806D8AB9769A6E9881B3806F81BBDE
:10222000899880B38D7080BB80E58CBD81E08DBDC9
:1022300085E090E00E9463105F9A85E090E00E9444
:1022400063105E985C98ECE5F1E084918EBD00002F
:102250000DB407FEFDCF319681E0E936F807A9F706
:102260005C9A81E88093640080916500816080932E
:1022700065008AEC96E00E9488100E947E1087FF1D
:102280001FC05C9885EA8EBD00000DB407FEFDCF2F
:102290005C9A2E982F982D9881E083BF889513BE65
:1022A000FCCF2D980E947E108478843871F00E94B3
:1022B0007E108471843131F188EC90E00E946310CB
:1022C0000E947E1082FDEDCF3AC00E94611088EC22
:1022D00090E00E9463102F9882E090E00E942F16F9
:1022E0008F3F29F06FEF82E090E00E94371684EF75
:1022F00091E00E9463102F9A0E947E1084788438A7
:10230000D9F3D5CF0E94611088EC90E00E94631051
:102310002E9882E090E00E942F16882329F060E03A
:1023200082E090E00E94371684EF91E00E946310F3
:102330002E9A0E947E1084718431D9F3BDCF0E9401
:10234000611082E090E00E948610882319F03E9A86
:102350003F9A02C03E983F9881E090E00E9486102C
:10236000182F147081FF3AC011112E98C0EFDFEFC3
:102370000E947E1086FF05C02E9A2F9A0E9461103F
:102380002DC0112329F0C430D10511F42E9A2F98B5
:1023900081E00E94000C00E128E54CEA50E0BE011B
:1023A00084E190E00E94270C8AEC96E00E9488105D
:1023B0008FE090E00E9463102196C931D105C1F6EB
:1023C000112311F02F9A2D9880E991E00E9463105B
:1023D0000E94611086EC96E00E944C1582E390E02A
:1023E0000E9463100E947E108111F8CF81E28093D9
:1023F000D106809164008E7F8093640080917A0082
:10240000806480937A0080917A0086FDFCCFC09131
:102410007800D09179000E9408088E0120E030E019
:10242000980111270027600F711F821F931F2091B1
:102430006400216020936400611571058105910598
:1024400011F00E94261654E2452E512C612C712C5D
:1024500063E0862E912CA12CB12C7EE2E72EF12C8C
:10246000EEE1CE2ED12CF6E32F2E312C0E940F0C54
:102470001092D8061092D7061092D6061092D50662
:102480008FB7F89440919B0250919C0260919D02FD
:1024900070919E028FBF8091D206942F981B892F36
:1024A0009091D306992329F08093D4061092D306F5
:1024B0005FC29091D106891748F48F5F891708F0A1
:1024C00057C281E083BF889513BE52C281E08093DA
:1024D000D3064093D2068091CD069091CE06019608
:1024E0009093CE068093CD0680919A0281113CC0D4
:1024F0000FE220E84AEC54E060E070E080E090E019
:102500000E94270C1092D6061092D506E2E3F0E066
:10251000F093D806E093D70665EB74E086EC96E07E
:102520000E943D1081E591E00E94EE0B8AEC96E05E
:102530000E9488108091CF068093D0060E947E1062
:102540008093CF0688E00E941C0C882399F381E0D9
:1025500080939A020E940F0C1092D8061092D70610
:102560001092D6061092D50680919A02813009F019
:102570009BC01092BF061092BE061092BD0610922C
:10258000BC061092C1061092C0066EE574E081EBA5
:1025900096E00E943D101092D6061092D506D09279
:1025A000D806C092D70684E591E00E941C0D84E60F
:1025B00091E00E941C0D86E791E00E941C0D83E8CB
:1025C00091E00E941C0D80919902811109C0109226
:1025D000D6061092D506D092D806C092D70622C051
:1025E000813059F41092D6061092D50686E290E01A
:1025F0009093D8068093D70615C0823049F4109284
:10260000D6061092D506F092D806E092D7060AC0F8
:10261000833041F41092D6061092D5063092D80637
:102620002092D7068DE891E00E94EE0B8AEC96E0AE
:102630000E9488108091CF068093D0060E947E1061
:102640008093CF0680E10E941C0C882329F08091A2
:1026500099028F5F8093990280E80E941C0C882366
:1026600029F080919902815080939902809199027A
:10267000843010F01092990288E00E941C0C88238C
:1026800099F080919902811102C082E00BC08130E3
:1026900011F483E007C0823011F484E003C083307A
:1026A00019F485E080939A0280919A02853009F0AE
:1026B00045C01092BF061092BE061092BD06109241
:1026C000BC061092C1061092C0068091980281113A
:1026D00006C069E773E081EB96E00E943D108091AF
:1026E0009802813031F462E672E081EB96E00E945C
:1026F0003D1080919802823031F46FEB71E081EBF4
:1027000096E00E943D108AEC96E00E94881080912D
:10271000CF068093D0060E947E108093CF0688E07B
:102720000E941C0C882351F0809198028F5F809347
:102730009802833018F081E080939A0280919A0287
:10274000823009F015C10E940F0C1092D806109229
:10275000D7061092D6061092D50630910501209129
:102760000601321303C0C4E0D1E00FC0909107010D
:102770003917C9F3809108013817A9F3291799F37C
:10278000281789F3981779F30CC00E94D815A30174
:1027900092010E944516699391E0C830D907A9F7C4
:1027A000DCCFE0910401F0E0EE0FFF1FE958FE4F8F
:1027B000859194910E941C0DE0910501F0E0EE0FCF
:1027C000FF1FE958FE4F859194910E941C0DE091E6
:1027D0000601F0E0EE0FFF1FE958FE4F859194913E
:1027E0000E941C0DE0910701F0E0EE0FFF1FE95879
:1027F000FE4F859194910E941C0D8091CF0680938D
:10280000D0060E947E108093CF0684E00E941C0CAC
:10281000882319F081E080939A02809197028111B8
:1028200012C01092D6061092D506F092D806E09209
:10283000D70669E671E086EC96E00E943D1081E5DE
:1028400091E00E94EE0B80919702811105C088E013
:102850000E941C0C811194C080919702882309F476
:1028600083C08091960200E011E0C0E0D0E08111C9
:1028700015C0F80181918F0190E09093D606809366
:10288000D506D093D806C093D7068FE891E00E9472
:10289000EE0B2896C032D10561F725C0883108F0CB
:1028A0004DC00E94D815A50194010E944516DC0177
:1028B000CB010196A11DB11DF8012081622F680F87
:1028C00061938F0170E07093D6066093D506D09324
:1028D000D806C093D7068FE891E00E94EE0B2896A9
:1028E000C032D105F1F6809196028F5F80939602F7
:1028F0003BC02D91921710F4E82F922F8F5F8430F8
:10290000C1F71092D6061092D506F092D806E09242
:10291000D706F0E0EC5FFE4FE081F0E0EE0FFF1F26
:10292000E958FE4F859194910E941C0D81E991E038
:102930000E941C0D2896C032D105B1F0F80181919A
:102940008F0190E09093D6068093D506D093D80659
:10295000C093D7068FE891E00E94EE0BA0E0B1E0B3
:1029600080E0E0E090E0C5CF8AEC96E00E9488101D
:1029700080E090E0892B09F479CD0E94000076CDAB
:1029800081E08093970268CFDF92EF92FF920F93DE
:102990001F93CF93DF93D82EF92EE42E062F10E04D
:1029A000C8010196880F0E94A60783E00E94A6072F
:1029B000CD2DDF2D0C0F1D1FC017D10789F0E7FEAD
:1029C00003C0FE01849101C088810E94A607F82EF1
:1029D00080E00E94A6078F2121968111EDCF01C0D2
:1029E00081E0DF91CF911F910F91FF90EF90DF90E9
:1029F0000895E9EEF6E01382128288EE93E0A0E0FB
:102A0000B0E084839583A683B78383E291E09183CA
:102A100080838FEF9FEF95878487E6ECF6E0138243
:102A200012821186128680E18387108617821586AE
:102A300081E491E0918380838FE491E095838483A6
:102A4000108A1786128A118A81E0838B148A858BFB
:102A5000168AE1EBF6E01382128225E331E031833E
:102A6000208321EB32E03683258320E830E0308775
:102A7000278320E430E03287218795E0948B838B95
:102A800016861586108A17861486138681E090E0D4
:102A9000928B818B148208950F931F93CF93DF93B2
:102AA000EC0181E090E00E94861080FF2EC08AE059
:102AB00090E00E9486109FEF980F9E3F30F522E332
:102AC00030E0388B2F8728E330E03A8B298B0BE0FE
:102AD00010E0E881F9810190F081E02D682FCE01AE
:102AE0000995C8010E9486100F5F1F4F0131110523
:102AF00081F7CE0104960E94881088EE93E0DF9162
:102B0000CF911F910F910C946310DF91CF911F9182
:102B10000F91089504970C944C158F929F92AF9249
:102B2000BF92CF92DF92EF92FF92CF93DF93EC01AF
:102B3000688179818A819B81611571058105910583
:102B400021F464E279ED8BE597E02DE133EF41E08C
:102B500050E00E94451649015A019B01AC01A7EAC9
:102B6000B1E40E9464166B017C01ACEEB4EFA501E8
:102B700094010E947216DC01CB018C0D9D1DAE1DCF
:102B8000BF1DB7FF03C00197A109B048888399838F
:102B9000AA83BB83BC01CD019F77DF91CF91FF90CA
:102BA000EF90DF90CF90BF90AF909F908F9008955F
:102BB0008F929F92AF92BF92CF92DF92EF92FF924D
:102BC0006091140170911501809116019091170187
:102BD000611571058105910521F464E279ED8BE5BC
:102BE00097E02DE133EF41E050E00E9445164901A6
:102BF0005A019B01AC01A7EAB1E40E9464166B0183
:102C00007C01ACEEB4EFA50194010E947216DC01C8
:102C1000CB018C0D9D1DAE1DBF1DB7FF03C00197DD
:102C2000A109B0488093140190931501A093160157
:102C3000B0931701BC01CD019F77FF90EF90DF901B
:102C4000CF90BF90AF909F908F90089560931401A4
:102C50007093150180931601909317010895F999C7
:102C6000FECF92BD81BDF89A992780B50895262F91
:102C7000F999FECF1FBA92BD81BD20BD0FB6F89461
:102C8000FA9AF99A0FBE01960895052E97FB1EF445
:102C900000940E945C1657FD07D00E94771607FC2F
:102CA00003D04EF40C945C165095409530952195C8
:102CB0003F4F4F4F5F4F0895909580957095619568
:102CC0007F4F8F4F9F4F08950E949916A59F900D9B
:102CD000B49F900DA49F800D911D11240895B7FFFE
:102CE0000C9464160E946416821B930B0895A1E253
:102CF0001A2EAA1BBB1BFD010DC0AA1FBB1FEE1F76
:102D0000FF1FA217B307E407F50720F0A21BB30BC0
:102D1000E40BF50B661F771F881F991F1A9469F73C
:102D200060957095809590959B01AC01BD01CF0198
:102D30000895A29FB001B39FC001A39F700D811D94
:102D40001124911DB29F700D811D1124911D0895B4
:102D500097FB072E16F4009407D077FD09D00E9448
:102D6000BC1607FC05D03EF4909581959F4F0895C1
:102D7000709561957F4F0895AA1BBB1B51E107C059
:102D8000AA1FBB1FA617B70710F0A61BB70B881FFB
:102D9000991F5A95A9F780959095BC01CD0108958A
:102DA000EE0FFF1F0590F491E02D0994F894FFCFEA
:102DB0003C3C3C3CFFFFFFFFFFFFFFFF00E100004A
:102DC000000000000100000000C180810000000040
:102DD0000000006D0B3F0D8E0B830BD40B920BB0DC
:102DE0000B00000000920FD50D3A103910000000C2
:102DF00000FF0DD50D3A1039104C15FCFF00008A6C
:102E0000150D0A0020204C697A61726420526163BA
:102E1000696E670020204E696C626F67732052658F
:102E200076656E67650020204F7468657220476183
:102E30006D6500202043726564697473003E007EF6
:102E4000006973207468652077696E6E6572004949
:102E500076004A686F780045647265730055727435
:102E60006869004F6468750044756C7275727468A7
:102E7000004972746869004E757268746963756E92
:102E8000004E657469727265005275646567726F91
:102E9000680053686F736A00566165737300546805
:102EA00061636865726B004B6F72687469004E698C
:102EB0007268747900426F7368750052657065734B
:102EC0007472690041736861727500546F726B00AF
:102ED000536869736B00446F736B6F73004D61735C
:102EE0006C6F004F676765004F7465730044616CD9
:102EF00074656B68690054686F7468726963004C2C
:102F00006F00457368004E616C74686973004574A6
:102F100072696E00546875726479737300546861E5
:102F200072676F780054686F6767790045676973E7
:102F30006F7274005374697374696E6B004C6F72B6
:062F400074676F6E6B0068
:00000001FF
