:100000000C942D0A0C94550A0C94550A0C94550A1C
:100010000C94550A0C94550A0C94550A0C94550AE4
:100020000C94550A0C94550A0C942F0E0C94A10EA6
:100030000C94550A0C94550A0C94550A0C94550AC4
:100040000C94550A0C94550A0C94550A0C94550AB4
:100050000C94550A0C94550A0C94550A0C9456139A
:100060000C94550A0C94550A0C94550A0C94550A94
:100070000C94550A0C94550A0C94550A0C94550A84
:100080000C94550A0C94550A0C94550A0C94550A74
:100090000C94550A0C94550A0C94550A0C94550A64
:1000A0000C94550A0C94550A0C94550A53746973B0
:1000B00074696E6B00456769736F72740054686F82
:1000C0006767790054686172676F78005468757269
:1000D0006479737300457472696E004E616C746864
:1000E000697300457368004C6F0054686F746872E0
:1000F00069630044616C74656B6869004F74657373
:10010000004F676765004D61736C6F00446F736BE0
:100110006F7300536869736B00546F726B004173A7
:100120006861727500526570657374726900426F20
:10013000736875004E6972687479004B6F726874E9
:100140006900546861636865726B0056616573731A
:100150000053686F736A005275646567726F680058
:100160004C6F7274676F6E6B004E65746972726566
:10017000004E757268746963756E004972746869BF
:100180000044756C7275727468004F646875005530
:1001900072746869004564726573004A686F78001C
:1001A000497600F0F89C8E8783878E9CF8F00000DB
:1001B000FEFF0303030303070EFCF80000FEFF032A
:1001C00003030303070EFCF80000FFFF000000001C
:1001D000000000FFFF0000FEFF8383838383C7EEE0
:1001E0007C380000F8FC0E07030303070EFCF80040
:1001F000003F7FE0C08080C0E07F3FFFFF01010142
:1002000001010101FFFF0000FFFF0C0C0C0C1C3E64
:1002100077E3C100007FFFC0C0C0C0C0E0703F1FD7
:1002200000001F3F70E0C0C0C0E0703F1F00007FB3
:10023000FFC1C1C1C1C1E3773E1C00001F3F70E098
:10024000C0C0C0E0703F1F000000000001FFFF01C0
:10025000000000D5F08D14A1C881CFD9F1AF2000E6
:1002600000000000000CC878303020206040404082
:10027000404040404020E0F0F8F808040000000052
:10028000000000000000000000000000000000006E
:10029000000000000000000000000000000000005E
:1002A000000000000000E0E0E0E0C000000000000E
:1002B000000000000000000000000000000000003E
:1002C000000000000000000000000000000000002E
:1002D000000000000000000000000000000000001E
:1002E0000000000000FFE700000000000000000028
:1002F000000000000000FFFFFFFF00000000000002
:1003000000E0E0F0F01818183CFCF8F0E000000005
:1003100000001038FCF8F0E000000000F8F8FCF8ED
:100320003000000000000018080703000000001063
:1003300038FCF8F8F01818387C3830000000E0E09D
:10034000E0F0181878FCF8F0C08000000000000011
:10035000000000000000000000000000000000009D
:1003600000000000006063878E0E1C1C3C3C3C3C7F
:100370003C3C3C181818FFFFFFFFC0400000000085
:10038000007FFFFFFFC0800000FFFFFF7F00000035
:1003900000000000FFFFFFFF80000080FFFFFFFF65
:1003A000808000000000000000000000000000004D
:1003B00080FFFFFFFF800000000000000000FFFF43
:1003C000FFFF8C8602030101000000000000000016
:1003D000000000000000000000000000000000001D
:1003E00000000000000000010101010302020202FE
:1003F00002020202020301010100000000000000ED
:1004000000000101030303010101000000000000DE
:1004100000000000010103030303010101010303C4
:1004200001000000000000000000000000000000CB
:1004300001010303010000000000000000000001B2
:1004400003030300000000000000000000000000A3
:10045000000000000000000000000000000000009C
:10046000000000000000000000000000000000008C
:10047000000000000000000000000000000000007C
:10048000000000000000000080808080808080806C
:1004900080808000000000000000000000000000DC
:1004A000000000000000000000000000000000004C
:1004B000000000000000000000000000008080003C
:1004C000008080000000000000000000000000002C
:1004D000000000000000000000000000000000001C
:1004E000000000000000000000000000000000000C
:1004F00000000000000000000000000000000000FC
:100500000008180C0703FFFFFF8180404060606017
:10051000606167FFFFBC00000000000000008080F9
:10052000800000808080800000000000000000004B
:100530000080808080000000000000000001FFFFBC
:10054000FFFF0300808080800000000000000000AA
:10055000000000008080808000000000000000009B
:10056000000000000000000000000000000000008B
:10057000000000000000000000000000000000007B
:10058000000000000000FFFFFFE38180800000000A
:100590000000000003FFFFFE00000000020307FF51
:1005A000FFFF030103070703000000FCFCFEFE033E
:1005B00001010307FFFFFEFC000000000000FFFF39
:1005C000FFFFC26373FFFFCF06000000000000FCC6
:1005D000FCFEFF8343673F3F1F0C08000000000044
:1005E000000000000000000000000000000000000B
:1005F00000000000000000000000000000000000FB
:1006000000020C0C10303F3F3F60604140404040D2
:10061000202030181E0F0703000000000000387F64
:100620007F3F1800000000000000000F0F3F3F7CDC
:10063000783030301F0F0F0F0000000000183F7F90
:100640007F3F1800000F1F3F7E3810000000000F92
:100650001F3F7F3810000000000000000000000075
:10066000596F75206C6F6F73652000596F75205737
:10067000696E20002077696E730050726573732075
:100680004120746F20476F00206F6620004C2F526E
:10069000204265743D00204F64647320313A00A00D
:1006A000019B0195018F018A0181017B0171016923
:1006B000016001570151014B0142013B0134012E00
:1006C0000125011E01190113010C0106010101FCA4
:1006D00000F300EA00E700E300DB00D500CC00C433
:1006E00000BD00B500AC0054484953205245534F5B
:1006F00052542057415320494D4147494E45440AE1
:10070000425920412042454E2C205259414E2C2026
:10071000414E445245570A414E442044414E2C20FC
:10072000412044554E47454F4E5320414E440A44C4
:100730005241474F4E5320414456454E545552491D
:100740004E470A47524F5550205748494C45204183
:100750005454454D5054494E4720544F0A53415626
:10076000452054484520574F524C442046524F4D47
:10077000205448450A5752415448204F4620544877
:1007800045204749414E54532E004D4F4E5354453A
:10079000524F504F4C4953205741530A464F554EE4
:1007A0004445442042592047524541542C0A425561
:1007B0004742454152205741524C4F52440A474FFD
:1007C000524548554E4745522C20465249454E44C5
:1007D000204F460A54484520445741525645532C11
:1007E00020414E4E4948494C41544F520A4F4620F1
:1007F0005448452048494C4C204749414E54532CBD
:10080000204849530A53574153484255434B4C499A
:100810004E472042524F544845520A475245474599
:100820004B2C204E4156494741544F52204F4620B1
:100830005448450A534B4945532C20414E442054BB
:100840004845495220424F4F4E0A434F4D50414E6A
:10085000494F4E20534C4F4F502054484520424F53
:100860004E450A4841525645535445522C204F4656
:1008700020544845204C495A4152440A464F4C4B5B
:100880002C20504152414D4F554E54204F4620543C
:1008900048450A424F4E4520434152564552532E39
:1008A000004D4F4E535445524F504F4C49532049E1
:1008B000532041200A464142554C4F555320444550
:1008C0005354494E4154494F4E20464F520A414CD1
:1008D0004C2057484F2048415645205249434845EF
:1008E00053204F520A5749534820544F2042454302
:1008F0004F4D4520524943482E20434F4D450A460F
:100900004F5220412053544147452053484F572CC4
:1009100020504C415920494E0A54484520434153E8
:10092000494E4F2C205649534954205448450A4DAE
:1009300041524B4554532E20434F4E5645494E4548
:100940004E544C590A4C4F434154454420494E2083
:100950004E4F52544845524E0A46414552554E2C30
:10096000204A55535420412053484F525420424F5F
:1009700041540A524944452046524F4D204D495258
:10098000414241522E002020437265646974730015
:1009900020204F746865722047616D650020204EED
:1009A000696C626F677320526576656E67650020BB
:1009B000204C697A61726420526163696E670048F5
:1009C00045592C20474F424C494E2C20594F552019
:1009D000574F524B2041540A5448452043415349F4
:1009E0004E4F204E4F572E0A4D414B4520544845FF
:1009F00020424F53532048415050590A4259204DEC
:100A0000414B494E47204D4F4E45592C204F5220C7
:100A1000454C53452100205072657373204120746A
:100A20006F20436F6E74696E75650000E0E0C04032
:100A300060E0C0C04040C0C0800000000000808076
:100A400080C0800000000000800000008080000066
:100A5000000000000000000000000000000007FC93
:100A6000FE03000000000000000000000000000085
:100A70000000000000000000000000000000000076
:100A80000000000000800000000000000000008066
:100A900080800000000007FEFE00000000C6CFC6F8
:100AA0000000008080C02060602000003F3F3F00C9
:100AB0000020FF7F000000FFFF80000000FFFF809C
:100AC0000003FFFF00000001FFFF030103FFFFFC25
:100AD00000000038FCFE82C7C7E68000000101FF6D
:100AE000FF03020000F0F80C3EFCE000001CFEF8E2
:100AF0000C0E1E0C0000F8FC06061FFEF80000009D
:100B000001FFFE020307FFFE000000FCFEFF0101E3
:100B100003FFFF00000000FFFF00000000FFFF4098
:100B20000000000327766222231F0E000000000051
:100B300000000000000000000100000000000307AA
:100B400003020101000000000F0F0600000F3F1F0D
:100B5000000000103879F060203F1F00000060FFA7
:100B6000FF40000000FFFF86030100000080FFFF40
:100B70008000000000007FFFE0C0403F1F00000039
:100B800038FFFF3830100F0700000003070F0E0476
:100B90000203010000000103010000000000010049
:100BA0000000000000000000000000000000000045
:100BB0000000000000000000000000000000000035
:100BC0000000000000000000000000000000000025
:100BD0000000000000000000000000000000000114
:100BE00001000000000307010000000000010703EE
:100BF00000000000000000010100000000000000F3
:100C0000201F1F1000000000000000000000000076
:100C100000000000000000000000000000000000D4
:100C200000000000000000000000000000000000C4
:100C300000000000000000000000000000000000B4
:100C400000000000000000000000000000000000A4
:100C5000008080C0C0C00000C0C04040C0C0800054
:100C6000000000808040C0C04000000000CCDE8456
:100C7000000000C0C08080C0C0C0800000000080B4
:100C80008040C0C0800000000000000000000000A4
:100C90000000000000000000000000000000000054
:100CA0000000000000000000000000000000000044
:100CB0000000000000000000000000000000000034
:100CC0000000000000000000000000000000000024
:100CD0003F7F7F20201000003C7E6340607F7F00CC
:100CE00000000027676444663E1C0000007F7F20F0
:100CF000000000207F7F0000207F7F0000001F7F1A
:100D00007060403F3F1F0000000000000000000036
:100D100000000000000000000000000000000000D3
:100D200000000000000000000000000000000000C3
:100D300000000000000000000000000000000000B3
:100D400000000000000000000000000000000000A3
:100D50000000000000000000000000000000000093
:100D60000000000000000000000000000000000083
:100D70000000000000000000000000000000000073
:100D80000000000000000000000000000000000063
:100D90000000000000000000000000000000000053
:100DA0000000000000000000000000000000000043
:100DB0000000000000000000000000000000000033
:100DC0000000000000000000000000000000000023
:100DD0000000000000000000000000000000000013
:100DE0000000000000000000000000000000000003
:100DF00000000000000000000000000000000000F3
:100E000000000000000000000000000000000000E2
:100E100000000000000000000000000000000000D2
:100E20000000000000000000000000080B000202AB
:100E30000201000904000001020200000524001064
:100E4000010524010101042402060524060001070E
:100E500005810310004009040100020A0000000798
:100E60000502024000000705830240000004030958
:100E70000412010002EF020140412336800001010B
:100E800002030141726475696E6F204C4C4300414E
:100E9000726475626F790000B00000A170E1509635
:100EA0004F26900F1D070C009669004AE44A00483F
:100EB000444000806810000F99FB8F9DBDBBFB77FD
:100EC000D4D4DF1F1A1AFE7F5D5DFF805A0000A098
:100ED000A4AA0010BA3400FF5953F3FF9B9B9EFF56
:100EE000B9B996FF9595D19FF4940FFC295F91FFB6
:100EF0001838F8FF9294FFFF95D5F7BFB5DDD7F10D
:100F00008F81F1F788C8F779C6467909FD9B0901F9
:100F100096F8008281828050716200775656007682
:100F2000763700A2B7730107720600782750007366
:100F3000347400775176007F55F700477110003206
:100F40004772007364730015A27500616794000016
:100F50009F6060F4F2F6F200000000003E5B4F5B21
:100F60003E3E6B4F6B3E1C3E7C3E1C183C7E3C184C
:100F70001C577D571C1C5E7F5E1C00183C1800FF30
:100F8000E7C3E7FF0018241800FFE7DBE7FF30485E
:100F90003A060E2629792926407F050507407F0558
:100FA000253F5A3CE73C5A7F3E1C1C08081C1C3E4F
:100FB0007F14227F22145F5F005F5F06097F017F3D
:100FC000006689956A606060606094A2FFA29408E0
:100FD000047E040810207E201008082A1C08081C23
:100FE0002A08081E101010100C1E0C1E0C30383E63
:100FF0003830060E3E0E06000000000000005F00C4
:10100000000007000700147F147F14242A7F2A128F
:101010002313086462364956205000080703000075
:101020001C2241000041221C002A1C7F1C2A0808A7
:101030003E080800807030000808080808000060BA
:10104000600020100804023E5149453E00427F40A6
:101050000072494949462141494D331814127F1005
:1010600027454545393C4A4949314121110907364F
:1010700049494936464949291E00001400000040EC
:1010800034000000081422411414141414004122E6
:10109000140802015909063E415D594E7C12111295
:1010A0007C7F494949363E414141227F4141413E91
:1010B0007F494949417F090909013E414151737FF7
:1010C0000808087F00417F41002040413F017F0820
:1010D0001422417F404040407F021C027F7F040871
:1010E000107F3E4141413E7F090909063E415121A1
:1010F0005E7F09192946264949493203017F0103C8
:101100003F4040403F1F2040201F3F4038403F634A
:101110001408146303047804036159494D43007FA4
:101120004141410204081020004141417F04020175
:101130000204404040404000030708002054547817
:10114000407F284444383844444428384444287F65
:10115000385454541800087E090218A4A49C787FBF
:101160000804047800447D40002040403D007F108A
:1011700028440000417F40007C047804787C080407
:1011800004783844444438FC1824241818242418BB
:10119000FC7C08040408485454542404043F4424A8
:1011A0003C4040207C1C2040201C3C4030403C44C3
:1011B000281028444C9090907C4464544C4400087F
:1011C00036410000007700000041360800020102AD
:1011D00004023C2623263C1EA1A161123A40402075
:1011E0007A385454555921555579412154547841F0
:1011F000215554784020545579400C1E52721239B2
:10120000555555593954545459395554545800006A
:10121000457C410002457D420001457C40F0292487
:1012200029F0F0282528F07C545545002054547CA2
:10123000547C0A097F493249494932324848483288
:10124000324A4848303A4141217A3A4240207800B7
:101250009DA0A07D39444444393D4040403D3C245C
:10126000FF2424487E4943662B2FFC2F2BFF09299E
:10127000F620C0887E090320545479410000447D43
:10128000413048484A32384040227A007A0A0A728D
:101290007D0D19317D2629292F2826292929263037
:1012A000484D4020380808080808080808382F105A
:1012B000C8ACBA2F102834FA00007B000008142AAA
:1012C000142222142A14089500220095AA00550021
:1012D000AAAA55AA55AA000000FF00101010FF008E
:1012E000141414FF001010FF00FF1010F010F01481
:1012F0001414FC001414F700FF0000FF00FF141486
:10130000F404FC141417101F10101F101F141414D1
:101310001F00101010F0000000001F101010101F10
:1013200010101010F010000000FF1010101010101E
:10133000101010FF10000000FF140000FF00FF005D
:10134000001F10170000FC04F414141710171414D5
:10135000F404F40000FF00F714141414141414F728
:1013600000F7141414171410101F101F141414F481
:10137000141010F010F000001F101F0000001F14C8
:10138000000000FC140000F010F01010FF10FF141B
:101390001414FF141010101F00000000F010FFFFC5
:1013A000FFFFFFF0F0F0F0F0FFFFFF000000000093
:1013B000FFFF0F0F0F0F0F38444438447C2A2A3E9A
:1013C000147E02020606027E027E026355494163D4
:1013D0003844443C04407E201E2006027E020299CE
:1013E000A5E7A5991C2A492A1C4C7201724C304A67
:1013F0004D4D303048784830BC625A463D3E4949F0
:1014000049007E0101017E2A2A2A2A2A44445F4497
:101410004440514A444040444A51400000FF0103C7
:10142000E080FF000008086B6B0836123624360691
:101430000F090F06000018180000001010003040BF
:10144000FF0101001F01011E00191D1712003C3C85
:101450003C3C0000000000000E1A11241FBECFEF1C
:10146000DAE0DEBFCDBF11E0A0E0B1E0E4E4F8E3F4
:1014700002C005900D92A237B107D9F726E0A2E786
:10148000B1E001C01D92A332B207E1F71AE0CDE24C
:10149000DAE004C02197FE010E941A1CCC32D10769
:1014A000C9F70E94C1130C94201C0C9400002091D9
:1014B0008801211103C08FEF9FEF08955FB7F89463
:1014C00022E02093E9002091F20030E0121613068A
:1014D00014F421E030E0422FFC0184E6415038F062
:1014E0002898809387019091F1009193F7CF21156F
:1014F000310521F08091F200882319F05FBFC90106
:1015000008958BE68093E800F9CF2FB7F89483E035
:101510008093E9009091E800892F807295FF04C0C4
:101520009091F20080E4891B2FBF0895CF93DF9341
:101530001F92CDB7DEB76983DC01ED91FC9102808B
:10154000F381E02D41E050E0BE016F5F7F4F0995D0
:101550000F90DF91CF91089583E08093E90080910F
:10156000F200882319F08AE38093E80008950E942E
:10157000850A90E00895CF93DF931F92CDB7DEB731
:10158000FC018485958597FD05C02FEF3FEF3587DA
:1015900024870BC0CE0101960E94570A019719F4C7
:1015A000898190E002C08FEF9FEF0F90DF91CF9184
:1015B00008950F931F93CF93DF931F92CDB7DEB79C
:1015C0008C01FC018485958597FF0EC0CE010196A4
:1015D0000E94570A019719F4898190E002C08FEFA9
:1015E0009FEFF80195878487F801848595850F9092
:1015F000DF91CF911F910F910895009769F0FC0141
:1016000001900020E9F73197AF01481B590BBC014D
:101610008EE995E00C94A01080E090E008958FE6AC
:1016200091E00C94FD0AE9E8F1E0A0E0B8E0008068
:101630000EBC8111012C1197A0FDFDCF0192B9F7CD
:101640000DB40895682F8EE995E00C94CA1080E0DF
:10165000E9E8F1E081118FEF002481938193819378
:1016600081930394D1F708952091A805282329F4A4
:101670009091A705982381E009F480E00895CF9325
:10168000DF93CEE9D5E089858A870E94491389874F
:10169000DF91CF910895CF93DF93BC018EE995E060
:1016A0000E940813EC010E940F0B8C0F9D1FDF910D
:1016B000CF9108952F923F924F925F926F927F92B7
:1016C0008F929F92AF92BF92CF92DF92EF92FF9252
:1016D0000F931F93CF93DF93CDB7DEB72A970FB643
:1016E000F894DEBF0FBECDBF5A01822E912C94011B
:1016F000280F391F37FDBAC0803891050CF0B6C0ED
:101700009B01200F311D37FDB1C0603471050CF015
:10171000ADC0AB0177FF04C044275527461B570BCC
:10172000477055279B0177FF02C0295F3F4FE3E0D9
:1017300035952795EA95E1F777FF08C021503109E3
:1017400068E070E0FB01E41BF50BAF01202E26944E
:1017500026942694312C077019F0FFEF2F1A3F0AB8
:10176000220E331E39017694762C66247794679482
:10177000680E791EE12CF12C00E010E0B3016058F6
:101780007F4F7A87698768E070E0FB01E41BF50B07
:10179000FA83E9832216330609F468C0283031053C
:1017A00009F464C02F3FFFEF3F070CF454C0E985F4
:1017B000FA85E00FF11FBF0167577E4F7C836B8373
:1017C000D801A60DB71DA757BE4F6C0160E070E0B1
:1017D000681579050CF03FC0E0E8CE16D10409F495
:1017E0003AC0D7FC2CC02F3FFFEF3F0709F43AC0A7
:1017F000FB01EE0DFF1DEA0DFB1DE491042E01C05F
:10180000EE0F0A94EAF7FC91EF2BEC93411551058A
:10181000B1F02730310599F0FB01EE0DFF1DEA0D07
:10182000FB1DE4914E2E512C098002C05594479423
:101830000A94E2F7EB81FC815080452840826F5F7B
:101840007F4FEB81FC813196FC83EB83FFEFCF1A56
:10185000DF0A1196BDCF2F5F3F4F00581F4FE80C96
:10186000F91C98CF41155105B9F6E9CF2A960FB664
:10187000F894DEBF0FBECDBFDF91CF911F910F91C6
:10188000FF90EF90DF90CF90BF90AF909F908F90A0
:101890007F906F905F904F903F902F9008958F9220
:1018A0009F92AF92BF920F931F93CF93DF93CDB7C9
:1018B000DEB7A1970FB6F894DEBF0FBECDBF19A259
:1018C000423008F44AE08E010F5D1F4F842E912CA8
:1018D000A12CB12CA50194010E94C11BE62FB901D6
:1018E000CA0101501109EA3014F4E05D01C0E95C5D
:1018F000D801EC93232B242B252B61F7C8010E94E0
:10190000FD0AA1960FB6F894DEBF0FBECDBFDF91E2
:10191000CF911F910F91BF90AF909F908F9008959E
:10192000CF92DF92EF92FF92CF93DF936C01990FEA
:10193000EE08FF08F7FE17C08DE20E94220BEC01B3
:1019400066277727CB016C197D098E099F094AE02C
:101950000E944F0C8C0F9D1FDF91CF91FF90EF9055
:10196000DF90CF9008954AE0C701B601DF91CF9193
:10197000FF90EF90DF90CF900C944F0CE1E0F0E0FF
:101980000E94E50D319728F068517C4F8F4F9F4F93
:10199000F9CFAB01FC010E94E50D641775078E07B6
:1019A0009F07C8F308958F929F92AF92BF92CF92F4
:1019B000DF92EF92FF920F931F93CF93DF936C010F
:1019C0007B018A0180910E01882309F458C080911F
:1019D0008801882309F453C08091860180FF05C0E7
:1019E0008091E00082608093E000E801B12C8AEFF2
:1019F000A82E93E0892E2AE3922E209711F4BB2083
:101A0000B9F10E94850A811106C0AA94AA20B9F1F1
:101A10000E94BE0CF2CF282F30E0C217D3070CF47F
:101A20008C2F9FB7F8948092E9002091E80025FF61
:101A30001DC0282F30E0C21BD30BF701815020F0CE
:101A400041914093F100FACFE20EF31EBB2019F052
:101A50009092E8000AC08091E80085FD07C090924E
:101A6000E800BB24B394209709F0B12C9FBFC5CFE9
:101A70005D9884E6809385011016110644F081E09C
:101A800090E0F6019383828380E090E001C0C8017A
:101A9000DF91CF911F910F91FF90EF90DF90CF904A
:101AA000BF90AF909F908F9008958091B90581115C
:101AB0000DC082E08093B50584E08093B605109256
:101AC000B8051092B70581E08093B90585EB95E0E4
:101AD0000895FC018485958597FD0BC09FB7F89408
:101AE00082E08093E9008091F2009FBF90E0019630
:101AF00008959FB7F89482E08093E9008091F20006
:101B00009FBF90E008954091190650911A062091C8
:101B100017063091180642175307B4F49091E80065
:101B20009570E1F39091E80092FD19C08093F10067
:101B30008091190690911A0601968F739927892B27
:101B400019F48EEF8093E8008091190690911A069F
:101B5000019690931A068093190681E0089580E01B
:101B60000895DF92EF92FF920F931F93CF93DF932D
:101B7000D82E8A017B01E40EF51EEB01CE15DF05A0
:101B800071F0D7FE03C0FE01849101C088810E94DC
:101B9000830D21968111F2CF8FEF9FEF01C0C80115
:101BA000DF91CF911F910F91FF90EF90DF900895FB
:101BB000615030F02091F100FC0120830196F8CFB4
:101BC000289884E6809387010895A1E1B6E02FB7B5
:101BD000F8947D918D919C9166B52FBFA89B05C00F
:101BE0006F3F18F47F5F8F4F9F4F22E0660F771F84
:101BF000881F991F2A95D1F708950F931F93CF93AC
:101C0000DF931F92CDB7DEB782E0898342E450E0D4
:101C10006BE27EE080E80E94B10D0E94550DDC0170
:101C200012960D911C9113970115110589F0D80199
:101C3000ED91FC910280F381E02DBE016F5F7F4F3B
:101C4000C801099597FD04C0F80100851185ECCF06
:101C500089810F90DF91CF911F910F9108951F926D
:101C60000F920FB60F9211248F939F938091E100F2
:101C70009091E100937F9093E10083FF0FC0109259
:101C8000E90091E09093EB001092EC0092E39093C6
:101C9000ED001092880198E09093F00082FF20C040
:101CA00093E09093E9009091F200992319F09AE360
:101CB0009093E80090918501992339F090918501E6
:101CC000915090938501992389F1909187019923EF
:101CD00039F090918701915090938701992341F1B8
:101CE00084FF10C08091E2008E7E81608093E200CC
:101CF0008091E1008F7E8093E100809186018E7E4D
:101D0000806111C080FF16C08091E2008E7E8061EC
:101D10008093E2008091E1008E7E8093E1008091CB
:101D200086018E7E81608093860104C05D9ACDCF4E
:101D3000289AD6CF9F918F910F900FBE0F901F9032
:101D400018951F920F920FB60F921124CF92DF9227
:101D5000EF92FF920F931F932F933F934F935F93B5
:101D60006F937F938F939F93AF93BF93EF93FF9363
:101D7000CF93DF93CDB7DEB76C97DEBFCDBF1092A8
:101D8000E9008091E80083FFBCC168E0CE01459680
:101D90000E94D80D82EF8093E8008D8987FF05C0EF
:101DA0009091E80090FFFCCF03C09EEF9093E80075
:101DB000982F907609F0C6C09E894F89588D2F893B
:101DC000F88C91110CC0803829F48091160680930C
:101DD000F10002C01092F1001092F1008FC1913019
:101DE00051F481118BC14130510509F087C18091B7
:101DF00016068D7F0BC0933061F481117FC1413095
:101E0000510509F07BC18091160682608093160609
:101E100075C1953049F48091E80080FFFCCF822F96
:101E200080688093E3006AC1963009F05EC00B8D34
:101E30001C8D22E01092E90010921A0610921906E9
:101E4000F21232C010921806109217060E94FD0D71
:101E500099E0BE016F5F7F4FDB01E92F1D92EA958C
:101E6000E9F79983FA8291E09E8390EA98879AEF46
:101E700099872091190630911A06275F3F4F3C83BE
:101E80002B838D831092E90010921A061092190686
:101E9000109318060093170649E050E080E00E9476
:101EA000B10D0E94FD0D2AC110931806009317066C
:101EB0000E94550DDC0112960D911C91139701158E
:101EC000110509F4BEC0D801ED91FC910480F581A3
:101ED000E02DBE016B5E7F4FC8010995009709F0A8
:101EE000ABC0F80100851185EACF973009F402C133
:101EF000983021F481E08093F10000C1993009F01D
:101F0000FDC0837009F0F6C0EAE4F1E081E031E061
:101F100096E32081211109C08EE78093EA00109298
:101F2000EA008F8980938801E9C08093E9003093AB
:101F3000EB0021912093EC009093ED008F5F8730B0
:101F400041F7EACF8B8D9C8D1092E90010921A0612
:101F5000109219069093180680931706898D8111A7
:101F60004FC08E899D89913A49F4813209F0C2C0EF
:101F700047E050E067E071E080E0B6C0913209F0E0
:101F8000B9C0833269F48F89988DA0E0B0E0809366
:101F90000F0190931001A0931101B0931201AEC0F4
:101FA000803269F48091E80082FFFCCF67E087E02F
:101FB00091E00E94D80D8BEF8093E80006C082323A
:101FC00009F09CC08F8980930E0180910701909148
:101FD0000801A0910901B0910A01803B9440A1053C
:101FE000B10509F084C080910E0180FD80C088E7B2
:101FF00080931506809164008F7D809364007EC07D
:102000000E94550DDC0112960D911C91139701153C
:10201000110509F46FC0D801ED91FC910190F08198
:10202000E02DBE016B5E7F4FC8010995811166C02E
:10203000F80100851185EBCF181619060CF45EC067
:1020400059C0F1E0FF1609F446C0F3E0FF1252C098
:102050008F89882309F442C0823029F440E867E080
:102060008FE89EE006C0813051F440E86BE083E8E1
:102070009EE00E94611A882309F43CC03FC083306F
:10208000C9F50E94550DDC011296ED90FC90139756
:102090008E010F5F1F4F6801E114F10479F0D70141
:1020A000ED91FC910680F781E02DB801C7010995FB
:1020B000080F111DF701E084F184EECFD8011C92C6
:1020C000F60101900020E9F73197BF016C197D09F5
:1020D00040E0C601CECF61E77EE002C06DE67EE063
:1020E000FB01449150E080E80E94B10D07C01092BE
:1020F000150604C081E28093EB0003C08EEF80934D
:10210000E8006C960FB6F894DEBF0FBECDBFDF912E
:10211000CF91FF91EF91BF91AF919F918F917F915F
:102120006F915F914F913F912F911F910F91FF9070
:10213000EF90DF90CF900F900FBE0F901F901895EB
:10214000CF92DF92EF92FF920F931F93CF93DF9383
:102150006C017A018B01C0E0D0E0CE15DF0581F083
:10216000D8016D918D01D601ED91FC910190F08126
:10217000E02DC6010995892B11F02196EECF7E0145
:10218000C701DF91CF911F910F91FF90EF90DF90EA
:10219000CF9008952F923F924F925F926F927F92CD
:1021A0008F929F92AF92BF92CF92DF92EF92FF9267
:1021B0000F931F93CF93DF93CDB7DEB728970FB65A
:1021C000F894DEBF0FBECDBF9D838C836A30A1F42F
:1021D000DC0155962C91559751968D919C91529773
:1021E000B8E02B9F800D911D1124EC81FD81928B15
:1021F000818B108A1786C6C06D3009F4C3C0AC81CC
:10220000BD811F968D919C91509780389105BCF0AF
:10221000EC81FD812589422F50E087859089F6E089
:102220002F9F800D911D1124AC81BD8150969C93F0
:102230008E931F9756962C9121118FC0A3C0EC81CD
:10224000FD81E188F288F0E4EF16F1040CF7AC812F
:10225000BD815596BC91BE839C01E5E0BE9F200DDB
:10226000311D1124121613069CF6CB2ED12C97018A
:1022700058E0B59F200D311D11241216130644F6A7
:10228000AC81BD8154965C90549753964C90B5E0C8
:102290006B9FF00111249F01295A304F38872F83FB
:1022A000912C30E1732EEF81F8858490F5E09F1238
:1022B00001C0812C870128E0622E80FE02C0542DCF
:1022C00001C0552D511103C0541409F433C09C01B1
:1022D000F52FF170322E622F681B4E81641750F576
:1022E000B801A62FA01B5E81A51708F5203831057F
:1022F000D8F460347105C0F45B01A501E1E041FD53
:10230000E4E040FDEE0F42FDE295487F749ED0016F
:102310001124A30DBA83A983A757BE4FBC90BE2A30
:10232000F11101C0BE26BC926F5F7F4FDACF2F5FE5
:102330003F4FD0CF86946A940C0D1D1D6110BDCF08
:1023400093948C0D9D1D2F8138852F5F3F4F3887CB
:102350002F8336E09312A7CF5BCF6AEF640390011F
:10236000659F300D112420583F4F2817390754F42A
:102370008C819D81DC01ED91FC910190F081E02D3B
:102380006AE0099581E090E028960FB6F894DEBFE8
:102390000FBECDBFDF91CF911F910F91FF90EF90B6
:1023A000DF90CF90BF90AF909F908F907F906F9075
:1023B0005F904F903F902F90089508954F925F92B5
:1023C0006F927F928F929F92AF92BF92CF92DF9245
:1023D000EF92FF920F931F93CF93DF936C013B011A
:1023E000102F38E0832E912C7A01FF24270193E0EF
:1023F000559447949A95E1F7CA0187709927892BDC
:1024000041F5D6011796CD91DC911897C301992714
:10241000BE010E94F21B4C9EF0014D9EF00D5C9E91
:10242000F00D11249927D60115964D915C911697C0
:102430008E0F9F1FFA01E80FF91F111106C0C22F5E
:10244000C09520812C23208327C0C081C22BC0834C
:1024500023C0C22FD0E04770A42EB12C720183E0BC
:10246000EE0CFF1C8A95E1F79E0101C0220F4A95F0
:10247000EAF7012FA701B301C6010E94DE11C401D2
:102480008A199B0902C0D595C7958A95E2F72C2F2A
:10249000A701485F5F4FA8CFDF91CF911F910F91A8
:1024A000FF90EF90DF90CF90BF90AF909F908F9074
:1024B0007F906F905F904F9008955F926F927F92A0
:1024C0008F929F92AF92BF92CF92DF92EF92FF9244
:1024D0000F931F93CF93DF93EC016A3061F48D85E6
:1024E0009E859C878B872C898F859889820F911D6B
:1024F000988B8F8777C0CB84DC84693031F489E096
:10250000C80ED11CDC86CB866DC09DEFC9169FEF2F
:10251000D90654F48B8990E004962B853C85820F74
:10252000931F9C878B875EC08F819885C816D906BC
:102530008CF7EF84F8888DEFE8168FEFF80654F3E8
:1025400089859A85E816F9062CF7603208F46FE75A
:1025500080EE860F9FE9960F9A3118F49FEFE91AE3
:10256000F90A8C3011F08B3119F49FEFE91AF90A4E
:10257000869594E0899F50011124360184E0680E0D
:10258000711C4601162F1170F401EC19FD09EA0DBA
:10259000FB1DE956F14F8491111103C08F70582E25
:1025A00004C0582E52948FE058228C81882361F009
:1025B00001E089899A89892B09F000E02FE0A701C1
:1025C000B401CE010E94DE110989252DA701B401B5
:1025D000CE010E94DE119FEF891A990A68147904CE
:1025E00099F698CF81E090E0DF91CF911F910F9104
:1025F000FF90EF90DF90CF90BF90AF909F908F9023
:102600007F906F905F900895089580E090E0089526
:10261000EF92FF920F931F93CF93DF938C017B0177
:10262000C0E0D0E0F701EC0FFD1F6491662361F07C
:10263000D801ED91FC910190F081E02DC801099540
:10264000892B11F02196EECFCE01DF91CF911F9112
:102650000F91FF90EF9008952D9A0895BC0180E0AE
:1026600090E0AB01FC010E94E50D41505109E109E8
:10267000F10928F068517C4F8F4F9F4FF6CFAB0187
:10268000FC010E94E50D641775078E079F07C8F3CC
:1026900008958FB18095807F669B88601C9B8460C5
:1026A00008950C94791B80E00C94130B0F930FB7D3
:1026B0000F931F9211248F939F93EF93FF93EBE15E
:1026C000F6E08091220691E08D5F8D3710F08D57F6
:1026D0009395809322068081890F80839181911D3B
:1026E00091830281011D02838381811D83830927D8
:1026F0000F7009270295009321063BD081110093AA
:102700001F068C3A11F08C35A1F400912006901B25
:10271000963088F0855380930008809301082898AC
:1027200028D0F1F788E198E08093600090936000F2
:10273000FFCF9093200680911506815020F0809362
:10274000150687E741F3E1E1F6E08081918101968A
:102750008083918382819381811D911D82839383E4
:10276000FF91EF919F918F911F900F910FBF0F914C
:1027700018958FB18095807F669B88601C9B8460D4
:102780000895789484B5826084BD816084BD85B5E8
:10279000826085BD816085BD81E080936E00E1E847
:1027A000F0E0108282E0808381608083E0E88081B5
:1027B00081608083E1E980818260808381608083A1
:1027C000E0E9808181608083E1EC808184608083A6
:1027D0008260808381608083E3EC8081816080837C
:1027E000E0EC808182608083E2EC80818160808384
:1027F000EAE7808184608083826080838160808357
:1028000080688083109288011092160610928601CB
:102810008091D70081608093D70080EA8093D800B0
:1028200089B5806189BD89B5826089BD09B400FE22
:10283000FDCF0E94BE0C8091D8008F7C8061809378
:10284000D8008091E000807F8093E0008091E100DB
:102850008E7E8093E1008DE08093E200559A209A6D
:1028600081EC80937C0085B1806F85B984B1877ECF
:1028700084B984B1876E84B95E9A5F988AB1806D9D
:102880008AB9769A6E9881B3806F81BB899880B33C
:102890008D7080BB80E58CBD81E08DBD85E090E0D2
:1028A0000E942E135F9A85E090E00E942E135E989E
:1028B0005C98E3E5F2E080E692E024912EBD000012
:1028C0000DB407FEFDCF31968E179F07B1F75C9AC6
:1028D00081E8809364008091650081608093650049
:1028E00082EA95E00E9453130E94491387FF1FC09C
:1028F0005C9885EA8EBD00000DB407FEFDCF5C9AA2
:102900002E982F982D9881E083BF889513BEFCCF19
:102910002D980E9449138478843871F00E944913DD
:102920008471843131F188EC90E00E942E130E9472
:10293000491382FDEDCF3AC00E942C1388EC90E041
:102940000E942E132F9882E090E00E94791B8F3F07
:1029500029F06FEF82E090E00E94811B84EF91E00C
:102960000E942E132F9A0E94491384788438D9F339
:10297000D5CF0E942C1388EC90E00E942E132E9845
:1029800082E090E00E94791B882329F060E082E0D9
:1029900090E00E94811B84EF91E00E942E132E9AFA
:1029A0000E94491384718431D9F3BDCF0E942C1346
:1029B00082E090E00E945113882319F03E9A3F9ADA
:1029C00002C03E983F9881E090E00E945113182F7A
:1029D000147081FF3AC011112E98C0EFDFEF0E94F2
:1029E000491386FF05C02E9A2F9A0E942C132DC0E2
:1029F000112329F0C430D10511F42E9A2F9881E0CB
:102A00000E94130B00E128E543EA51E0BE0184E196
:102A100090E00E945A0B82EA95E00E9453138FE0E7
:102A200090E00E942E132196C931D105C1F61123E1
:102A300011F02F9A2D9880E991E00E942E130E94A8
:102A40002C138EE995E00E94961A82E390E00E9492
:102A50002E130E9449138111F8CF81E28093A905BA
:102A6000809164008E7F8093640080917A008064FE
:102A700080937A0080917A0086FDFCCFC091780027
:102A8000D09179000E94E50D8E0120E030E09801A0
:102A900011270027600F711F821F931F2091640070
:102AA000216020936400611571058105910511F085
:102AB0000E94701BABE02A2E312C412C512CBEE21F
:102AC000EB2EF12CFDE06F2E712C0E94270B109243
:102AD000B0051092AF051092AE051092AD058FB7FC
:102AE000F89440911B0650911C0660911D06709150
:102AF0001E068FBF8091AA05242F281B822F90913C
:102B0000AB05992329F02093AC051092AB057AC44C
:102B10009091A905291748F48F5F891708F072C4AE
:102B200081E083BF889513BE6DC481E08093AB05BF
:102B30004093AA058091A5059091A60501969093D2
:102B4000A6058093A50580918401811130C00FE214
:102B500020E84BE25AE060E070E080E090E00E9404
:102B60005A0B1092AE051092AD0582E390E090935F
:102B7000B0058093AF0586E19AE00E944B0B82EA94
:102B800095E00E9453130E943F0B88E00E94340B93
:102B90008823C9F381E0809384010E94270B10925F
:102BA000B0051092AF051092AE051092AD05809160
:102BB0008401813009F095C0109297051092960516
:102BC000109295051092940510929905109298050F
:102BD0006FEB79E089E895E00E9408131092AE054A
:102BE0001092AD05CEE1D0E0D093B005C093AF0513
:102BF0008FEA99E00E944B0B8DE999E00E944B0B04
:102C000080E999E00E944B0B86E899E00E944B0B0B
:102C100080918301811109C01092AE051092AD051B
:102C2000D093B005C093AF0520C0813039F4109225
:102C3000AE051092AD0586E290E013C0823049F4F3
:102C40001092AE051092AD05F092B005E092AF057E
:102C50000CC0833051F41092AE051092AD0586E39E
:102C600090E09093B0058093AF0580E591E00E94DD
:102C7000FD0A82EA95E00E9453130E943F0B80E117
:102C80000E94340B882329F0809183018F5F809309
:102C9000830180E80E94340B882329F0809183010E
:102CA00081508093830180918301843010F01092D1
:102CB000830188E00E94340B882399F0809183017E
:102CC000811102C082E00BC0813011F484E007C0A2
:102CD000823011F485E003C0833019F487E08093DB
:102CE000840180918401873009F03FC010929705DC
:102CF00010929605109295051092940510929905E0
:102D00001092980580918201811106C061EA78E0F5
:102D100089E895E00E94081380918201813031F4A6
:102D20006AE877E089E895E00E94081380918201C3
:102D3000823031F467EE76E089E895E00E9408136E
:102D400082EA95E00E9453130E943F0B88E00E94A4
:102D5000340B882351F0809182018F5F8093820130
:102D6000833018F081E08093840180918401823067
:102D700009F03FC180910601882309F453C0A5E7FB
:102D8000B1E0CAE7D1E0EEE7F1E098EC8CE3919393
:102D900019928D9321E0E238F207C9F70AE711E0B2
:102DA000CEE7D1E00E94221B24E230E040E050E078
:102DB0000E948F1B69930E94221BA20191010E9415
:102DC0008F1BDC01CB010296A11DB11DF80181937F
:102DD0008F01F1E0C238DF0729F730917E012091A1
:102DE0007F013217D9F2909180013917B9F28091A1
:102DF0008101381799F2291789F2281779F2981763
:102E000069F210927401109273011092790185E0B9
:102E100090E090930501809304011092060181E0F7
:102E2000809301010E94270B1092B0051092AF050C
:102E30001092AE051092AD05CEE7D1E00AE711E0A1
:102E4000ECE3CE2ED12C80E20E94220BE991F0E03F
:102E5000EE0FFF1FE156F94F659174918EE995E0F1
:102E60000E940813D092AE05C092AD0566E976E0E7
:102E70008EE995E00E940813F80161918F0170E0DE
:102E800080E090E04AE00E944F0C0E940F0BF1E0BE
:102E9000C238DF07C1F60E940F0B0E940F0B6DE8CE
:102EA00076E08EE995E00E940813809104019091EC
:102EB00005010E94900C68E876E08EE995E00E949A
:102EC000081380910201909103010E94900C80915F
:102ED0007901811109C01092AE051092AD051092D2
:102EE000B0051092AF051EC0813039F41092AE05C6
:102EF0001092AD0588E090E011C0823039F4109254
:102F0000AE051092AD0580E190E008C0833051F429
:102F10001092AE051092AD0588E190E09093B00557
:102F20008093AF058EE30E94220B82EA95E00E9417
:102F300053130E943F0B84E00E94340B882329F036
:102F400081E0809384018093060188E00E94340B25
:102F5000882319F083E08093840180E80E94340B79
:102F6000882329F08091790181508093790180E153
:102F70000E94340B882329F0809179018F5F809320
:102F8000790180E20E94340B882349F0809104018A
:102F9000909105010597909305018093040180E4C9
:102FA0000E94340B882349F080910401909105011F
:102FB00005969093050180930401809104019091FE
:102FC00005012091020130910301281739072CF4E3
:102FD000309305012093040106C097FF04C01092AE
:102FE00005011092040180917901843010F0109253
:102FF000790180918401833009F08CC1E0917E01D8
:10300000F0E0EE0FFF1FE156F94F859194910E9479
:103010004B0BE0917F01F0E0EE0FFF1FE156F94FFF
:10302000859194910E944B0BE0918001F0E0EE0FAE
:10303000FF1FE156F94F859194910E944B0BE0914F
:103040008101F0E0EE0FFF1FE156F94F8591949159
:103050000E944B0B0E943F0B84E00E94340B88239C
:1030600029F081E0809306018093840180917301AF
:1030700081110CC01092AE051092AD05F092B00512
:10308000E092AF058AE796E00E944B0B80917301B6
:10309000811105C088E00E94340B8111BBC1809171
:1030A0007301882309F432C180917401811118C021
:1030B00005E711E0C0E0D0E0F80181918F0190E0D8
:1030C0009093AE058093AD05D093B005C093AF0546
:1030D0008EE70E94220B2896C032D10569F74FC0B7
:1030E000883108F052C02AE7C22E21E0D22EC5E76F
:1030F000D1E000E010E00E94221BF60121916F0157
:103100004301821A9108092C000CAA08BB082CE084
:1031100030E040E050E00E948F1BDC01CB010196C3
:10312000A11DB11D88159905AA05BB0594F40E943F
:10313000221B23E030E040E050E00E948F1BDC01C6
:10314000CB010296A11DB11D2881622F680F6883F3
:1031500003C088818F5F8883899190E09093AE054A
:103160008093AD051093B0050093AF058EE70E94E4
:10317000220B085F1F4F0032110509F0BCCF809170
:1031800074018F5F80937401C1C095E7C92E91E0EF
:10319000D92E00E010E0F60181916F0190E090934C
:1031A000AE058093AD051093B0050093AF058EE793
:1031B0000E94220BE5E7F1E080E0B12C90E0219144
:1031C000921710F4B82E922F8F5F8430C1F71092AF
:1031D000AE051092AD05F092B005E092AF05CB2D93
:1031E000D0E0FE01E258FE4FE081F0E0EE0FFF1F5D
:1031F000E156F94F659174918EE995E00E940813AC
:1032000084E796E00E944B0B809179018B1154C0AA
:103210006BE676E08EE995E00E940813C658DE4F13
:10322000888190E001962091040130910501829FF0
:103230004001839F900C929F900C1124092C000C4C
:10324000AA08BB08B7FE0CC08DE20E94220B6627BD
:103250007727CB01681979098A099B094AE003C0DD
:103260004AE0C501B4010E944F0C0E940F0B8091EF
:1032700001018823C1F0888190E00196409104010A
:1032800050910501849F9001859F300D949F300DD2
:1032900011248091020190910301280F391F30936E
:1032A00003012093020110920101085F1F4F0032B9
:1032B000110509F070CF2AC060E676E08EE995E04E
:1032C0000E94081380910401909105010E94900CC6
:1032D00080910101882339F38091020190910301CB
:1032E0002091040130910501821B930B18161906D9
:1032F0002CF49093030180930201D5CF1092030127
:1033000010920201F6E0F0938401CDCF82EA95E0BD
:103310000E94531380918401843009F061C00E949F
:10332000270B1092B0051092AF051092AE051092C7
:10333000AD0580917201811149C00E94270B109246
:10334000B0051092AF051092AE051092AD0582E562
:1033500091E00E94FD0A6091000170E080E090E041
:103360004AE00E944F0C0E940F0B82EA95E00E94F7
:1033700053130E943F0B80E10E94340B882329F0F5
:103380008091000181508093000180E80E94340BFD
:10339000882329F0809100018F5F80930001809144
:1033A00000018A3018F085E08093000180910001CF
:1033B000853018F489E08093000188E00E94340B86
:1033C000882371F081E0809372010AC08AE591E060
:1033D0000E94FD0A0E940F0B82EA95E00E9453139F
:1033E00080918401863071F400E420E840E652E0E8
:1033F00060E070E080E090E00E945A0B82EA95E085
:103400000E94531380E090E0892B09F45ECB0E9468
:10341000000058CB81E08093730141CEE1ECF5E0F0
:103420001382128288EE93E0A0E0B0E0848395835B
:10343000A683B7838BE191E0918380838FEF9FEF29
:1034400095878487EEE9F5E0138212821186128651
:1034500080E1838710861782158689E391E0918346
:10346000808387E491E095838483108A1786128A8B
:10347000118A81E0838B148A858B168AE9E8F5E04E
:10348000138212822DE231E03183208329E831E07A
:103490003683258320E830E03087278320E430E03E
:1034A0003287218795E0948B838B16861586108A48
:1034B00017861486138681E090E0928B818B1482AC
:1034C0000895DF92EF92FF920F931F93CF93DF93B4
:1034D000D82EF92EE42E062F10E0C8010196880F91
:1034E0000E94830D83E00E94830DCD2DDF2D0C0FF4
:1034F0001D1FC017D10789F0E7FE03C0FE018491AC
:1035000001C088810E94830DF82E80E00E94830D07
:103510008F2121968111EDCF01C081E0DF91CF9104
:103520001F910F91FF90EF90DF9008950F931F93DD
:10353000CF93DF93EC0181E090E00E94511380FF74
:103540002EC08AE090E00E9451139FEF980F9E3F9B
:1035500030F522E330E0388B2F8728E330E03A8BD8
:10356000298B0BE010E0E881F9810190F081E02DDA
:10357000682FCE010995C8010E9451130F5F1F4F9C
:103580000131110581F7CE0104960E94531388EE94
:1035900093E0DF91CF911F910F910C942E13DF9147
:1035A000CF911F910F91089504970C94961A8F92C2
:1035B0009F92AF92BF92CF92DF92EF92FF92CF9302
:1035C000DF93EC01688179818A819B8161157105A6
:1035D0008105910521F464E279ED8BE597E02DE119
:1035E00033EF41E050E00E948F1B49015A019B01DB
:1035F000AC01A7EAB1E40E94AE1B6B017C01ACEE0A
:10360000B4EFA50194010E94BC1BDC01CB018C0D21
:103610009D1DAE1DBF1DB7FF03C00197A109B04896
:1036200088839983AA83BB83BC01CD019F77DF91F7
:10363000CF91FF90EF90DF90CF90BF90AF909F9091
:103640008F9008958F929F92AF92BF92CF92DF9208
:10365000EF92FF9260911301709114018091150116
:1036600090911601611571058105910521F464E2BF
:1036700079ED8BE597E02DE133EF41E050E00E94DA
:103680008F1B49015A019B01AC01A7EAB1E40E94DA
:10369000AE1B6B017C01ACEEB4EFA50194010E945E
:1036A000BC1BDC01CB018C0D9D1DAE1DBF1DB7FFEA
:1036B00003C00197A109B0488093130190931401AE
:1036C000A0931501B0931601BC01CD019F77FF9027
:1036D000EF90DF90CF90BF90AF909F908F90089524
:1036E0006093130170931401809315019093160158
:1036F0000895F999FECF92BD81BDF89A992780B5BA
:103700000895262FF999FECF1FBA92BD81BD20BD25
:103710000FB6F894FA9AF99A0FBE01960895052EFD
:1037200097FB1EF400940E94A61B57FD07D00E9431
:10373000C11B07FC03D04EF40C94A61B509540957A
:10374000309521953F4F4F4F5F4F0895909580954D
:10375000709561957F4F8F4F9F4F08950E94E31B97
:10376000A59F900DB49F900DA49F800D911D1124D5
:103770000895B7FF0C94AE1B0E94AE1B821B930BE7
:103780000895A1E21A2EAA1BBB1BFD010DC0AA1FA2
:10379000BB1FEE1FFF1FA217B307E407F50720F0BA
:1037A000A21BB30BE40BF50B661F771F881F991F35
:1037B0001A9469F760957095809590959B01AC017E
:1037C000BD01CF010895A29FB001B39FC001A39F87
:1037D000700D811D1124911DB29F700D811D11244A
:1037E000911D089597FB072E16F4009407D077FDDE
:1037F00009D00E94061C07FC05D03EF490958195E7
:103800009F4F0895709561957F4F0895AA1BBB1B2C
:1038100051E107C0AA1FBB1FA617B70710F0A61BD0
:10382000B70B881F991F5A95A9F780959095BC01F1
:10383000CD010895EE0FFF1F0590F491E02D09943E
:04384000F894FFCF2A
:103844000501640005000100E1000000000000FF24
:10385400FFFFFF0100000000000000960AD30CB730
:103864000AAC0A690DBB0AD90A000000005D12A067
:10387400100513041300000000CA10A0100513045F
:1038840013961AFCFF0000D41A00C18081000000C6
:103894003E004D61696E203D20004D61696E2068D7
:1038A4006173206265656E2063616C6C6564000DF4
:0238B4000A0008
:00000001FF
