:100000000C9402060C942A060C942A060C942A06D8
:100010000C942A060C942A060C942A060C942A06A0
:100020000C942A060C942A060C948B090C94FD0956
:100030000C942A060C942A060C942A060C942A0680
:100040000C942A060C942A060C942A060C942A0670
:100050000C942A060C942A060C942A060C94FC0B89
:100060000C942A060C942A060C942A060C942A0650
:100070000C942A060C942A060C942A060C942A0640
:100080000C942A060C942A060C942A060C942A0630
:100090000C942A060C942A060C942A060C942A0620
:1000A0000C942A060C942A060C942A0600B0000030
:1000B000A170E150964F26900F1D070C0096690025
:1000C0004AE44A0048444000806810000F99FB8FC2
:1000D0009DBDBBFB77D4D4DF1F1A1AFE7F5D5DFF89
:1000E000805A0000A0A4AA0010BA3400FF5953F3AC
:1000F000FF9B9B9EFFB9B996FF9595D19FF4940FF6
:10010000FC295F91FF1838F8FF9294FFFF95D5F70F
:10011000BFB5DDD7F18F81F1F788C8F779C6467989
:1001200009FD9B090196F80082818280507162006E
:100130007756560076763700A2B77301077206002D
:100140007827500073347400775176007F55F7009C
:1001500047711000324772007364730015A2750076
:1001600061679400009F6060F4F2F6F20000000006
:10017000003E5B4F5B3E3E6B4F6B3E1C3E7C3E1C2D
:10018000183C7E3C181C577D571C1C5E7F5E1C0073
:10019000183C1800FFE7C3E7FF0018241800FFE72A
:1001A000DBE7FF30483A060E2629792926407F05ED
:1001B0000507407F05253F5A3CE73C5A7F3E1C1C03
:1001C00008081C1C3E7F14227F22145F5F005F5FC3
:1001D00006097F017F006689956A606060606094AF
:1001E000A2FFA29408047E040810207E20100808B4
:1001F0002A1C08081C2A08081E101010100C1E0CBF
:100200001E0C30383E3830060E3E0E060000000050
:100210000000005F00000007000700147F147F1437
:10022000242A7F2A1223130864623649562050007C
:1002300008070300001C2241000041221C002A1C68
:100240007F1C2A08083E0808008070300008080853
:100250000808000060600020100804023E51494573
:100260003E00427F400072494949462141494D3391
:100270001814127F1027454545393C4A49493141F8
:10028000211109073649494936464949291E0000C6
:10029000140000004034000000081422411414141B
:1002A0001414004122140802015909063E415D5907
:1002B0004E7C1211127C7F494949363E4141412210
:1002C0007F4141413E7F494949417F090909013E3A
:1002D000414151737F0808087F00417F4100204061
:1002E000413F017F081422417F404040407F021C73
:1002F000027F7F0408107F3E4141413E7F0909098A
:10030000063E4151215E7F09192946264949493255
:1003100003017F01033F4040403F1F2040201F3F1B
:100320004038403F631408146303047804036159A0
:10033000494D43007F4141410204081020004141E2
:10034000417F04020102044040404040000307088E
:100350000020545478407F2844443838444444288A
:10036000384444287F385454541800087E09021831
:10037000A4A49C787F0804047800447D40002040B9
:10038000403D007F1028440000417F40007C0478FD
:1003900004787C080404783844444438FC18242445
:1003A0001818242418FC7C080404084854545424C5
:1003B00004043F44243C4040207C1C2040201C3C42
:1003C0004030403C44281028444C9090907C446439
:1003D000544C4400083641000000770000004136CC
:1003E000080002010204023C2623263C1EA1A16152
:1003F000123A4040207A3854545559215555794184
:100400002154547841215554784020545579400C5A
:100410001E5272123955555559395454545939553B
:100420005454580000457C410002457D420001457E
:100430007C40F0292429F0F0282528F07C545545EB
:10044000002054547C547C0A097F4932494949327E
:100450003248484832324A4848303A4141217A3A93
:1004600042402078009DA0A07D39444444393D405D
:1004700040403D3C24FF2424487E4943662B2FFC0A
:100480002F2BFF0929F620C0887E090320545479B8
:10049000410000447D413048484A32384040227A89
:1004A000007A0A0A727D0D19317D2629292F282606
:1004B0002929292630484D4020380808080808080E
:1004C0000808382F10C8ACBA2F102834FA00007B67
:1004D000000008142A142222142A1408950022006D
:1004E00095AA005500AAAA55AA55AA000000FF0027
:1004F000101010FF00141414FF001010FF00FF1064
:1005000010F010F0141414FC001414F700FF000095
:10051000FF00FF1414F404FC141417101F10101F14
:10052000101F1414141F00101010F0000000001F02
:10053000101010101F10101010F010000000FF100D
:100540001010101010101010FF10000000FF140009
:1005500000FF00FF00001F10170000FC04F414143B
:100560001710171414F404F40000FF00F714141407
:1005700014141414F700F7141414171410101F1087
:100580001F141414F4141010F010F000001F101FAA
:100590000000001F14000000FC140000F010F01018
:1005A00010FF10FF141414FF141010101F0000008F
:1005B00000F010FFFFFFFFFFF0F0F0F0F0FFFFFF93
:1005C0000000000000FFFF0F0F0F0F0F38444438EA
:1005D000447C2A2A3E147E02020606027E027E0225
:1005E00063554941633844443C04407E201E200644
:1005F000027E020299A5E7A5991C2A492A1C4C7281
:1006000001724C304A4D4D303048784830BC625A07
:10061000463D3E494949007E0101017E2A2A2A2A97
:100620002A44445F444440514A444040444A514073
:100630000000FF0103E080FF000008086B6B083634
:1006400012362436060F090F0600001818000000A5
:100650001010003040FF0101001F01011E00191D94
:100660001712003C3C3C3C0000000000F0F89C8E5F
:100670008783878E9CF8F00000FEFF0303030303CB
:10068000070EFCF80000FEFF0303030303070EFC44
:10069000F80000FFFF00000000000000FFFF000066
:1006A000FEFF8383838383C7EE7C380000F8FC0E53
:1006B00007030303070EFCF800003F7FE0C08080C3
:1006C000C0E07F3FFFFF01010101010101FFFF00C9
:1006D00000FFFF0C0C0C0C1C3E77E3C100007FFFF9
:1006E000C0C0C0C0C0E0703F1F00001F3F70E0C02E
:1006F000C0C0E0703F1F00007FFFC1C1C1C1C1E3A6
:10070000773E1C00001F3F70E0C0C0C0E0703F1F7C
:10071000000000000001FFFF01000000D5F08D1473
:10072000A1C881CFD9F1AF20004845592C20474FAF
:10073000424C494E2C20594F5520574F524B204187
:10074000540A54484520434153494E4F204E4F5779
:100750002E0A4D414B452054484520424F535320CB
:1007600048415050590A4259204D414B494E47206B
:100770004D4F4E45592C204F5220454C534521009A
:10078000205072657373204120746F20436F6E7424
:10079000696E75650000E0E0C04060E0C0C04040A8
:1007A000C0C0800000000000808080C08000000089
:1007B00000008000000080800000000000000000B9
:1007C000000000000000000007FCFE030000000025
:1007D0000000000000000000000000000000000019
:1007E0000000000000000000000000000000008089
:1007F0000000000000000000008080800000000079
:1008000007FEFE00000000C6CFC60000008080C0CA
:100810002060602000003F3F3F000020FF7F00007D
:1008200000FFFF80000000FFFF800003FFFF0000CB
:100830000001FFFF030103FFFFFC00000038FCFE86
:1008400082C7C7E68000000101FFFF03020000F03D
:10085000F80C3EFCE000001CFEF80C0E1E0C000024
:10086000F8FC06061FFEF800000001FFFE02030769
:10087000FFFE000000FCFEFF010103FFFF0000007F
:1008800000FFFF00000000FFFF400000000327768C
:100890006222231F0E000000000000000000000084
:1008A0000000010000000000030703020101000036
:1008B00000000F0F0600000F3F1F000000103879E6
:1008C000F060203F1F00000060FFFF40000000FFBD
:1008D000FF86030100000080FFFF80000000000091
:1008E0007FFFE0C0403F1F00000038FFFF3830109E
:1008F0000F0700000003070F0E04020301000000B1
:1009000001030100000000000100000000000000E1
:1009100000000000000000000000000000000000D7
:1009200000000000000000000000000000000000C7
:1009300000000000000000000000000000000000B7
:1009400000000000000000000001010000000003A2
:100950000701000000000001070300000000000084
:1009600000010100000000000000201F1F10000017
:100970000000000000000000000000000000000077
:100980000000000000000000000000000000000067
:100990000000000000000000000000000000000057
:1009A0000000000000000000000000000000000047
:1009B00000000000000000000000008080C0C0C0F7
:1009C0000000C0C04040C0C08000000000808040E7
:1009D000C0C04000000000CCDE84000000C0C08029
:1009E00080C0C0C08000000000808040C0C0800087
:1009F00000000000000000000000000000000000F7
:100A000000000000000000000000000000000000E6
:100A100000000000000000000000000000000000D6
:100A200000000000000000000000000000000000C6
:100A3000000000000000000000003F7F7F20000059
:100A400000003C7E6340607F7F00000000276764F9
:100A500044663E1C0000007F7F20000000207F7F56
:100A60000000207F7F0000001F7F7060403F3F1F1D
:100A70000000000000000000000000000000000076
:100A80000000000000000000000000000000000066
:100A90000000000000000000000000000000000056
:100AA0000000000000000000000000000000000046
:100AB0000000000000000000000000000000000036
:100AC0000000000000000000000000000000000026
:100AD0000000000000000000000000000000000016
:100AE0000000000000000000000000000000000006
:100AF00000000000000000000000000000000000F6
:100B000000000000000000000000000000000000E5
:100B100000000000000000000000000000000000D5
:100B200000000000000000000000000000000000C5
:100B300000000000000000000000000000000000B5
:100B400000000000000000000000000000000000A5
:100B50000000000000000000000000000000000095
:100B60000000000000000000000000000000000085
:100B70000000000000000000000000000000000075
:100B80000000000000000000000000000000000065
:100B90000000000000080B0002020201000904002E
:100BA00000010202000005240010010524010101DA
:100BB00004240206052406000107058103100040F5
:100BC00009040100020A00000007050202400000BB
:100BD000070583024000000403090412010002EF2C
:100BE0000201404123368000010102030141726489
:100BF00075696E6F204C4C430041726475626F7969
:100C000000002C1211241FBECFEFDAE0DEBFCDBFF3
:100C100011E0A0E0B1E0E4E9F7E202C005900D9236
:100C2000AE37B107D9F726E0AEE7B1E001C01D92BB
:100C3000AE31B207E1F716E0C2E0D6E004C021977A
:100C4000FE010E94C213C130D107C9F70E94530FA1
:100C50000C94C8130C940000EF92FF920F931F9313
:100C6000CF93DF938C017B01C0E0D0E0F701EC0F64
:100C7000FD1F6491662361F0D801ED91FC91019014
:100C8000F081E02DC8010995892B11F02196EECF56
:100C9000CE01DF91CF911F910F91FF90EF900895BA
:100CA000CF92DF92EF92FF920F931F93CF93DF9338
:100CB0006C017A018B01C0E0D0E0CE15DF0581F038
:100CC000D8016D918D01D601ED91FC910190F081DB
:100CD000E02DC6010995892B11F02196EECF7E01FA
:100CE000C701DF91CF911F910F91FF90EF90DF909F
:100CF000CF9008952D9A0895BC0180E090E0AB015B
:100D0000FC010E94410941505109E109F10928F013
:100D100068517C4F8F4F9F4FF6CFAB01FC010E9473
:100D20004109641775078E079F07C8F308958FB1AF
:100D30008095807F669B88601C9B846008952F92BD
:100D40003F924F925F926F927F928F929F92AF925B
:100D5000BF92CF92DF92EF92FF920F931F93CF93A8
:100D6000DF93CDB7DEB728970FB6F894DEBF0FBE7E
:100D7000CDBF9D838C836A30A1F4DC0155962C9104
:100D8000559751968D919C915297B8E02B9F800D6D
:100D9000911D1124EC81FD81928B818B108A178625
:100DA000C6C06D3009F4C3C0AC81BD811F968D9162
:100DB0009C91509780389105BCF0EC81FD8125898C
:100DC000422F50E087859089F6E02F9F800D911D7E
:100DD0001124AC81BD8150969C938E931F9756969B
:100DE0002C9121118FC0A3C0EC81FD81E188F28894
:100DF000F0E4EF16F1040CF7AC81BD815596BC917F
:100E0000BE839C01E5E0BE9F200D311D112412160A
:100E100013069CF6CB2ED12C970158E0B59F200DE0
:100E2000311D11241216130644F6AC81BD8154966F
:100E30005C90549753964C90B5E06B9FF001112451
:100E40009F0124593E4F38872F83912C30E1732E18
:100E5000EF81F8858490F5E09F1201C0812C870115
:100E600028E0622E80FE02C0542D01C0552D511184
:100E700003C0541409F433C09C01F52FF170322ED5
:100E8000622F681B4E81641750F5B801A62FA01B76
:100E90005E81A51708F520383105D8F46034710556
:100EA000C0F45B01A501E1E041FDE4E040FDEE0F8F
:100EB00042FDE295487F749ED0011124A30DBA83B0
:100EC000A983AA56BE4FBC90BE2AF11101C0BE260E
:100ED000BC926F5F7F4FDACF2F5F3F4FD0CF8694AA
:100EE0006A940C0D1D1D6110BDCF93948C0D9D1D3A
:100EF0002F8138852F5F3F4F38872F8336E093123D
:100F0000A7CF5BCF6AEF64039001659F300D11247A
:100F100020583F4F2817390754F48C819D81DC01FC
:100F2000ED91FC910190F081E02D6AE0099581E05E
:100F300090E028960FB6F894DEBF0FBECDBFDF91CC
:100F4000CF911F910F91FF90EF90DF90CF90BF90C6
:100F5000AF909F908F907F906F905F904F903F9059
:100F60002F90089508954F925F926F927F928F9283
:100F70009F92AF92BF92CF92DF92EF92FF920F9328
:100F80001F93CF93DF936C013B01102F38E0832E2A
:100F9000912C7A01FF24270193E0559447949A9568
:100FA000E1F7CA0187709927892B41F5D601179679
:100FB000CD91DC911897C3019927BE010E949A1325
:100FC0004C9EF0014D9EF00D5C9EF00D1124992772
:100FD000D60115964D915C9116978E0F9F1FFA01C1
:100FE000E80FF91F111106C0C22FC09520812C23D4
:100FF000208327C0C081C22BC08323C0C22FD0E072
:101000004770A42EB12C720183E0EE0CFF1C8A9570
:10101000E1F79E0101C0220F4A95EAF7012FA701CF
:10102000B301C6010E94B307C4018A199B0902C01B
:10103000D595C7958A95E2F72C2FA701485F5F4F9A
:10104000A8CFDF91CF911F910F91FF90EF90DF908C
:10105000CF90BF90AF909F908F907F906F905F9058
:101060004F9008955F926F927F928F929F92AF926E
:10107000BF92CF92DF92EF92FF920F931F93CF9385
:10108000DF93EC016A3061F48D859E859C878B87A8
:101090002C898F859889820F911D988B8F8777C0B7
:1010A000CB84DC84693031F489E0C80ED11CDC8645
:1010B000CB866DC09DEFC9169FEFD90654F48B897E
:1010C00090E004962B853C85820F931F9C878B872D
:1010D0005EC08F819885C816D9068CF7EF84F88892
:1010E0008DEFE8168FEFF80654F389859A85E81698
:1010F000F9062CF7603208F46FE780EE860F9FE95F
:10110000960F9A3118F49FEFE91AF90A8C3011F012
:101110008B3119F49FEFE91AF90A869594E0899FBB
:1011200050011124360184E0680E711C4601162F0F
:101130001170F401EC19FD09EA0DFB1DE455FF4F98
:101140008491111103C08F70582E04C0582E5294F0
:101150008FE058228C81882361F001E089899A8987
:10116000892B09F000E02FE0A701B401CE010E9415
:10117000B3070989252DA701B401CE010E94B30749
:101180009FEF891A990A6814790499F698CF81E03B
:1011900090E0DF91CF911F910F91FF90EF90DF9042
:1011A000CF90BF90AF909F908F907F906F905F9007
:1011B0000895089580E090E008950C9421134091E3
:1011C0008F015091900120918D0130918E01421735
:1011D0005307B4F49091E8009570E1F39091E80022
:1011E00092FD19C08093F10080918F019091900140
:1011F00001968F739927892B19F48EEF8093E8005D
:1012000080918F019091900101969093900180932D
:101210008F0181E0089580E00895DF92EF92FF92C0
:101220000F931F93CF93DF93D82E8A017B01E40E97
:10123000F51EEB01CE15DF0571F0D7FE03C0FE01F0
:10124000849101C088810E94DF0821968111F2CF2C
:101250008FEF9FEF01C0C801DF91CF911F910F91D8
:10126000FF90EF90DF900895615030F02091F100F1
:10127000FC0120830196F8CF289884E6809394019E
:101280000895A9E8B1E02FB7F8947D918D919C91D4
:1012900066B52FBFA89B05C06F3F18F47F5F8F4FC7
:1012A0009F4F22E0660F771F881F991F2A95D1F75D
:1012B00008950F931F93CF93DF931F92CDB7DEB79F
:1012C00082E0898342E450E065E97BE080E80E94A7
:1012D0000D090E94FA0EDC0112960D911C911397D4
:1012E0000115110589F0D801ED91FC910280F3817F
:1012F000E02DBE016F5F7F4FC801099597FD04C0C7
:10130000F80100851185ECCF89810F90DF91CF9195
:101310001F910F9108951F920F920FB60F921124F3
:101320008F939F938091E1009091E100937F909340
:10133000E10083FF0FC01092E90091E09093EB0071
:101340001092EC0092E39093ED001092950198E0DA
:101350009093F00082FF20C093E09093E900909179
:10136000F200992319F09AE39093E800909192018A
:10137000992339F090919201915090939201992381
:1013800089F190919401992339F0909194019150B1
:1013900090939401992341F184FF10C08091E20061
:1013A0008E7E81608093E2008091E1008F7E809349
:1013B000E100809193018E7E806111C080FF16C094
:1013C0008091E2008E7E80618093E2008091E10056
:1013D0008E7E8093E100809193018E7E8160809368
:1013E000930104C05D9ACDCF289AD6CF9F918F915B
:1013F0000F900FBE0F901F9018951F920F920FB66F
:101400000F921124CF92DF92EF92FF920F931F93CE
:101410002F933F934F935F936F937F938F939F93FC
:10142000AF93BF93EF93FF93CF93DF93CDB7DEB727
:101430006C97DEBFCDBF1092E9008091E80083FF7A
:10144000BCC168E0CE0145960E94340982EF8093CA
:10145000E8008D8987FF05C09091E80090FFFCCFE0
:1014600003C09EEF9093E800982F907609F0C6C0D5
:101470009E894F89588D2F89F88C91110CC0803826
:1014800029F4809184018093F10002C01092F10050
:101490001092F1008FC1913051F481118BC1413014
:1014A000510509F087C1809184018D7F0BC0933075
:1014B00061F481117FC14130510509F07BC18091F8
:1014C000840182608093840175C1953049F48091D4
:1014D000E80080FFFCCF822F80688093E3006AC120
:1014E000963009F05EC00B8D1C8D22E01092E90051
:1014F0001092900110928F01F21232C010928E0160
:1015000010928D010E94590999E0BE016F5F7F4FD3
:10151000DB01E92F1D92EA95E9F79983FA8291E0C0
:101520009E8390EA98879AEF998720918F01309156
:101530009001275F3F4F3C832B838D831092E900FE
:101540001092900110928F0110938E0100938D01E3
:1015500049E050E080E00E940D090E9459092AC12B
:1015600010938E0100938D010E94FA0EDC011296F9
:101570000D911C9113970115110509F4BEC0D801F6
:10158000ED91FC910480F581E02DBE016B5E7F4FF3
:10159000C8010995009709F0ABC0F80100851185D5
:1015A000EACF973009F402C1983021F481E08093AA
:1015B000F10000C1993009F0FDC0837009F0F6C058
:1015C000E1E1F1E081E031E096E32081211109C001
:1015D0008EE78093EA001092EA008F89809395014C
:1015E000E9C08093E9003093EB0021912093EC0057
:1015F0009093ED008F5F873041F7EACF8B8D9C8D04
:101600001092E9001092900110928F0190938E0138
:1016100080938D01898D81114FC08E899D89913A6A
:1016200049F4813209F0C2C047E050E064E071E063
:1016300080E0B6C0913209F0B9C0833269F48F8975
:10164000988DA0E0B0E08093000190930101A093F9
:101650000201B0930301AEC0803269F48091E800CA
:1016600082FFFCCF67E084E091E00E9434098BEFB9
:101670008093E80006C0823209F09CC08F89809375
:101680000B018091040190910501A0910601B09198
:101690000701803B9440A105B10509F084C0809109
:1016A0000B0180FD80C088E78093910180916400E8
:1016B0008F7D809364007EC00E94FA0EDC0112963A
:1016C0000D911C9113970115110509F46FC0D801F4
:1016D000ED91FC910190F081E02DBE016B5E7F4F9A
:1016E000C8010995811166C0F80100851185EBCF0D
:1016F000181619060CF45EC059C0F1E0FF1609F483
:1017000046C0F3E0FF1252C08F89882309F442C01B
:10171000823029F440E867E089EF9BE006C0813021
:1017200051F440E86BE08DEE9BE00E94F7118823B6
:1017300009F43CC03FC08330C9F50E94FA0EDC01B9
:101740001296ED90FC9013978E010F5F1F4F68016A
:10175000E114F10479F0D701ED91FC910680F78155
:10176000E02DB801C7010995080F111DF701E084AC
:10177000F184EECFD8011C92F60101900020E9F728
:101780003197BF016C197D0940E0C601CECF6BEDEA
:101790007BE002C067ED7BE0FB01449150E080E814
:1017A0000E940D0907C01092910104C081E280934C
:1017B000EB0003C08EEF8093E8006C960FB6F894B0
:1017C000DEBF0FBECDBFDF91CF91FF91EF91BF91F3
:1017D000AF919F918F917F916F915F914F913F91C9
:1017E0002F911F910F91FF90EF90DF90CF900F906E
:1017F0000FBE0F901F9018950F930FB70F931F9266
:1018000011248F939F93EF93FF93E0E8F1E0809191
:10181000880191E08D5F8D3710F08D5793958093FF
:1018200088018081890F80839181911D918302813C
:10183000011D02838381811D838309270F7009277E
:101840000295009387013BD08111009385018C3A6A
:1018500011F08C35A1F400918601901B963088F030
:1018600085538093000880930108289828D0F1F7C9
:1018700088E198E08093600090936000FFCF9093A0
:10188000860180919101815020F08093910187E73A
:1018900041F3E9E8F1E080819181019680839183B1
:1018A00082819381811D911D82839383FF91EF91AA
:1018B0009F918F911F900F910FBF0F9118958FB12E
:1018C0008095807F669B88601C9B84600895209132
:1018D0009501211103C08FEF9FEF08955FB7F89432
:1018E00022E02093E9002091F20030E01216130666
:1018F00014F421E030E0422FFC0184E6415038F03E
:101900002898809394019091F1009193F7CF21153D
:10191000310521F08091F200882319F05FBFC901E1
:1019200008958BE68093E800F9CF2FB7F89483E011
:101930008093E9009091E800892F807295FF04C0A0
:101940009091F20080E4891B2FBF0895CF93DF931D
:101950001F92CDB7DEB76983DC01ED91FC91028067
:10196000F381E02D41E050E0BE016F5F7F4F0995AC
:101970000F90DF91CF91089583E08093E9008091EB
:10198000F200882319F08AE38093E80008950E940A
:10199000950C90E00895CF93DF931F92CDB7DEB7FB
:1019A000FC018485958597FD05C02FEF3FEF3587B6
:1019B00024870BC0CE0101960E94670C019719F491
:1019C000898190E002C08FEF9FEF0F90DF91CF9160
:1019D00008950F931F93CF93DF931F92CDB7DEB778
:1019E0008C01FC018485958597FF0EC0CE01019680
:1019F0000E94670C019719F4898190E002C08FEF73
:101A00009FEFF80195878487F801848595850F906D
:101A1000DF91CF911F910F910895FC0184859585E9
:101A200097FD0BC09FB7F89482E08093E900809106
:101A3000F2009FBF90E0019608959FB7F89482E06E
:101A40008093E9008091F2009FBF90E00895E6E95D
:101A5000F1E0A0E0B8E000800EBC8111012C1197EC
:101A6000A0FDFDCF0192B9F70DB4089580E0E6E93D
:101A7000F1E081118FEF0024819381938193819311
:101A80000394D1F708952091B505282329F4909166
:101A9000B405982381E009F480E00895009769F087
:101AA000FC0101900020E9F73197AF01481B590B69
:101AB000BC018BEA95E00C94500680E090E008951C
:101AC0002F923F924F925F926F927F928F929F924E
:101AD000AF92BF92CF92DF92EF92FF920F931F933C
:101AE000CF93DF93CDB7DEB72A970FB6F894DEBF5A
:101AF0000FBECDBF5A01822E912C9401280F391FA1
:101B000037FDBAC0803891050CF0B6C09B01200F9C
:101B1000311D37FDB1C0603471050CF0ADC0AB01B3
:101B200077FF04C044275527461B570B477055279E
:101B30009B0177FF02C0295F3F4FE3E03595279572
:101B4000EA95E1F777FF08C02150310968E070E0BD
:101B5000FB01E41BF50BAF01202E2694269426945E
:101B6000312C077019F0FFEF2F1A3F0A220E331E97
:101B700039017694762C662477946794680E791EE2
:101B8000E12CF12C00E010E0B30160587F4F7A8720
:101B9000698768E070E0FB01E41BF50BFA83E983D9
:101BA0002216330609F468C02830310509F464C0F0
:101BB0002F3FFFEF3F070CF454C0E985FA85E00F93
:101BC000F11FBF016A567E4F7C836B83D801A60D3F
:101BD000B71DAA56BE4F6C0160E070E0681579052C
:101BE0000CF03FC0E0E8CE16D10409F43AC0D7FCAF
:101BF0002CC02F3FFFEF3F0709F43AC0FB01EE0D69
:101C0000FF1DEA0DFB1DE491042E01C0EE0F0A94A6
:101C1000EAF7FC91EF2BEC9341155105B1F0273019
:101C2000310599F0FB01EE0DFF1DEA0DFB1DE4915E
:101C30004E2E512C098002C0559447940A94E2F725
:101C4000EB81FC815080452840826F5F7F4FEB81A4
:101C5000FC813196FC83EB83FFEFCF1ADF0A1196EC
:101C6000BDCF2F5F3F4F00581F4FE80CF91C98CF96
:101C700041155105B9F6E9CF2A960FB6F894DEBFA3
:101C80000FBECDBFDF91CF911F910F91FF90EF90CD
:101C9000DF90CF90BF90AF909F908F907F906F908C
:101CA0005F904F903F902F900895CF93DF930E94C5
:101CB0004E0DEC0189E491E00E944E0D8C0F9D1FAA
:101CC000DF91CF910895E1E0F0E00E944109319762
:101CD00028F068517C4F8F4F9F4FF9CFAB01FC012B
:101CE0000E944109641775078E079F07C8F308957E
:101CF0008F929F92AF92BF92CF92DF92EF92FF921C
:101D00000F931F93CF93DF936C017B018A01809126
:101D10000B01882309F458C080919501882309F4A8
:101D200053C08091930180FF05C08091E0008260E4
:101D30008093E000E801B12C8AEFA82E93E0892E71
:101D40002AE3922E209711F4BB20B9F10E94950C42
:101D5000811106C0AA94AA20B9F10E94630EF2CFA5
:101D6000282F30E0C217D3070CF48C2F9FB7F894BC
:101D70008092E9002091E80025FF1DC0282F30E067
:101D8000C21BD30BF701815020F041914093F10029
:101D9000FACFE20EF31EBB2019F09092E8000AC0C1
:101DA0008091E80085FD07C09092E800BB24B394C1
:101DB000209709F0B12C9FBFC5CF5D9884E6809332
:101DC00092011016110644F081E090E0F601938331
:101DD000828380E090E001C0C801DF91CF911F9124
:101DE0000F91FF90EF90DF90CF90BF90AF909F90BA
:101DF0008F9008958091C60581110DC082E0809377
:101E0000C20584E08093C3051092C5051092C405F5
:101E100081E08093C60582EC95E008950F931F93AF
:101E2000CF93DF938C0181E090E00E94DD0880FF7A
:101E300032C08AE090E00E94DD089FEF980F9E3F3D
:101E400050F522E330E0D80150963C932E931F9733
:101E500028E330E052963C932E935197CBE0D0E0AC
:101E6000D801ED91FC910190F081E02D682FC8011F
:101E70000995CE010E94DD082196C131D10581F777
:101E800080E00E94270D88EE93E0DF91CF911F91B3
:101E90000F910C947C06DF91CF911F910F910895C3
:101EA00004970C940E0F789484B5826084BD816091
:101EB00084BD85B5826085BD816085BD81E08093EC
:101EC0006E00E1E8F0E0108282E080838160808330
:101ED000E0E8808181608083E1E9808182608083A5
:101EE00081608083E0E9808181608083E1EC808192
:101EF000846080838260808381608083E3EC808162
:101F000081608083E0EC808182608083E2EC80816C
:101F100081608083EAE7808184608083826080833F
:101F20008160808380688083109295011092840183
:101F3000109293018091D70081608093D70080EA4E
:101F40008093D80089B5806189BD89B5826089BDDB
:101F500009B400FEFDCF0E94630E8091D8008F7CF3
:101F600080618093D8008091E000807F8093E000C2
:101F70008091E1008E7E8093E1008DE08093E2000D
:101F8000559A209A81EC80937C0085B1806F85B949
:101F900084B1877E84B984B1876E84B95E9A5F9874
:101FA0008AB1806D8AB9769A6E9881B3806F81BB51
:101FB000899880B38D7080BB80E58CBD81E08DBD3C
:101FC00085E090E00E947C065F9A85E090E00E94A8
:101FD0007C065E985C98ECE1F7E089E297E024915A
:101FE0002EBD00000DB407FEFDCF31968E179F0762
:101FF000B1F75C9A81E8809364008091650081600C
:102000008093650080E00E94270D0E94970687FF5D
:102010001FC05C9885EA8EBD00000DB407FEFDCFA1
:102020005C9A2E982F982D9881E083BF889513BED7
:10203000FCCF2D980E9497068478843871F00E9416
:1020400097068471843131F188EC90E00E947C061F
:102050000E94970682FDEDCF3AC00E947A0688EC76
:1020600090E00E947C062F9882E090E00E9421136D
:102070008F3F29F06FEF82E090E00E94291384EFF8
:1020800091E00E947C062F9A0E94970684788438FB
:10209000D9F3D5CF0E947A0688EC90E00E947C06A6
:1020A0002E9882E090E00E942113882329F060E0BE
:1020B00082E090E00E94291384EF91E00E947C0668
:1020C0002E9A0E94970684718431D9F3BDCF0E9465
:1020D0007A0682E090E00E94DD08882319F03E9A9B
:1020E0003F9A02C03E983F9881E090E00E94DD0850
:1020F000182F147081FF39C011112E98C0EFDFEF37
:102100000E94970686FF05C02E9A2F9A0E947A0693
:102110002CC0112329F0C430D10511F42E9A2F9828
:1021200081E00E94270D00E128E54CE656E0BE0163
:1021300084E190E00E94600D80E00E94270D8FE016
:1021400090E00E947C062196C931D105C9F6112381
:1021500011F02F9A2D9880E991E00E947C060E9450
:102160007A068BEA95E00E940E0F82E390E00E94CF
:102170007C060E9497068111F8CF81E28093B60514
:10218000809164008E7F8093640080917A008064E7
:1021900080937A0080917A0086FDFCCFC091780010
:1021A000D09179000E9441096E01E12CF12C760159
:1021B000DD24CC246C0D7D1D8E1D9F1D209164009F
:1021C000216020936400611571058105910511F06E
:1021D0000E9418137724739480E0E82E80E0F82E94
:1021E00011E0CEE1D0E09EE2C92ED12C26E2A22E53
:1021F000B12C32E3832E912C0E94360D1092BD0536
:102200001092BC051092BB051092BA058FB7F894D6
:102210004091800150918101609182017091830110
:102220008FBF8091B705942F981B892F9091B80587
:10223000992329F08093B9051092B805D1C09091E7
:10224000B605891740F48F5F891708F0C9C073BEBF
:10225000889513BEC5C01093B8054093B70580910B
:10226000B2059091B30501969093B3058093B205A2
:1022700080917F01811138C00FE220E845E957E0E5
:1022800060E070E080E090E00E94600D1092BB057D
:102290001092BA059092BD058092BC0560E877E087
:1022A0008BEA95E00E942C0689E491E00E944E0D95
:1022B00080E00E94270D8091B4058093B5050E94AF
:1022C00097068093B40588E00E94430D882399F314
:1022D00010937F010E94360D1092BD051092BC052F
:1022E0001092BB051092BA0580917F01813009F0F0
:1022F00077C01092A4051092A3051092A205109227
:10230000A1051092A6051092A50569E277E086E97D
:1023100095E00E942C061092BB051092BA05D0934E
:10232000BD05C093BC058CE491E00E94550E8CE580
:1023300091E00E94550E8EE691E00E94550E80912C
:102340007E01811109C01092BB051092BA05D0938D
:10235000BD05C093BC0515C0813049F41092BB0582
:102360001092BA05B092BD05A092BC050AC0823099
:1023700041F41092BB051092BA05D092BD05C092EF
:10238000BC058BE791E00E944E0D80E00E94270D76
:102390008091B4058093B5050E9497068093B4059B
:1023A00080E10E94430D882329F080917E018F5F98
:1023B00080937E0180E80E94430D882329F080915C
:1023C0007E01815080937E0180917E01833010F0E8
:1023D00010927E0188E00E94430D811110927F01CE
:1023E000E114F10409F408CF0E94000005CFDF9248
:1023F000EF92FF920F931F93CF93DF93D82EF92E76
:10240000E42E062F10E0C8010196880F0E94DF0815
:1024100083E00E94DF08CD2DDF2D0C0F1D1FC0179C
:10242000D10789F0E7FE03C0FE01849101C08881D5
:102430000E94DF08F82E80E00E94DF088F2121969D
:102440008111EDCF01C081E0DF91CF911F910F91FC
:10245000FF90EF90DF900895EEECF5E0138212828A
:1024600088EE93E0A0E0B0E084839583A683B783F1
:102470008BE191E0918380838FEF9FEF9587848735
:10248000EBEAF5E0138212821186128680E18387DF
:1024900010861782158689E391E09183808387E413
:1024A00091E095838483108A1786128A118A81E0CD
:1024B000838B148A858B168AE6E9F5E013821282F3
:1024C0002DE231E03183208326E931E03683258314
:1024D00020E830E03087278320E430E0328721870E
:1024E00095E0948B838B16861586108A1786148642
:1024F000138681E090E0928B818B148208958F92F5
:102500009F92AF92BF92CF92DF92EF92FF92CF93C2
:10251000DF93EC01688179818A819B816115710566
:102520008105910521F464E279ED8BE597E02DE1D9
:1025300033EF41E050E00E94371349015A019B01FB
:10254000AC01A7EAB1E40E9456136B017C01ACEE2A
:10255000B4EFA50194010E946413DC01CB018C0D42
:102560009D1DAE1DBF1DB7FF03C00197A109B04857
:1025700088839983AA83BB83BC01CD019F77DF91B8
:10258000CF91FF90EF90DF90CF90BF90AF909F9052
:102590008F9008958F929F92AF92BF92CF92DF92C9
:1025A000EF92FF9260910C0170910D0180910E01EC
:1025B00090910F01611571058105910521F464E287
:1025C00079ED8BE597E02DE133EF41E050E00E949B
:1025D000371349015A019B01AC01A7EAB1E40E94FB
:1025E00056136B017C01ACEEB4EFA50194010E947F
:1025F0006413DC01CB018C0D9D1DAE1DBF1DB7FF0B
:1026000003C00197A109B04880930C0190930D017C
:10261000A0930E01B0930F01BC01CD019F77FF90F5
:10262000EF90DF90CF90BF90AF909F908F900895E4
:1026300060930C0170930D0180930E0190930F0134
:102640000895F999FECF92BD81BDF89A992780B57A
:102650000895262FF999FECF1FBA92BD81BD20BDE6
:102660000FB6F894FA9AF99A0FBE01960895052EBE
:1026700097FB1EF400940E944E1357FD07D00E9452
:10268000691307FC03D04EF40C944E1350954095FB
:10269000309521953F4F4F4F5F4F0895909580950E
:1026A000709561957F4F8F4F9F4F08950E948B13B8
:1026B000A59F900DB49F900DA49F800D911D112496
:1026C0000895B7FF0C9456130E945613821B930B68
:1026D0000895A1E21A2EAA1BBB1BFD010DC0AA1F63
:1026E000BB1FEE1FFF1FA217B307E407F50720F07B
:1026F000A21BB30BE40BF50B661F771F881F991FF6
:102700001A9469F760957095809590959B01AC013E
:10271000BD01CF010895A29FB001B39FC001A39F47
:10272000700D811D1124911DB29F700D811D11240A
:10273000911D089597FB072E16F4009407D077FD9E
:1027400009D00E94AE1307FC05D03EF49095819508
:102750009F4F0895709561957F4F0895AA1BBB1BED
:1027600051E107C0AA1FBB1FA617B70710F0A61B91
:10277000B70B881F991F5A95A9F780959095BC01B2
:10278000CD010895EE0FFF1F0590F491E02D0994FF
:04279000F894FFCFEB
:10279400FFFFFFFF00E10000000000000100000057
:1027A40000C1808100000000000000A60C780EC764
:1027B4000CBC0C0D0DCB0CE90C00000000320850D1
:1027C40006DA08D908000000009F065006DA08D986
:1027D400080E0FFCFF0000500F0D0A0020204C696A
:1027E4007A61726420526163696E670020204E69C9
:1027F4006C626F677320526576656E676500202092
:0E2804004F746865722047616D65003E0000EC
:00000001FF
